{
    "contractName": "RequestCity",
    "abi": [
        {
            "constant": true,
            "inputs": [
                {
                    "internalType": "bytes4",
                    "name": "interfaceId",
                    "type": "bytes4"
                }
            ],
            "name": "supportsInterface",
            "outputs": [
                {
                    "internalType": "bool",
                    "name": "",
                    "type": "bool"
                }
            ],
            "payable": false,
            "stateMutability": "view",
            "type": "function"
        },
        {
            "constant": false,
            "inputs": [
                {
                    "internalType": "address",
                    "name": "_spender",
                    "type": "address"
                },
                {
                    "internalType": "uint256",
                    "name": "_value",
                    "type": "uint256"
                }
            ],
            "name": "approveToken",
            "outputs": [
                {
                    "internalType": "bool",
                    "name": "",
                    "type": "bool"
                }
            ],
            "payable": false,
            "stateMutability": "nonpayable",
            "type": "function"
        },
        {
            "constant": true,
            "inputs": [],
            "name": "name",
            "outputs": [
                {
                    "internalType": "string",
                    "name": "",
                    "type": "string"
                }
            ],
            "payable": false,
            "stateMutability": "view",
            "type": "function"
        },
        {
            "constant": true,
            "inputs": [
                {
                    "internalType": "uint256",
                    "name": "tokenId",
                    "type": "uint256"
                }
            ],
            "name": "getApproved",
            "outputs": [
                {
                    "internalType": "address",
                    "name": "",
                    "type": "address"
                }
            ],
            "payable": false,
            "stateMutability": "view",
            "type": "function"
        },
        {
            "constant": false,
            "inputs": [
                {
                    "internalType": "address",
                    "name": "to",
                    "type": "address"
                },
                {
                    "internalType": "uint256",
                    "name": "tokenId",
                    "type": "uint256"
                }
            ],
            "name": "approve",
            "outputs": [],
            "payable": false,
            "stateMutability": "nonpayable",
            "type": "function"
        },
        {
            "constant": false,
            "inputs": [
                {
                    "internalType": "address",
                    "name": "_to",
                    "type": "address"
                },
                {
                    "internalType": "uint256",
                    "name": "_value",
                    "type": "uint256"
                }
            ],
            "name": "transferToken",
            "outputs": [
                {
                    "internalType": "bool",
                    "name": "",
                    "type": "bool"
                }
            ],
            "payable": false,
            "stateMutability": "nonpayable",
            "type": "function"
        },
        {
            "constant": true,
            "inputs": [],
            "name": "requestPrice",
            "outputs": [
                {
                    "internalType": "uint256",
                    "name": "",
                    "type": "uint256"
                }
            ],
            "payable": false,
            "stateMutability": "view",
            "type": "function"
        },
        {
            "constant": false,
            "inputs": [
                {
                    "internalType": "address",
                    "name": "addr",
                    "type": "address"
                }
            ],
            "name": "removeOwner",
            "outputs": [
                {
                    "internalType": "bool",
                    "name": "success",
                    "type": "bool"
                }
            ],
            "payable": false,
            "stateMutability": "nonpayable",
            "type": "function"
        },
        {
            "constant": true,
            "inputs": [],
            "name": "totalSupply",
            "outputs": [
                {
                    "internalType": "uint256",
                    "name": "",
                    "type": "uint256"
                }
            ],
            "payable": false,
            "stateMutability": "view",
            "type": "function"
        },
        {
            "constant": false,
            "inputs": [
                {
                    "internalType": "address",
                    "name": "from",
                    "type": "address"
                },
                {
                    "internalType": "address",
                    "name": "to",
                    "type": "address"
                },
                {
                    "internalType": "uint256",
                    "name": "tokenId",
                    "type": "uint256"
                }
            ],
            "name": "transferFrom",
            "outputs": [],
            "payable": false,
            "stateMutability": "nonpayable",
            "type": "function"
        },
        {
            "constant": false,
            "inputs": [
                {
                    "internalType": "uint256",
                    "name": "_newprice",
                    "type": "uint256"
                }
            ],
            "name": "setRequestPrice",
            "outputs": [
                {
                    "internalType": "uint256",
                    "name": "",
                    "type": "uint256"
                }
            ],
            "payable": false,
            "stateMutability": "nonpayable",
            "type": "function"
        },
        {
            "constant": false,
            "inputs": [
                {
                    "internalType": "address",
                    "name": "from",
                    "type": "address"
                },
                {
                    "internalType": "address",
                    "name": "to",
                    "type": "address"
                },
                {
                    "internalType": "uint256",
                    "name": "tokenId",
                    "type": "uint256"
                }
            ],
            "name": "safeTransferFrom",
            "outputs": [],
            "payable": false,
            "stateMutability": "nonpayable",
            "type": "function"
        },
        {
            "constant": true,
            "inputs": [
                {
                    "internalType": "address",
                    "name": "_owner",
                    "type": "address"
                }
            ],
            "name": "balanceAddressToken",
            "outputs": [
                {
                    "internalType": "uint256",
                    "name": "balance",
                    "type": "uint256"
                }
            ],
            "payable": false,
            "stateMutability": "view",
            "type": "function"
        },
        {
            "constant": false,
            "inputs": [
                {
                    "internalType": "uint256",
                    "name": "_newTokenReward",
                    "type": "uint256"
                }
            ],
            "name": "setTokenReward",
            "outputs": [
                {
                    "internalType": "uint256",
                    "name": "",
                    "type": "uint256"
                }
            ],
            "payable": false,
            "stateMutability": "nonpayable",
            "type": "function"
        },
        {
            "constant": true,
            "inputs": [
                {
                    "internalType": "address",
                    "name": "",
                    "type": "address"
                },
                {
                    "internalType": "uint256",
                    "name": "",
                    "type": "uint256"
                }
            ],
            "name": "applicantRequests",
            "outputs": [
                {
                    "internalType": "uint256",
                    "name": "",
                    "type": "uint256"
                }
            ],
            "payable": false,
            "stateMutability": "view",
            "type": "function"
        },
        {
            "constant": true,
            "inputs": [],
            "name": "getUserRequests",
            "outputs": [
                {
                    "internalType": "uint256[]",
                    "name": "",
                    "type": "uint256[]"
                }
            ],
            "payable": false,
            "stateMutability": "view",
            "type": "function"
        },
        {
            "constant": false,
            "inputs": [],
            "name": "withdrawBalance",
            "outputs": [],
            "payable": false,
            "stateMutability": "nonpayable",
            "type": "function"
        },
        {
            "constant": true,
            "inputs": [
                {
                    "internalType": "uint256",
                    "name": "tokenId",
                    "type": "uint256"
                }
            ],
            "name": "ownerOf",
            "outputs": [
                {
                    "internalType": "address",
                    "name": "",
                    "type": "address"
                }
            ],
            "payable": false,
            "stateMutability": "view",
            "type": "function"
        },
        {
            "constant": false,
            "inputs": [
                {
                    "internalType": "address",
                    "name": "addr",
                    "type": "address"
                }
            ],
            "name": "addOwner",
            "outputs": [
                {
                    "internalType": "bool",
                    "name": "success",
                    "type": "bool"
                }
            ],
            "payable": false,
            "stateMutability": "nonpayable",
            "type": "function"
        },
        {
            "constant": true,
            "inputs": [
                {
                    "internalType": "address",
                    "name": "owner",
                    "type": "address"
                }
            ],
            "name": "balanceOf",
            "outputs": [
                {
                    "internalType": "uint256",
                    "name": "",
                    "type": "uint256"
                }
            ],
            "payable": false,
            "stateMutability": "view",
            "type": "function"
        },
        {
            "constant": false,
            "inputs": [
                {
                    "internalType": "address",
                    "name": "target",
                    "type": "address"
                },
                {
                    "internalType": "uint256",
                    "name": "mintedAmount",
                    "type": "uint256"
                }
            ],
            "name": "mintToken",
            "outputs": [],
            "payable": false,
            "stateMutability": "nonpayable",
            "type": "function"
        },
        {
            "constant": false,
            "inputs": [
                {
                    "internalType": "uint256",
                    "name": "_requestID",
                    "type": "uint256"
                }
            ],
            "name": "denyRequest",
            "outputs": [
                {
                    "internalType": "enum RequestCity.State",
                    "name": "",
                    "type": "uint8"
                }
            ],
            "payable": false,
            "stateMutability": "nonpayable",
            "type": "function"
        },
        {
            "constant": false,
            "inputs": [
                {
                    "internalType": "uint256",
                    "name": "_value",
                    "type": "uint256"
                }
            ],
            "name": "burnToken",
            "outputs": [
                {
                    "internalType": "bool",
                    "name": "",
                    "type": "bool"
                }
            ],
            "payable": false,
            "stateMutability": "nonpayable",
            "type": "function"
        },
        {
            "constant": true,
            "inputs": [
                {
                    "internalType": "uint256",
                    "name": "",
                    "type": "uint256"
                }
            ],
            "name": "requests",
            "outputs": [
                {
                    "internalType": "uint256",
                    "name": "id",
                    "type": "uint256"
                },
                {
                    "internalType": "uint256",
                    "name": "dateOfIssue",
                    "type": "uint256"
                },
                {
                    "internalType": "string",
                    "name": "ipfsHash",
                    "type": "string"
                },
                {
                    "internalType": "address payable",
                    "name": "applicant",
                    "type": "address"
                },
                {
                    "internalType": "string",
                    "name": "city",
                    "type": "string"
                },
                {
                    "internalType": "string",
                    "name": "requestAddress",
                    "type": "string"
                },
                {
                    "internalType": "string",
                    "name": "description",
                    "type": "string"
                },
                {
                    "internalType": "enum RequestCity.Priority",
                    "name": "priority",
                    "type": "uint8"
                },
                {
                    "internalType": "enum RequestCity.State",
                    "name": "state",
                    "type": "uint8"
                }
            ],
            "payable": false,
            "stateMutability": "view",
            "type": "function"
        },
        {
            "constant": false,
            "inputs": [
                {
                    "internalType": "string",
                    "name": "_ipfsHash",
                    "type": "string"
                },
                {
                    "internalType": "string",
                    "name": "_city",
                    "type": "string"
                },
                {
                    "internalType": "string",
                    "name": "_requestAddress",
                    "type": "string"
                },
                {
                    "internalType": "string",
                    "name": "_description",
                    "type": "string"
                },
                {
                    "internalType": "enum RequestCity.Priority",
                    "name": "_priority",
                    "type": "uint8"
                }
            ],
            "name": "createRequest",
            "outputs": [],
            "payable": true,
            "stateMutability": "payable",
            "type": "function"
        },
        {
            "constant": true,
            "inputs": [
                {
                    "internalType": "address",
                    "name": "_owner",
                    "type": "address"
                },
                {
                    "internalType": "address",
                    "name": "_spender",
                    "type": "address"
                }
            ],
            "name": "allowanceAddressToken",
            "outputs": [
                {
                    "internalType": "uint256",
                    "name": "",
                    "type": "uint256"
                }
            ],
            "payable": false,
            "stateMutability": "view",
            "type": "function"
        },
        {
            "constant": true,
            "inputs": [],
            "name": "contractBalance",
            "outputs": [
                {
                    "internalType": "uint256",
                    "name": "",
                    "type": "uint256"
                }
            ],
            "payable": false,
            "stateMutability": "view",
            "type": "function"
        },
        {
            "constant": true,
            "inputs": [
                {
                    "internalType": "address",
                    "name": "",
                    "type": "address"
                }
            ],
            "name": "ownerslist",
            "outputs": [
                {
                    "internalType": "bool",
                    "name": "",
                    "type": "bool"
                }
            ],
            "payable": false,
            "stateMutability": "view",
            "type": "function"
        },
        {
            "constant": true,
            "inputs": [],
            "name": "symbol",
            "outputs": [
                {
                    "internalType": "string",
                    "name": "",
                    "type": "string"
                }
            ],
            "payable": false,
            "stateMutability": "view",
            "type": "function"
        },
        {
            "constant": true,
            "inputs": [],
            "name": "getNumberOfRequests",
            "outputs": [
                {
                    "internalType": "uint256",
                    "name": "",
                    "type": "uint256"
                }
            ],
            "payable": false,
            "stateMutability": "view",
            "type": "function"
        },
        {
            "constant": false,
            "inputs": [
                {
                    "internalType": "address",
                    "name": "to",
                    "type": "address"
                },
                {
                    "internalType": "bool",
                    "name": "approved",
                    "type": "bool"
                }
            ],
            "name": "setApprovalForAll",
            "outputs": [],
            "payable": false,
            "stateMutability": "nonpayable",
            "type": "function"
        },
        {
            "constant": true,
            "inputs": [],
            "name": "tokenID",
            "outputs": [
                {
                    "internalType": "uint256",
                    "name": "_value",
                    "type": "uint256"
                }
            ],
            "payable": false,
            "stateMutability": "view",
            "type": "function"
        },
        {
            "constant": true,
            "inputs": [
                {
                    "internalType": "address",
                    "name": "",
                    "type": "address"
                },
                {
                    "internalType": "address",
                    "name": "",
                    "type": "address"
                }
            ],
            "name": "allowanceToken",
            "outputs": [
                {
                    "internalType": "uint256",
                    "name": "",
                    "type": "uint256"
                }
            ],
            "payable": false,
            "stateMutability": "view",
            "type": "function"
        },
        {
            "constant": false,
            "inputs": [
                {
                    "internalType": "address",
                    "name": "_from",
                    "type": "address"
                },
                {
                    "internalType": "address",
                    "name": "_to",
                    "type": "address"
                },
                {
                    "internalType": "uint256",
                    "name": "_value",
                    "type": "uint256"
                }
            ],
            "name": "transferFromToken",
            "outputs": [
                {
                    "internalType": "bool",
                    "name": "",
                    "type": "bool"
                }
            ],
            "payable": false,
            "stateMutability": "nonpayable",
            "type": "function"
        },
        {
            "constant": false,
            "inputs": [
                {
                    "internalType": "address",
                    "name": "from",
                    "type": "address"
                },
                {
                    "internalType": "address",
                    "name": "to",
                    "type": "address"
                },
                {
                    "internalType": "uint256",
                    "name": "tokenId",
                    "type": "uint256"
                },
                {
                    "internalType": "bytes",
                    "name": "_data",
                    "type": "bytes"
                }
            ],
            "name": "safeTransferFrom",
            "outputs": [],
            "payable": false,
            "stateMutability": "nonpayable",
            "type": "function"
        },
        {
            "constant": true,
            "inputs": [
                {
                    "internalType": "address",
                    "name": "",
                    "type": "address"
                }
            ],
            "name": "balanceOfToken",
            "outputs": [
                {
                    "internalType": "uint256",
                    "name": "",
                    "type": "uint256"
                }
            ],
            "payable": false,
            "stateMutability": "view",
            "type": "function"
        },
        {
            "constant": false,
            "inputs": [
                {
                    "internalType": "uint256",
                    "name": "_requestID",
                    "type": "uint256"
                }
            ],
            "name": "solveRequest",
            "outputs": [
                {
                    "internalType": "enum RequestCity.State",
                    "name": "",
                    "type": "uint8"
                }
            ],
            "payable": false,
            "stateMutability": "nonpayable",
            "type": "function"
        },
        {
            "constant": true,
            "inputs": [
                {
                    "internalType": "uint256",
                    "name": "_requestID",
                    "type": "uint256"
                }
            ],
            "name": "getRequest",
            "outputs": [
                {
                    "internalType": "uint256",
                    "name": "_id",
                    "type": "uint256"
                },
                {
                    "internalType": "uint256",
                    "name": "_dateOfIssue",
                    "type": "uint256"
                },
                {
                    "internalType": "string",
                    "name": "_ipfsHash",
                    "type": "string"
                },
                {
                    "internalType": "address",
                    "name": "_applicant",
                    "type": "address"
                },
                {
                    "internalType": "string",
                    "name": "_city",
                    "type": "string"
                },
                {
                    "internalType": "string",
                    "name": "_requestAddress",
                    "type": "string"
                },
                {
                    "internalType": "string",
                    "name": "_description",
                    "type": "string"
                },
                {
                    "internalType": "enum RequestCity.Priority",
                    "name": "",
                    "type": "uint8"
                },
                {
                    "internalType": "enum RequestCity.State",
                    "name": "",
                    "type": "uint8"
                }
            ],
            "payable": false,
            "stateMutability": "view",
            "type": "function"
        },
        {
            "constant": true,
            "inputs": [
                {
                    "internalType": "address",
                    "name": "owner",
                    "type": "address"
                },
                {
                    "internalType": "address",
                    "name": "operator",
                    "type": "address"
                }
            ],
            "name": "isApprovedForAll",
            "outputs": [
                {
                    "internalType": "bool",
                    "name": "",
                    "type": "bool"
                }
            ],
            "payable": false,
            "stateMutability": "view",
            "type": "function"
        },
        {
            "payable": true,
            "stateMutability": "payable",
            "type": "fallback"
        },
        {
            "anonymous": false,
            "inputs": [
                {
                    "indexed": false,
                    "internalType": "uint256",
                    "name": "requestID",
                    "type": "uint256"
                },
                {
                    "indexed": false,
                    "internalType": "address",
                    "name": "applicant",
                    "type": "address"
                },
                {
                    "indexed": false,
                    "internalType": "string",
                    "name": "ipfsHash",
                    "type": "string"
                },
                {
                    "indexed": false,
                    "internalType": "string",
                    "name": "city",
                    "type": "string"
                },
                {
                    "indexed": false,
                    "internalType": "string",
                    "name": "requestAddress",
                    "type": "string"
                }
            ],
            "name": "NewRequest",
            "type": "event"
        },
        {
            "anonymous": false,
            "inputs": [
                {
                    "indexed": false,
                    "internalType": "address",
                    "name": "sender",
                    "type": "address"
                },
                {
                    "indexed": false,
                    "internalType": "uint256",
                    "name": "value",
                    "type": "uint256"
                }
            ],
            "name": "AccidentalDeposit",
            "type": "event"
        },
        {
            "anonymous": false,
            "inputs": [
                {
                    "indexed": false,
                    "internalType": "address",
                    "name": "owner",
                    "type": "address"
                },
                {
                    "indexed": false,
                    "internalType": "uint256",
                    "name": "value",
                    "type": "uint256"
                }
            ],
            "name": "WithdrawEvent",
            "type": "event"
        },
        {
            "anonymous": false,
            "inputs": [
                {
                    "indexed": false,
                    "internalType": "uint256",
                    "name": "requestID",
                    "type": "uint256"
                },
                {
                    "indexed": false,
                    "internalType": "enum RequestCity.State",
                    "name": "state",
                    "type": "uint8"
                }
            ],
            "name": "StateUpdate",
            "type": "event"
        },
        {
            "anonymous": false,
            "inputs": [
                {
                    "indexed": true,
                    "internalType": "address",
                    "name": "from",
                    "type": "address"
                },
                {
                    "indexed": true,
                    "internalType": "address",
                    "name": "to",
                    "type": "address"
                },
                {
                    "indexed": false,
                    "internalType": "uint256",
                    "name": "value",
                    "type": "uint256"
                }
            ],
            "name": "Transfer",
            "type": "event"
        },
        {
            "anonymous": false,
            "inputs": [
                {
                    "indexed": true,
                    "internalType": "address",
                    "name": "_owner",
                    "type": "address"
                },
                {
                    "indexed": true,
                    "internalType": "address",
                    "name": "_spender",
                    "type": "address"
                },
                {
                    "indexed": false,
                    "internalType": "uint256",
                    "name": "_value",
                    "type": "uint256"
                }
            ],
            "name": "Approval",
            "type": "event"
        },
        {
            "anonymous": false,
            "inputs": [
                {
                    "indexed": true,
                    "internalType": "address",
                    "name": "from",
                    "type": "address"
                },
                {
                    "indexed": false,
                    "internalType": "uint256",
                    "name": "value",
                    "type": "uint256"
                }
            ],
            "name": "Burn",
            "type": "event"
        },
        {
            "anonymous": false,
            "inputs": [
                {
                    "indexed": false,
                    "internalType": "address",
                    "name": "addr",
                    "type": "address"
                }
            ],
            "name": "OwnerslistAddressAdded",
            "type": "event"
        },
        {
            "anonymous": false,
            "inputs": [
                {
                    "indexed": false,
                    "internalType": "address",
                    "name": "addr",
                    "type": "address"
                }
            ],
            "name": "OwnerslistAddressRemoved",
            "type": "event"
        },
        {
            "anonymous": false,
            "inputs": [
                {
                    "indexed": true,
                    "internalType": "address",
                    "name": "owner",
                    "type": "address"
                },
                {
                    "indexed": true,
                    "internalType": "address",
                    "name": "operator",
                    "type": "address"
                },
                {
                    "indexed": false,
                    "internalType": "bool",
                    "name": "approved",
                    "type": "bool"
                }
            ],
            "name": "ApprovalForAll",
            "type": "event"
        }
    ],
    "bytecode": "60c0604052600960808190527f43697479546f6b656e000000000000000000000000000000000000000000000060a090815262000040916006919062000201565b506040805180820190915260038082527f43595400000000000000000000000000000000000000000000000000000000006020909201918252620000879160079162000201565b50662386f26fc10000600b55600a600d556001620000ce7f01ffc9a7000000000000000000000000000000000000000000000000000000006001600160e01b036200013216565b620001027f80ac58cd000000000000000000000000000000000000000000000000000000006001600160e01b036200013216565b336000908152600560209081526040808320805460ff1916600117905560088490556009909152902055620002a6565b7fffffffff000000000000000000000000000000000000000000000000000000008082161415620001c457604080517f08c379a000000000000000000000000000000000000000000000000000000000815260206004820152601c60248201527f4552433136353a20696e76616c696420696e7465726661636520696400000000604482015290519081900360640190fd5b7fffffffff00000000000000000000000000000000000000000000000000000000166000908152602081905260409020805460ff19166001179055565b828054600181600116156101000203166002900490600052602060002090601f016020900481019282601f106200024457805160ff191683800117855562000274565b8280016001018555821562000274579182015b828111156200027457825182559160200191906001019062000257565b506200028292915062000286565b5090565b620002a391905b808211156200028257600081556001016200028d565b90565b61333980620002b66000396000f3fe6080604052600436106102305760003560e01c806370a082311161012e57806397388497116100ab578063b88d4fde1161006f578063b88d4fde14610d7e578063b99152d014610e4f578063c1110cf914610e82578063c58343ef14610eac578063e985e9c514610ed657610230565b80639738849714610c9b578063a22cb46514610cb0578063a5c42ef114610ceb578063ad6822ae14610d00578063b4765db714610d3b57610230565b806389e67ad4116100f257806389e67ad4146109cb57806389eaf2d714610c035780638b7afe2e14610c3e578063916782cf14610c5357806395d89b4114610c8657610230565b806370a08231146106c257806379c65068146106f557806379f96c571461072e5780637b47ec1a1461077c57806381d12c58146107a657610230565b806323b872dd116101bc57806355fe42561161018057806355fe4256146105b25780635ad7c05c146105eb5780635fd8c710146106505780636352211e146106655780637065cb481461068f57610230565b806323b872dd146104a55780633fcf7ca1146104e857806342842e0e1461051257806349f06141146105555780634fe01d381461058857610230565b8063095ea7b311610203578063095ea7b3146103c45780631072cbea146103fd5780631604f9ea14610436578063173825d91461045d57806318160ddd1461049057610230565b806301ffc9a714610273578063022fc88b146102bb57806306fdde03146102f4578063081812fc1461037e575b3415610271576040805133815234602082015281517fd74ca19e3ad79f107cd3fb64be535aace3422e872c572909645452a6a9158062929181900390910190a15b005b34801561027f57600080fd5b506102a76004803603602081101561029657600080fd5b50356001600160e01b031916610f11565b604080519115158252519081900360200190f35b3480156102c757600080fd5b506102a7600480360360408110156102de57600080fd5b506001600160a01b038135169060200135610f34565b34801561030057600080fd5b50610309610f9a565b6040805160208082528351818301528351919283929083019185019080838360005b8381101561034357818101518382015260200161032b565b50505050905090810190601f1680156103705780820380516001836020036101000a031916815260200191505b509250505060405180910390f35b34801561038a57600080fd5b506103a8600480360360208110156103a157600080fd5b5035611028565b604080516001600160a01b039092168252519081900360200190f35b3480156103d057600080fd5b50610271600480360360408110156103e757600080fd5b506001600160a01b03813516906020013561108a565b34801561040957600080fd5b506102a76004803603604081101561042057600080fd5b506001600160a01b0381351690602001356111b2565b34801561044257600080fd5b5061044b6111c8565b60408051918252519081900360200190f35b34801561046957600080fd5b506102a76004803603602081101561048057600080fd5b50356001600160a01b03166111ce565b34801561049c57600080fd5b5061044b61129e565b3480156104b157600080fd5b50610271600480360360608110156104c857600080fd5b506001600160a01b038135811691602081013590911690604001356112a4565b3480156104f457600080fd5b5061044b6004803603602081101561050b57600080fd5b5035611300565b34801561051e57600080fd5b506102716004803603606081101561053557600080fd5b506001600160a01b03813581169160208101359091169060400135611365565b34801561056157600080fd5b5061044b6004803603602081101561057857600080fd5b50356001600160a01b0316611380565b34801561059457600080fd5b5061044b600480360360208110156105ab57600080fd5b503561139b565b3480156105be57600080fd5b5061044b600480360360408110156105d557600080fd5b506001600160a01b0381351690602001356113f6565b3480156105f757600080fd5b50610600611424565b60408051602080825283518183015283519192839290830191858101910280838360005b8381101561063c578181015183820152602001610624565b505050509050019250505060405180910390f35b34801561065c57600080fd5b506102716114cd565b34801561067157600080fd5b506103a86004803603602081101561068857600080fd5b5035611596565b34801561069b57600080fd5b506102a7600480360360208110156106b257600080fd5b50356001600160a01b03166115f0565b3480156106ce57600080fd5b5061044b600480360360208110156106e557600080fd5b50356001600160a01b03166116c2565b34801561070157600080fd5b506102716004803603604081101561071857600080fd5b506001600160a01b03813516906020013561172a565b34801561073a57600080fd5b506107586004803603602081101561075157600080fd5b50356117ca565b6040518082600281111561076857fe5b60ff16815260200191505060405180910390f35b34801561078857600080fd5b506102a76004803603602081101561079f57600080fd5b5035611914565b3480156107b257600080fd5b506107d0600480360360208110156107c957600080fd5b5035611a10565b604051808a815260200189815260200180602001886001600160a01b03166001600160a01b0316815260200180602001806020018060200187600281111561081457fe5b60ff16815260200186600281111561082857fe5b60ff16815260200185810385528c818151815260200191508051906020019080838360005b8381101561086557818101518382015260200161084d565b50505050905090810190601f1680156108925780820380516001836020036101000a031916815260200191505b5085810384528a5181528a516020918201918c019080838360005b838110156108c55781810151838201526020016108ad565b50505050905090810190601f1680156108f25780820380516001836020036101000a031916815260200191505b5085810383528951815289516020918201918b019080838360005b8381101561092557818101518382015260200161090d565b50505050905090810190601f1680156109525780820380516001836020036101000a031916815260200191505b5085810382528851815288516020918201918a019080838360005b8381101561098557818101518382015260200161096d565b50505050905090810190601f1680156109b25780820380516001836020036101000a031916815260200191505b509d505050505050505050505050505060405180910390f35b610271600480360360a08110156109e157600080fd5b810190602081018135600160201b8111156109fb57600080fd5b820183602082011115610a0d57600080fd5b803590602001918460018302840111600160201b83111715610a2e57600080fd5b91908080601f0160208091040260200160405190810160405280939291908181526020018383808284376000920191909152509295949360208101935035915050600160201b811115610a8057600080fd5b820183602082011115610a9257600080fd5b803590602001918460018302840111600160201b83111715610ab357600080fd5b91908080601f0160208091040260200160405190810160405280939291908181526020018383808284376000920191909152509295949360208101935035915050600160201b811115610b0557600080fd5b820183602082011115610b1757600080fd5b803590602001918460018302840111600160201b83111715610b3857600080fd5b91908080601f0160208091040260200160405190810160405280939291908181526020018383808284376000920191909152509295949360208101935035915050600160201b811115610b8a57600080fd5b820183602082011115610b9c57600080fd5b803590602001918460018302840111600160201b83111715610bbd57600080fd5b91908080601f0160208091040260200160405190810160405280939291908181526020018383808284376000920191909152509295505050903560ff169150611c8c9050565b348015610c0f57600080fd5b5061044b60048036036040811015610c2657600080fd5b506001600160a01b0381358116916020013516612006565b348015610c4a57600080fd5b5061044b612031565b348015610c5f57600080fd5b506102a760048036036020811015610c7657600080fd5b50356001600160a01b0316612089565b348015610c9257600080fd5b5061030961209e565b348015610ca757600080fd5b5061044b6120f9565b348015610cbc57600080fd5b5061027160048036036040811015610cd357600080fd5b506001600160a01b0381351690602001351515612109565b348015610cf757600080fd5b5061044b61220e565b348015610d0c57600080fd5b5061044b60048036036040811015610d2357600080fd5b506001600160a01b0381358116916020013516612214565b348015610d4757600080fd5b506102a760048036036060811015610d5e57600080fd5b506001600160a01b03813581169160208101359091169060400135612231565b348015610d8a57600080fd5b5061027160048036036080811015610da157600080fd5b6001600160a01b03823581169260208101359091169160408201359190810190608081016060820135600160201b811115610ddb57600080fd5b820183602082011115610ded57600080fd5b803590602001918460018302840111600160201b83111715610e0e57600080fd5b91908080601f0160208091040260200160405190810160405280939291908181526020018383808284376000920191909152509295506122de945050505050565b348015610e5b57600080fd5b5061044b60048036036020811015610e7257600080fd5b50356001600160a01b031661233c565b348015610e8e57600080fd5b5061075860048036036020811015610ea557600080fd5b503561234e565b348015610eb857600080fd5b506107d060048036036020811015610ecf57600080fd5b5035612486565b348015610ee257600080fd5b506102a760048036036040811015610ef957600080fd5b506001600160a01b0381358116916020013516612797565b6001600160e01b0319811660009081526020819052604090205460ff165b919050565b336000818152600a602090815260408083206001600160a01b038716808552908352818420869055815186815291519394909390927f8c5be1e5ebec7d5bd14f71427d1e84f3dd0314c0f7b2291e5b200ac8c7c3b925928290030190a350600192915050565b6006805460408051602060026001851615610100026000190190941693909304601f810184900484028201840190925281815292918301828280156110205780601f10610ff557610100808354040283529160200191611020565b820191906000526020600020905b81548152906001019060200180831161100357829003601f168201915b505050505081565b6000611033826127c5565b61106e5760405162461bcd60e51b815260040180806020018281038252602c81526020018061321b602c913960400191505060405180910390fd5b506000908152600260205260409020546001600160a01b031690565b600061109582611596565b9050806001600160a01b0316836001600160a01b031614156110e85760405162461bcd60e51b81526004018080602001828103825260218152602001806132906021913960400191505060405180910390fd5b806001600160a01b03166110fa6127e2565b6001600160a01b0316148061111b575061111b816111166127e2565b612797565b6111565760405162461bcd60e51b815260040180806020018281038252603881526020018061316d6038913960400191505060405180910390fd5b60008281526002602052604080822080546001600160a01b0319166001600160a01b0387811691821790925591518593918516917f8c5be1e5ebec7d5bd14f71427d1e84f3dd0314c0f7b2291e5b200ac8c7c3b92591a4505050565b60006111bf3384846127e6565b50600192915050565b600b5481565b3360009081526005602052604081205460ff16611220576040805162461bcd60e51b815260206004820152601460248201526000805160206130cf833981519152604482015290519081900360640190fd5b6001600160a01b03821660009081526005602052604090205460ff1615610f2f576001600160a01b038216600081815260056020908152604091829020805460ff19169055815192835290517f573f8b697fb02eea64e5bb95dc7d0d06498fbc3d35ec94b4239327afee0077719281900390910190a1506001919050565b60085481565b6112b56112af6127e2565b8261296d565b6112f05760405162461bcd60e51b81526004018080602001828103825260318152602001806132b16031913960400191505060405180910390fd5b6112fb838383612a11565b505050565b3360009081526005602052604081205460ff16611352576040805162461bcd60e51b815260206004820152601460248201526000805160206130cf833981519152604482015290519081900360640190fd5b50670de0b6b3a764000002600b81905590565b6112fb838383604051806020016040528060008152506122de565b6001600160a01b031660009081526009602052604090205490565b3360009081526005602052604081205460ff166113ed576040805162461bcd60e51b815260206004820152601460248201526000805160206130cf833981519152604482015290519081900360640190fd5b50600d81905590565b600f602052816000526040600020818154811061140f57fe5b90600052602060002001600091509150505481565b60606000611431336116c2565b1161146d5760405162461bcd60e51b81526004018080602001828103825260238152602001806131f86023913960400191505060405180910390fd5b336000908152600f6020908152604091829020805483518184028101840190945280845290918301828280156114c257602002820191906000526020600020905b8154815260200190600101908083116114ae575b505050505090505b90565b3360009081526005602052604090205460ff1661151f576040805162461bcd60e51b815260206004820152601460248201526000805160206130cf833981519152604482015290519081900360640190fd5b60405133908190303180156108fc02916000818181858888f1935050505015801561154e573d6000803e3d6000fd5b50604080516001600160a01b03831681523031602082015281517f5dba113b49cfa7c90315e8e604e6b506f7abcb909b01dcb19ec39005086e68fc929181900390910190a150565b6000818152600160205260408120546001600160a01b0316806115ea5760405162461bcd60e51b81526004018080602001828103825260298152602001806131cf6029913960400191505060405180910390fd5b92915050565b3360009081526005602052604081205460ff16611642576040805162461bcd60e51b815260206004820152601460248201526000805160206130cf833981519152604482015290519081900360640190fd5b6001600160a01b03821660009081526005602052604090205460ff16610f2f576001600160a01b038216600081815260056020908152604091829020805460ff19166001179055815192835290517f83816cf3e38e624df946c11b7c2432c2f9e3d504aef4bea7a67a4a95a7e977019281900390910190a1506001919050565b60006001600160a01b0382166117095760405162461bcd60e51b815260040180806020018281038252602a8152602001806131a5602a913960400191505060405180910390fd5b6001600160a01b03821660009081526003602052604090206115ea90612b43565b3360009081526005602052604090205460ff1661177c576040805162461bcd60e51b815260206004820152601460248201526000805160206130cf833981519152604482015290519081900360640190fd5b6001600160a01b038216600081815260096020908152604091829020805485019055600880548501905581518481529151309260008051602061327083398151915292908290030190a35050565b3360009081526005602052604081205460ff1661181c576040805162461bcd60e51b815260206004820152601460248201526000805160206130cf833981519152604482015290519081900360640190fd5b600080838152600e6020526040902060070154610100900460ff16600281111561184257fe5b1461187e5760405162461bcd60e51b81526004018080602001828103825260238152602001806132e26023913960400191505060405180910390fd5b6000828152600e602052604090206007810180546002919061ff0019166101008302179055507faeb9cdb2262d9c6da78aab88f1554ca2a08120de39807de5747118702bfc9631838260070160019054906101000a900460ff16604051808381526020018260028111156118ee57fe5b60ff1681526020019250505060405180910390a160070154610100900460ff1692915050565b3360009081526005602052604081205460ff16611966576040805162461bcd60e51b815260206004820152601460248201526000805160206130cf833981519152604482015290519081900360640190fd5b336000908152600960205260409020548211156119b45760405162461bcd60e51b815260040180806020018281038252602281526020018061307b6022913960400191505060405180910390fd5b3360008181526009602090815260409182902080548690039055600880548690039055815185815291517fcc16f5dbb4873280815c1ee09dbd06736cffcc184412cf7a71a0fdb75d397ca59281900390910190a2506001919050565b600e6020908152600091825260409182902080546001808301546002808501805488519481161561010002600019011691909104601f810187900487028401870190975286835292959094919291830182828015611aaf5780601f10611a8457610100808354040283529160200191611aaf565b820191906000526020600020905b815481529060010190602001808311611a9257829003601f168201915b50505050600383015460048401805460408051602060026101006001861615026000190190941693909304601f810184900484028201840190925281815295966001600160a01b039094169593945090830182828015611b505780601f10611b2557610100808354040283529160200191611b50565b820191906000526020600020905b815481529060010190602001808311611b3357829003601f168201915b5050505060058301805460408051602060026001851615610100026000190190941693909304601f8101849004840282018401909252818152949594935090830182828015611be05780601f10611bb557610100808354040283529160200191611be0565b820191906000526020600020905b815481529060010190602001808311611bc357829003601f168201915b5050505060068301805460408051602060026001851615610100026000190190941693909304601f8101849004840282018401909252818152949594935090830182828015611c705780601f10611c4557610100808354040283529160200191611c70565b820191906000526020600020905b815481529060010190602001808311611c5357829003601f168201915b5050506007909301549192505060ff8082169161010090041689565b600b54341015611ccd5760405162461bcd60e51b815260040180806020018281038252602e81526020018061313f602e913960400191505060405180910390fd5b6000611cd9600c612b43565b9050611ce733600d54612b47565b611cef612f83565b604051806101200160405280838152602001428152602001888152602001336001600160a01b03168152602001878152602001868152602001858152602001846002811115611d3a57fe5b8152602001600090526000838152600e6020908152604091829020835181558184015160018201559183015180519394508493611d7d9260028501920190612fe2565b5060608201516003820180546001600160a01b0319166001600160a01b0390921691909117905560808201518051611dbf916004840191602090910190612fe2565b5060a08201518051611ddb916005840191602090910190612fe2565b5060c08201518051611df7916006840191602090910190612fe2565b5060e082015160078201805460ff19166001836002811115611e1557fe5b0217905550610100828101516007830180549192909161ff00191690836002811115611e3d57fe5b021790555050336000908152600f602090815260408220805460018101825581845291909220018490559050611e73600c612c66565b7fd6c92eeb860bf9ce43d6b112fee6f9d8048c39ae1ea79b55ff464900861d1e5483338a8a8a60405180868152602001856001600160a01b03166001600160a01b03168152602001806020018060200180602001848103845287818151815260200191508051906020019080838360005b83811015611efc578181015183820152602001611ee4565b50505050905090810190601f168015611f295780820380516001836020036101000a031916815260200191505b50848103835286518152865160209182019188019080838360005b83811015611f5c578181015183820152602001611f44565b50505050905090810190601f168015611f895780820380516001836020036101000a031916815260200191505b50848103825285518152855160209182019187019080838360005b83811015611fbc578181015183820152602001611fa4565b50505050905090810190601f168015611fe95780820380516001836020036101000a031916815260200191505b509850505050505050505060405180910390a15050505050505050565b6001600160a01b039182166000908152600a6020908152604080832093909416825291909152205490565b3360009081526005602052604081205460ff16612083576040805162461bcd60e51b815260206004820152601460248201526000805160206130cf833981519152604482015290519081900360640190fd5b50303190565b60056020526000908152604090205460ff1681565b6007805460408051602060026001851615610100026000190190941693909304601f810184900484028201840190925281815292918301828280156110205780601f10610ff557610100808354040283529160200191611020565b6000612104336116c2565b905090565b6121116127e2565b6001600160a01b0316826001600160a01b03161415612177576040805162461bcd60e51b815260206004820152601960248201527f4552433732313a20617070726f766520746f2063616c6c657200000000000000604482015290519081900360640190fd5b80600460006121846127e2565b6001600160a01b03908116825260208083019390935260409182016000908120918716808252919093529120805460ff1916921515929092179091556121c86127e2565b60408051841515815290516001600160a01b0392909216917f17307eab39ab6107e8899845ad3d59bd9653f200f220920489ca2b5937696c319181900360200190a35050565b600c5481565b600a60209081526000928352604080842090915290825290205481565b6001600160a01b0383166000908152600a6020908152604080832033845290915281205482111561229f576040805162461bcd60e51b8152602060048201526013602482015272165bdd48185c99481b9bdd08185b1b1bddd959606a1b604482015290519081900360640190fd5b6001600160a01b0384166000908152600a602090815260408083203384529091529020805483900390556122d48484846127e6565b5060019392505050565b6122ef6122e96127e2565b8361296d565b61232a5760405162461bcd60e51b81526004018080602001828103825260318152602001806132b16031913960400191505060405180910390fd5b61233684848484612c6f565b50505050565b60096020526000908152604090205481565b3360009081526005602052604081205460ff166123a0576040805162461bcd60e51b815260206004820152601460248201526000805160206130cf833981519152604482015290519081900360640190fd5b600080838152600e6020526040902060070154610100900460ff1660028111156123c657fe5b146124025760405162461bcd60e51b81526004018080602001828103825260238152602001806132e26023913960400191505060405180910390fd5b6000828152600e6020526040902060078101805461ff0019166101001790556003810154600d5461243c916001600160a01b03169061172a565b7faeb9cdb2262d9c6da78aab88f1554ca2a08120de39807de5747118702bfc9631838260070160019054906101000a900460ff16604051808381526020018260028111156118ee57fe5b60008060606000606080606060008061249e8a6127c5565b6124ef576040805162461bcd60e51b815260206004820152601e60248201527f54686973207265717565737420494420646f65206e6f74206578697374730000604482015290519081900360640190fd5b60008a8152600e6020908152604091829020805460018083015460038401546007850154600280870180548a516101009782161588026000190190911692909204601f81018a90048a0283018a01909a52898252969895979396956001600160a01b039093169460048a019460058b019460068c019460ff80821695949091041692918991908301828280156125c65780601f1061259b576101008083540402835291602001916125c6565b820191906000526020600020905b8154815290600101906020018083116125a957829003601f168201915b5050885460408051602060026001851615610100026000190190941693909304601f8101849004840282018401909252818152959c508a9450925084019050828280156126545780601f1061262957610100808354040283529160200191612654565b820191906000526020600020905b81548152906001019060200180831161263757829003601f168201915b5050875460408051602060026001851615610100026000190190941693909304601f8101849004840282018401909252818152959a50899450925084019050828280156126e25780601f106126b7576101008083540402835291602001916126e2565b820191906000526020600020905b8154815290600101906020018083116126c557829003601f168201915b5050865460408051602060026001851615610100026000190190941693909304601f8101849004840282018401909252818152959950889450925084019050828280156127705780601f1061274557610100808354040283529160200191612770565b820191906000526020600020905b81548152906001019060200180831161275357829003601f168201915b50505050509250995099509950995099509950995099509950509193959799909294969850565b6001600160a01b03918216600090815260046020908152604080832093909416825291909152205460ff1690565b6000908152600160205260409020546001600160a01b0316151590565b3390565b6001600160a01b038216612841576040805162461bcd60e51b815260206004820152601f60248201527f50726576656e74207472616e7366657220746f20307830206164647265737300604482015290519081900360640190fd5b6001600160a01b0383166000908152600960205260409020548111156128ae576040805162461bcd60e51b815260206004820152601d60248201527f73656e64657220686173206e6f7420656e6f7567682062616c616e6365000000604482015290519081900360640190fd5b6001600160a01b0382166000908152600960205260409020548181011015612913576040805162461bcd60e51b8152602060048201526013602482015272436865636b20666f72206f766572666c6f777360681b604482015290519081900360640190fd5b6001600160a01b0380841660008181526009602090815260408083208054879003905593861680835291849020805486019055835185815293519193600080516020613270833981519152929081900390910190a3505050565b6000612978826127c5565b6129b35760405162461bcd60e51b815260040180806020018281038252602c815260200180613113602c913960400191505060405180910390fd5b60006129be83611596565b9050806001600160a01b0316846001600160a01b031614806129f95750836001600160a01b03166129ee84611028565b6001600160a01b0316145b80612a095750612a098185612797565b949350505050565b826001600160a01b0316612a2482611596565b6001600160a01b031614612a695760405162461bcd60e51b81526004018080602001828103825260298152602001806132476029913960400191505060405180910390fd5b6001600160a01b038216612aae5760405162461bcd60e51b81526004018080602001828103825260248152602001806130ef6024913960400191505060405180910390fd5b612ab781612cc1565b6001600160a01b0383166000908152600360205260409020612ad890612cfe565b6001600160a01b0382166000908152600360205260409020612af990612c66565b60008181526001602052604080822080546001600160a01b0319166001600160a01b03868116918217909255915184939187169160008051602061327083398151915291a4505050565b5490565b6001600160a01b038216612ba2576040805162461bcd60e51b815260206004820181905260248201527f4552433732313a206d696e7420746f20746865207a65726f2061646472657373604482015290519081900360640190fd5b612bab816127c5565b15612bfd576040805162461bcd60e51b815260206004820152601c60248201527f4552433732313a20746f6b656e20616c7265616479206d696e74656400000000604482015290519081900360640190fd5b600081815260016020908152604080832080546001600160a01b0319166001600160a01b038716908117909155835260039091529020612c3c90612c66565b60405181906001600160a01b03841690600090600080516020613270833981519152908290a45050565b80546001019055565b612c7a848484612a11565b612c8684848484612d15565b6123365760405162461bcd60e51b815260040180806020018281038252603281526020018061309d6032913960400191505060405180910390fd5b6000818152600260205260409020546001600160a01b031615612cfb57600081815260026020526040902080546001600160a01b03191690555b50565b8054612d1190600163ffffffff612e6c16565b9055565b6000612d29846001600160a01b0316612eb5565b612d3557506001612a09565b6000846001600160a01b031663150b7a02612d4e6127e2565b8887876040518563ffffffff1660e01b815260040180856001600160a01b03166001600160a01b03168152602001846001600160a01b03166001600160a01b0316815260200183815260200180602001828103825283818151815260200191508051906020019080838360005b83811015612dd3578181015183820152602001612dbb565b50505050905090810190601f168015612e005780820380516001836020036101000a031916815260200191505b5095505050505050602060405180830381600087803b158015612e2257600080fd5b505af1158015612e36573d6000803e3d6000fd5b505050506040513d6020811015612e4c57600080fd5b50516001600160e01b031916630a85bd0160e11b14915050949350505050565b6000612eae83836040518060400160405280601e81526020017f536166654d6174683a207375627472616374696f6e206f766572666c6f770000815250612eec565b9392505050565b6000813f7fc5d2460186f7233c927e7db2dcc703c0e500b653ca82273b7bfad8045d85a4708115801590612a095750141592915050565b60008184841115612f7b5760405162461bcd60e51b81526004018080602001828103825283818151815260200191508051906020019080838360005b83811015612f40578181015183820152602001612f28565b50505050905090810190601f168015612f6d5780820380516001836020036101000a031916815260200191505b509250505060405180910390fd5b505050900390565b60405180610120016040528060008152602001600081526020016060815260200160006001600160a01b0316815260200160608152602001606081526020016060815260200160006002811115612fd657fe5b81526020016000905290565b828054600181600116156101000203166002900490600052602060002090601f016020900481019282601f1061302357805160ff1916838001178555613050565b82800160010185558215613050579182015b82811115613050578251825591602001919060010190613035565b5061305c929150613060565b5090565b6114ca91905b8082111561305c576000815560010161306656fe596f7520646f206e6f7420686176652073756666696369656e742062616c616e63654552433732313a207472616e7366657220746f206e6f6e20455243373231526563656976657220696d706c656d656e746572596f7520617265206e6f7420616e206f776e65720000000000000000000000004552433732313a207472616e7366657220746f20746865207a65726f20616464726573734552433732313a206f70657261746f7220717565727920666f72206e6f6e6578697374656e7420746f6b656e596f75206e65656420746f20706179206d6f726520657468657220746f20637265617465206120726571756573744552433732313a20617070726f76652063616c6c6572206973206e6f74206f776e6572206e6f7220617070726f76656420666f7220616c6c4552433732313a2062616c616e636520717565727920666f7220746865207a65726f20616464726573734552433732313a206f776e657220717565727920666f72206e6f6e6578697374656e7420746f6b656e6d73672e73656e64657220686173206e6f74206d61646520616e7920726571756573744552433732313a20617070726f76656420717565727920666f72206e6f6e6578697374656e7420746f6b656e4552433732313a207472616e73666572206f6620746f6b656e2074686174206973206e6f74206f776eddf252ad1be2c89b69c2b068fc378daa952ba7f163c4a11628f55a4df523b3ef4552433732313a20617070726f76616c20746f2063757272656e74206f776e65724552433732313a207472616e736665722063616c6c6572206973206e6f74206f776e6572206e6f7220617070726f7665645468652072657175657374207374617465206973206e6f742772657175657374656427a265627a7a72315820603c54f459358f1f65410d8f235086541194d7c109818dfd9ee1651e80cdb3fb64736f6c634300050b0032",
    "sourcePath": "/Users/jordiguiraomuns/Documents/GitHub/FinalProject_ConsenSysAcademy2019_DeveloperBootcamp/contracts/RequestCity.sol",
    "compiler": {
        "name": "solc",
        "version": "0.5.11+commit.c082d0b4"
    },
    "functionHashes": {
        "addOwner(address)": "7065cb48",
        "allowanceAddressToken(address,address)": "89eaf2d7",
        "allowanceToken(address,address)": "ad6822ae",
        "applicantRequests(address,uint256)": "55fe4256",
        "approve(address,uint256)": "095ea7b3",
        "approveToken(address,uint256)": "022fc88b",
        "balanceAddressToken(address)": "49f06141",
        "balanceOf(address)": "70a08231",
        "balanceOfToken(address)": "b99152d0",
        "burnToken(uint256)": "7b47ec1a",
        "contractBalance()": "8b7afe2e",
        "createRequest(string,string,string,string,uint8)": "89e67ad4",
        "denyRequest(uint256)": "79f96c57",
        "getApproved(uint256)": "081812fc",
        "getNumberOfRequests()": "97388497",
        "getRequest(uint256)": "c58343ef",
        "getUserRequests()": "5ad7c05c",
        "isApprovedForAll(address,address)": "e985e9c5",
        "mintToken(address,uint256)": "79c65068",
        "name()": "06fdde03",
        "ownerOf(uint256)": "6352211e",
        "ownerslist(address)": "916782cf",
        "removeOwner(address)": "173825d9",
        "requestPrice()": "1604f9ea",
        "requests(uint256)": "81d12c58",
        "safeTransferFrom(address,address,uint256)": "42842e0e",
        "safeTransferFrom(address,address,uint256,bytes)": "b88d4fde",
        "setApprovalForAll(address,bool)": "a22cb465",
        "setRequestPrice(uint256)": "3fcf7ca1",
        "setTokenReward(uint256)": "4fe01d38",
        "solveRequest(uint256)": "c1110cf9",
        "supportsInterface(bytes4)": "01ffc9a7",
        "symbol()": "95d89b41",
        "tokenID()": "a5c42ef1",
        "totalSupply()": "18160ddd",
        "transferFrom(address,address,uint256)": "23b872dd",
        "transferFromToken(address,address,uint256)": "b4765db7",
        "transferToken(address,uint256)": "1072cbea",
        "withdrawBalance()": "5fd8c710"
    },
    "gasEstimates": {
        "creation": {
            "codeDepositCost": "2622600",
            "executionCost": "infinite",
            "totalCost": "infinite"
        },
        "external": {
            "": "1566",
            "addOwner(address)": "infinite",
            "allowanceAddressToken(address,address)": "717",
            "allowanceToken(address,address)": "728",
            "applicantRequests(address,uint256)": "876",
            "approve(address,uint256)": "infinite",
            "approveToken(address,uint256)": "22346",
            "balanceAddressToken(address)": "654",
            "balanceOf(address)": "infinite",
            "balanceOfToken(address)": "590",
            "burnToken(uint256)": "infinite",
            "contractBalance()": "infinite",
            "createRequest(string,string,string,string,uint8)": "infinite",
            "denyRequest(uint256)": "infinite",
            "getApproved(uint256)": "infinite",
            "getNumberOfRequests()": "infinite",
            "getRequest(uint256)": "infinite",
            "getUserRequests()": "infinite",
            "isApprovedForAll(address,address)": "794",
            "mintToken(address,uint256)": "infinite",
            "name()": "infinite",
            "ownerOf(uint256)": "infinite",
            "ownerslist(address)": "647",
            "removeOwner(address)": "infinite",
            "requestPrice()": "488",
            "requests(uint256)": "infinite",
            "safeTransferFrom(address,address,uint256)": "infinite",
            "safeTransferFrom(address,address,uint256,bytes)": "infinite",
            "setApprovalForAll(address,bool)": "infinite",
            "setRequestPrice(uint256)": "infinite",
            "setTokenReward(uint256)": "infinite",
            "solveRequest(uint256)": "infinite",
            "supportsInterface(bytes4)": "619",
            "symbol()": "infinite",
            "tokenID()": "487",
            "totalSupply()": "532",
            "transferFrom(address,address,uint256)": "infinite",
            "transferFromToken(address,address,uint256)": "infinite",
            "transferToken(address,uint256)": "infinite",
            "withdrawBalance()": "infinite"
        }
    }
}