{
  "contractName": "RequestCity",
  "abi": [
    {
      "anonymous": false,
      "inputs": [
        {
          "indexed": false,
          "internalType": "address",
          "name": "sender",
          "type": "address"
        },
        {
          "indexed": false,
          "internalType": "uint256",
          "name": "value",
          "type": "uint256"
        }
      ],
      "name": "AccidentalDeposit",
      "type": "event"
    },
    {
      "anonymous": false,
      "inputs": [
        {
          "indexed": true,
          "internalType": "address",
          "name": "_owner",
          "type": "address"
        },
        {
          "indexed": true,
          "internalType": "address",
          "name": "_spender",
          "type": "address"
        },
        {
          "indexed": false,
          "internalType": "uint256",
          "name": "_value",
          "type": "uint256"
        }
      ],
      "name": "Approval",
      "type": "event"
    },
    {
      "anonymous": false,
      "inputs": [
        {
          "indexed": true,
          "internalType": "address",
          "name": "owner",
          "type": "address"
        },
        {
          "indexed": true,
          "internalType": "address",
          "name": "operator",
          "type": "address"
        },
        {
          "indexed": false,
          "internalType": "bool",
          "name": "approved",
          "type": "bool"
        }
      ],
      "name": "ApprovalForAll",
      "type": "event"
    },
    {
      "anonymous": false,
      "inputs": [
        {
          "indexed": true,
          "internalType": "address",
          "name": "from",
          "type": "address"
        },
        {
          "indexed": false,
          "internalType": "uint256",
          "name": "value",
          "type": "uint256"
        }
      ],
      "name": "Burn",
      "type": "event"
    },
    {
      "anonymous": false,
      "inputs": [
        {
          "indexed": false,
          "internalType": "uint256",
          "name": "requestID",
          "type": "uint256"
        },
        {
          "indexed": false,
          "internalType": "address",
          "name": "applicant",
          "type": "address"
        },
        {
          "indexed": false,
          "internalType": "string",
          "name": "ipfsHash",
          "type": "string"
        },
        {
          "indexed": false,
          "internalType": "string",
          "name": "city",
          "type": "string"
        },
        {
          "indexed": false,
          "internalType": "string",
          "name": "requestAddress",
          "type": "string"
        }
      ],
      "name": "NewRequest",
      "type": "event"
    },
    {
      "anonymous": false,
      "inputs": [
        {
          "indexed": false,
          "internalType": "address",
          "name": "addr",
          "type": "address"
        }
      ],
      "name": "OwnerslistAddressAdded",
      "type": "event"
    },
    {
      "anonymous": false,
      "inputs": [
        {
          "indexed": false,
          "internalType": "address",
          "name": "addr",
          "type": "address"
        }
      ],
      "name": "OwnerslistAddressRemoved",
      "type": "event"
    },
    {
      "anonymous": false,
      "inputs": [
        {
          "indexed": false,
          "internalType": "uint256",
          "name": "requestID",
          "type": "uint256"
        },
        {
          "indexed": false,
          "internalType": "enum RequestCity.State",
          "name": "state",
          "type": "uint8"
        }
      ],
      "name": "StateUpdate",
      "type": "event"
    },
    {
      "anonymous": false,
      "inputs": [
        {
          "indexed": true,
          "internalType": "address",
          "name": "from",
          "type": "address"
        },
        {
          "indexed": true,
          "internalType": "address",
          "name": "to",
          "type": "address"
        },
        {
          "indexed": false,
          "internalType": "uint256",
          "name": "value",
          "type": "uint256"
        }
      ],
      "name": "Transfer",
      "type": "event"
    },
    {
      "anonymous": false,
      "inputs": [
        {
          "indexed": false,
          "internalType": "address",
          "name": "owner",
          "type": "address"
        },
        {
          "indexed": false,
          "internalType": "uint256",
          "name": "value",
          "type": "uint256"
        }
      ],
      "name": "WithdrawEvent",
      "type": "event"
    },
    {
      "payable": true,
      "stateMutability": "payable",
      "type": "fallback"
    },
    {
      "constant": false,
      "inputs": [
        {
          "internalType": "address",
          "name": "addr",
          "type": "address"
        }
      ],
      "name": "addOwner",
      "outputs": [
        {
          "internalType": "bool",
          "name": "success",
          "type": "bool"
        }
      ],
      "payable": false,
      "stateMutability": "nonpayable",
      "type": "function"
    },
    {
      "constant": true,
      "inputs": [
        {
          "internalType": "address",
          "name": "_owner",
          "type": "address"
        },
        {
          "internalType": "address",
          "name": "_spender",
          "type": "address"
        }
      ],
      "name": "allowanceAddressToken",
      "outputs": [
        {
          "internalType": "uint256",
          "name": "",
          "type": "uint256"
        }
      ],
      "payable": false,
      "stateMutability": "view",
      "type": "function"
    },
    {
      "constant": true,
      "inputs": [
        {
          "internalType": "address",
          "name": "",
          "type": "address"
        },
        {
          "internalType": "address",
          "name": "",
          "type": "address"
        }
      ],
      "name": "allowanceToken",
      "outputs": [
        {
          "internalType": "uint256",
          "name": "",
          "type": "uint256"
        }
      ],
      "payable": false,
      "stateMutability": "view",
      "type": "function"
    },
    {
      "constant": true,
      "inputs": [
        {
          "internalType": "address",
          "name": "",
          "type": "address"
        },
        {
          "internalType": "uint256",
          "name": "",
          "type": "uint256"
        }
      ],
      "name": "applicantRequests",
      "outputs": [
        {
          "internalType": "uint256",
          "name": "",
          "type": "uint256"
        }
      ],
      "payable": false,
      "stateMutability": "view",
      "type": "function"
    },
    {
      "constant": false,
      "inputs": [
        {
          "internalType": "address",
          "name": "to",
          "type": "address"
        },
        {
          "internalType": "uint256",
          "name": "tokenId",
          "type": "uint256"
        }
      ],
      "name": "approve",
      "outputs": [],
      "payable": false,
      "stateMutability": "nonpayable",
      "type": "function"
    },
    {
      "constant": false,
      "inputs": [
        {
          "internalType": "address",
          "name": "_spender",
          "type": "address"
        },
        {
          "internalType": "uint256",
          "name": "_value",
          "type": "uint256"
        }
      ],
      "name": "approveToken",
      "outputs": [
        {
          "internalType": "bool",
          "name": "",
          "type": "bool"
        }
      ],
      "payable": false,
      "stateMutability": "nonpayable",
      "type": "function"
    },
    {
      "constant": true,
      "inputs": [
        {
          "internalType": "address",
          "name": "_owner",
          "type": "address"
        }
      ],
      "name": "balanceAddressToken",
      "outputs": [
        {
          "internalType": "uint256",
          "name": "balance",
          "type": "uint256"
        }
      ],
      "payable": false,
      "stateMutability": "view",
      "type": "function"
    },
    {
      "constant": true,
      "inputs": [
        {
          "internalType": "address",
          "name": "owner",
          "type": "address"
        }
      ],
      "name": "balanceOf",
      "outputs": [
        {
          "internalType": "uint256",
          "name": "",
          "type": "uint256"
        }
      ],
      "payable": false,
      "stateMutability": "view",
      "type": "function"
    },
    {
      "constant": true,
      "inputs": [
        {
          "internalType": "address",
          "name": "",
          "type": "address"
        }
      ],
      "name": "balanceOfToken",
      "outputs": [
        {
          "internalType": "uint256",
          "name": "",
          "type": "uint256"
        }
      ],
      "payable": false,
      "stateMutability": "view",
      "type": "function"
    },
    {
      "constant": false,
      "inputs": [
        {
          "internalType": "uint256",
          "name": "_value",
          "type": "uint256"
        }
      ],
      "name": "burnToken",
      "outputs": [
        {
          "internalType": "bool",
          "name": "",
          "type": "bool"
        }
      ],
      "payable": false,
      "stateMutability": "nonpayable",
      "type": "function"
    },
    {
      "constant": true,
      "inputs": [
        {
          "internalType": "uint256",
          "name": "tokenId",
          "type": "uint256"
        }
      ],
      "name": "getApproved",
      "outputs": [
        {
          "internalType": "address",
          "name": "",
          "type": "address"
        }
      ],
      "payable": false,
      "stateMutability": "view",
      "type": "function"
    },
    {
      "constant": true,
      "inputs": [
        {
          "internalType": "address",
          "name": "owner",
          "type": "address"
        },
        {
          "internalType": "address",
          "name": "operator",
          "type": "address"
        }
      ],
      "name": "isApprovedForAll",
      "outputs": [
        {
          "internalType": "bool",
          "name": "",
          "type": "bool"
        }
      ],
      "payable": false,
      "stateMutability": "view",
      "type": "function"
    },
    {
      "constant": false,
      "inputs": [
        {
          "internalType": "address",
          "name": "target",
          "type": "address"
        },
        {
          "internalType": "uint256",
          "name": "mintedAmount",
          "type": "uint256"
        }
      ],
      "name": "mintToken",
      "outputs": [],
      "payable": false,
      "stateMutability": "nonpayable",
      "type": "function"
    },
    {
      "constant": true,
      "inputs": [],
      "name": "name",
      "outputs": [
        {
          "internalType": "string",
          "name": "",
          "type": "string"
        }
      ],
      "payable": false,
      "stateMutability": "view",
      "type": "function"
    },
    {
      "constant": true,
      "inputs": [
        {
          "internalType": "uint256",
          "name": "tokenId",
          "type": "uint256"
        }
      ],
      "name": "ownerOf",
      "outputs": [
        {
          "internalType": "address",
          "name": "",
          "type": "address"
        }
      ],
      "payable": false,
      "stateMutability": "view",
      "type": "function"
    },
    {
      "constant": true,
      "inputs": [
        {
          "internalType": "address",
          "name": "",
          "type": "address"
        }
      ],
      "name": "ownerslist",
      "outputs": [
        {
          "internalType": "bool",
          "name": "",
          "type": "bool"
        }
      ],
      "payable": false,
      "stateMutability": "view",
      "type": "function"
    },
    {
      "constant": false,
      "inputs": [
        {
          "internalType": "address",
          "name": "addr",
          "type": "address"
        }
      ],
      "name": "removeOwner",
      "outputs": [
        {
          "internalType": "bool",
          "name": "success",
          "type": "bool"
        }
      ],
      "payable": false,
      "stateMutability": "nonpayable",
      "type": "function"
    },
    {
      "constant": true,
      "inputs": [],
      "name": "requestPrice",
      "outputs": [
        {
          "internalType": "uint256",
          "name": "",
          "type": "uint256"
        }
      ],
      "payable": false,
      "stateMutability": "view",
      "type": "function"
    },
    {
      "constant": true,
      "inputs": [
        {
          "internalType": "uint256",
          "name": "",
          "type": "uint256"
        }
      ],
      "name": "requests",
      "outputs": [
        {
          "internalType": "uint256",
          "name": "id",
          "type": "uint256"
        },
        {
          "internalType": "uint256",
          "name": "dateOfIssue",
          "type": "uint256"
        },
        {
          "internalType": "string",
          "name": "ipfsHash",
          "type": "string"
        },
        {
          "internalType": "address payable",
          "name": "applicant",
          "type": "address"
        },
        {
          "internalType": "string",
          "name": "city",
          "type": "string"
        },
        {
          "internalType": "string",
          "name": "requestAddress",
          "type": "string"
        },
        {
          "internalType": "string",
          "name": "description",
          "type": "string"
        },
        {
          "internalType": "enum RequestCity.Priority",
          "name": "priority",
          "type": "uint8"
        },
        {
          "internalType": "enum RequestCity.State",
          "name": "state",
          "type": "uint8"
        }
      ],
      "payable": false,
      "stateMutability": "view",
      "type": "function"
    },
    {
      "constant": false,
      "inputs": [
        {
          "internalType": "address",
          "name": "from",
          "type": "address"
        },
        {
          "internalType": "address",
          "name": "to",
          "type": "address"
        },
        {
          "internalType": "uint256",
          "name": "tokenId",
          "type": "uint256"
        }
      ],
      "name": "safeTransferFrom",
      "outputs": [],
      "payable": false,
      "stateMutability": "nonpayable",
      "type": "function"
    },
    {
      "constant": false,
      "inputs": [
        {
          "internalType": "address",
          "name": "from",
          "type": "address"
        },
        {
          "internalType": "address",
          "name": "to",
          "type": "address"
        },
        {
          "internalType": "uint256",
          "name": "tokenId",
          "type": "uint256"
        },
        {
          "internalType": "bytes",
          "name": "_data",
          "type": "bytes"
        }
      ],
      "name": "safeTransferFrom",
      "outputs": [],
      "payable": false,
      "stateMutability": "nonpayable",
      "type": "function"
    },
    {
      "constant": false,
      "inputs": [
        {
          "internalType": "address",
          "name": "to",
          "type": "address"
        },
        {
          "internalType": "bool",
          "name": "approved",
          "type": "bool"
        }
      ],
      "name": "setApprovalForAll",
      "outputs": [],
      "payable": false,
      "stateMutability": "nonpayable",
      "type": "function"
    },
    {
      "constant": true,
      "inputs": [
        {
          "internalType": "bytes4",
          "name": "interfaceId",
          "type": "bytes4"
        }
      ],
      "name": "supportsInterface",
      "outputs": [
        {
          "internalType": "bool",
          "name": "",
          "type": "bool"
        }
      ],
      "payable": false,
      "stateMutability": "view",
      "type": "function"
    },
    {
      "constant": true,
      "inputs": [],
      "name": "symbol",
      "outputs": [
        {
          "internalType": "string",
          "name": "",
          "type": "string"
        }
      ],
      "payable": false,
      "stateMutability": "view",
      "type": "function"
    },
    {
      "constant": true,
      "inputs": [],
      "name": "totalSupply",
      "outputs": [
        {
          "internalType": "uint256",
          "name": "",
          "type": "uint256"
        }
      ],
      "payable": false,
      "stateMutability": "view",
      "type": "function"
    },
    {
      "constant": false,
      "inputs": [
        {
          "internalType": "address",
          "name": "from",
          "type": "address"
        },
        {
          "internalType": "address",
          "name": "to",
          "type": "address"
        },
        {
          "internalType": "uint256",
          "name": "tokenId",
          "type": "uint256"
        }
      ],
      "name": "transferFrom",
      "outputs": [],
      "payable": false,
      "stateMutability": "nonpayable",
      "type": "function"
    },
    {
      "constant": false,
      "inputs": [
        {
          "internalType": "address",
          "name": "_from",
          "type": "address"
        },
        {
          "internalType": "address",
          "name": "_to",
          "type": "address"
        },
        {
          "internalType": "uint256",
          "name": "_value",
          "type": "uint256"
        }
      ],
      "name": "transferFromToken",
      "outputs": [
        {
          "internalType": "bool",
          "name": "",
          "type": "bool"
        }
      ],
      "payable": false,
      "stateMutability": "nonpayable",
      "type": "function"
    },
    {
      "constant": false,
      "inputs": [
        {
          "internalType": "address",
          "name": "_to",
          "type": "address"
        },
        {
          "internalType": "uint256",
          "name": "_value",
          "type": "uint256"
        }
      ],
      "name": "transferToken",
      "outputs": [
        {
          "internalType": "bool",
          "name": "",
          "type": "bool"
        }
      ],
      "payable": false,
      "stateMutability": "nonpayable",
      "type": "function"
    },
    {
      "constant": false,
      "inputs": [
        {
          "internalType": "string",
          "name": "_ipfsHash",
          "type": "string"
        },
        {
          "internalType": "string",
          "name": "_city",
          "type": "string"
        },
        {
          "internalType": "string",
          "name": "_requestAddress",
          "type": "string"
        },
        {
          "internalType": "string",
          "name": "_description",
          "type": "string"
        },
        {
          "internalType": "enum RequestCity.Priority",
          "name": "_priority",
          "type": "uint8"
        }
      ],
      "name": "createRequest",
      "outputs": [],
      "payable": true,
      "stateMutability": "payable",
      "type": "function"
    },
    {
      "constant": true,
      "inputs": [
        {
          "internalType": "uint256",
          "name": "_requestID",
          "type": "uint256"
        }
      ],
      "name": "getRequest",
      "outputs": [
        {
          "internalType": "uint256",
          "name": "_id",
          "type": "uint256"
        },
        {
          "internalType": "uint256",
          "name": "_dateOfIssue",
          "type": "uint256"
        },
        {
          "internalType": "string",
          "name": "_ipfsHash",
          "type": "string"
        },
        {
          "internalType": "address",
          "name": "_applicant",
          "type": "address"
        },
        {
          "internalType": "string",
          "name": "_city",
          "type": "string"
        },
        {
          "internalType": "string",
          "name": "_requestAddress",
          "type": "string"
        },
        {
          "internalType": "string",
          "name": "_description",
          "type": "string"
        },
        {
          "internalType": "enum RequestCity.Priority",
          "name": "",
          "type": "uint8"
        },
        {
          "internalType": "enum RequestCity.State",
          "name": "",
          "type": "uint8"
        }
      ],
      "payable": false,
      "stateMutability": "view",
      "type": "function"
    },
    {
      "constant": true,
      "inputs": [],
      "name": "getUserRequests",
      "outputs": [
        {
          "internalType": "uint256[]",
          "name": "",
          "type": "uint256[]"
        }
      ],
      "payable": false,
      "stateMutability": "view",
      "type": "function"
    },
    {
      "constant": true,
      "inputs": [],
      "name": "getNumberOfRequests",
      "outputs": [
        {
          "internalType": "uint256",
          "name": "",
          "type": "uint256"
        }
      ],
      "payable": false,
      "stateMutability": "view",
      "type": "function"
    },
    {
      "constant": false,
      "inputs": [
        {
          "internalType": "uint256",
          "name": "_requestID",
          "type": "uint256"
        }
      ],
      "name": "denyRequest",
      "outputs": [
        {
          "internalType": "enum RequestCity.State",
          "name": "",
          "type": "uint8"
        }
      ],
      "payable": false,
      "stateMutability": "nonpayable",
      "type": "function"
    },
    {
      "constant": false,
      "inputs": [
        {
          "internalType": "uint256",
          "name": "_requestID",
          "type": "uint256"
        }
      ],
      "name": "solveRequest",
      "outputs": [
        {
          "internalType": "enum RequestCity.State",
          "name": "",
          "type": "uint8"
        }
      ],
      "payable": false,
      "stateMutability": "nonpayable",
      "type": "function"
    },
    {
      "constant": false,
      "inputs": [
        {
          "internalType": "uint256",
          "name": "_newprice",
          "type": "uint256"
        }
      ],
      "name": "setRequestPrice",
      "outputs": [
        {
          "internalType": "uint256",
          "name": "",
          "type": "uint256"
        }
      ],
      "payable": false,
      "stateMutability": "nonpayable",
      "type": "function"
    },
    {
      "constant": false,
      "inputs": [
        {
          "internalType": "uint256",
          "name": "_newTokenReward",
          "type": "uint256"
        }
      ],
      "name": "setTokenReward",
      "outputs": [
        {
          "internalType": "uint256",
          "name": "",
          "type": "uint256"
        }
      ],
      "payable": false,
      "stateMutability": "nonpayable",
      "type": "function"
    },
    {
      "constant": true,
      "inputs": [],
      "name": "contractBalance",
      "outputs": [
        {
          "internalType": "uint256",
          "name": "",
          "type": "uint256"
        }
      ],
      "payable": false,
      "stateMutability": "view",
      "type": "function"
    },
    {
      "constant": false,
      "inputs": [],
      "name": "withdrawBalance",
      "outputs": [],
      "payable": false,
      "stateMutability": "nonpayable",
      "type": "function"
    }
  ],
  "bytecode": "0x60806040526040518060400160405280600981526020017f43697479546f6b656e0000000000000000000000000000000000000000000000815250600690805190602001906200005192919062000297565b506040518060400160405280600381526020017f4359540000000000000000000000000000000000000000000000000000000000815250600790805190602001906200009f92919062000297565b50662386f26fc10000600b55600a600d556001620000ca6301ffc9a760e01b6200018e60201b60201c565b620000e26380ac58cd60e01b6200018e60201b60201c565b6001600560003373ffffffffffffffffffffffffffffffffffffffff1673ffffffffffffffffffffffffffffffffffffffff16815260200190815260200160002060006101000a81548160ff02191690831515021790555080600881905550600854600960003373ffffffffffffffffffffffffffffffffffffffff1673ffffffffffffffffffffffffffffffffffffffff168152602001908152602001600020819055505062000346565b63ffffffff60e01b817bffffffffffffffffffffffffffffffffffffffffffffffffffffffff191614156200022b576040517f08c379a000000000000000000000000000000000000000000000000000000000815260040180806020018281038252601c8152602001807f4552433136353a20696e76616c696420696e746572666163652069640000000081525060200191505060405180910390fd5b6001600080837bffffffffffffffffffffffffffffffffffffffffffffffffffffffff19167bffffffffffffffffffffffffffffffffffffffffffffffffffffffff1916815260200190815260200160002060006101000a81548160ff02191690831515021790555050565b828054600181600116156101000203166002900490600052602060002090601f016020900481019282601f10620002da57805160ff19168380011785556200030b565b828001600101855582156200030b579182015b828111156200030a578251825591602001919060010190620002ed565b5b5090506200031a91906200031e565b5090565b6200034391905b808211156200033f57600081600090555060010162000325565b5090565b90565b61528c80620003566000396000f3fe6080604052600436106102255760003560e01c806370a082311161012357806395d89b41116100ab578063b88d4fde1161006f578063b88d4fde14611391578063b99152d0146114a3578063c1110cf914611508578063c58343ef14611565578063e985e9c5146117c857610225565b806395d89b411461116157806397388497146111f1578063a22cb4651461121c578063ad6822ae14611279578063b4765db7146112fe57610225565b806381d12c58116100f257806381d12c5814610b5857806389e67ad414610dbb57806389eaf2d7146110485780638b7afe2e146110cd578063916782cf146110f857610225565b806370a08231146109e857806379c6506814610a4d57806379f96c5714610aa85780637b47ec1a14610b0557610225565b806323b872dd116101b157806355fe42561161017557806355fe4256146108125780635ad7c05c146108815780635fd8c710146108ed5780636352211e146109045780637065cb481461097f57610225565b806323b872dd146106195780633fcf7ca11461069457806342842e0e146106e357806349f061411461075e5780634fe01d38146107c357610225565b8063095ea7b3116101f8578063095ea7b31461048c5780631072cbea146104e75780631604f9ea1461055a578063173825d91461058557806318160ddd146105ee57610225565b806301ffc9a71461029c578063022fc88b1461030e57806306fdde0314610381578063081812fc14610411575b600034111561029a577fd74ca19e3ad79f107cd3fb64be535aace3422e872c572909645452a6a91580623334604051808373ffffffffffffffffffffffffffffffffffffffff1673ffffffffffffffffffffffffffffffffffffffff1681526020018281526020019250505060405180910390a15b005b3480156102a857600080fd5b506102f4600480360360208110156102bf57600080fd5b8101908080357bffffffffffffffffffffffffffffffffffffffffffffffffffffffff19169060200190929190505050611851565b604051808215151515815260200191505060405180910390f35b34801561031a57600080fd5b506103676004803603604081101561033157600080fd5b81019080803573ffffffffffffffffffffffffffffffffffffffff169060200190929190803590602001909291905050506118b8565b604051808215151515815260200191505060405180910390f35b34801561038d57600080fd5b506103966119aa565b6040518080602001828103825283818151815260200191508051906020019080838360005b838110156103d65780820151818401526020810190506103bb565b50505050905090810190601f1680156104035780820380516001836020036101000a031916815260200191505b509250505060405180910390f35b34801561041d57600080fd5b5061044a6004803603602081101561043457600080fd5b8101908080359060200190929190505050611a48565b604051808273ffffffffffffffffffffffffffffffffffffffff1673ffffffffffffffffffffffffffffffffffffffff16815260200191505060405180910390f35b34801561049857600080fd5b506104e5600480360360408110156104af57600080fd5b81019080803573ffffffffffffffffffffffffffffffffffffffff16906020019092919080359060200190929190505050611ae3565b005b3480156104f357600080fd5b506105406004803603604081101561050a57600080fd5b81019080803573ffffffffffffffffffffffffffffffffffffffff16906020019092919080359060200190929190505050611cca565b604051808215151515815260200191505060405180910390f35b34801561056657600080fd5b5061056f611ce1565b6040518082815260200191505060405180910390f35b34801561059157600080fd5b506105d4600480360360208110156105a857600080fd5b81019080803573ffffffffffffffffffffffffffffffffffffffff169060200190929190505050611ce7565b604051808215151515815260200191505060405180910390f35b3480156105fa57600080fd5b50610603611ebf565b6040518082815260200191505060405180910390f35b34801561062557600080fd5b506106926004803603606081101561063c57600080fd5b81019080803573ffffffffffffffffffffffffffffffffffffffff169060200190929190803573ffffffffffffffffffffffffffffffffffffffff16906020019092919080359060200190929190505050611ec5565b005b3480156106a057600080fd5b506106cd600480360360208110156106b757600080fd5b8101908080359060200190929190505050611f3b565b6040518082815260200191505060405180910390f35b3480156106ef57600080fd5b5061075c6004803603606081101561070657600080fd5b81019080803573ffffffffffffffffffffffffffffffffffffffff169060200190929190803573ffffffffffffffffffffffffffffffffffffffff16906020019092919080359060200190929190505050612017565b005b34801561076a57600080fd5b506107ad6004803603602081101561078157600080fd5b81019080803573ffffffffffffffffffffffffffffffffffffffff169060200190929190505050612037565b6040518082815260200191505060405180910390f35b3480156107cf57600080fd5b506107fc600480360360208110156107e657600080fd5b8101908080359060200190929190505050612080565b6040518082815260200191505060405180910390f35b34801561081e57600080fd5b5061086b6004803603604081101561083557600080fd5b81019080803573ffffffffffffffffffffffffffffffffffffffff16906020019092919080359060200190929190505050612152565b6040518082815260200191505060405180910390f35b34801561088d57600080fd5b50610896612180565b6040518080602001828103825283818151815260200191508051906020019060200280838360005b838110156108d95780820151818401526020810190506108be565b505050509050019250505060405180910390f35b3480156108f957600080fd5b50610902612276565b005b34801561091057600080fd5b5061093d6004803603602081101561092757600080fd5b810190808035906020019092919050505061241d565b604051808273ffffffffffffffffffffffffffffffffffffffff1673ffffffffffffffffffffffffffffffffffffffff16815260200191505060405180910390f35b34801561098b57600080fd5b506109ce600480360360208110156109a257600080fd5b81019080803573ffffffffffffffffffffffffffffffffffffffff1690602001909291905050506124e5565b604051808215151515815260200191505060405180910390f35b3480156109f457600080fd5b50610a3760048036036020811015610a0b57600080fd5b81019080803573ffffffffffffffffffffffffffffffffffffffff1690602001909291905050506126bc565b6040518082815260200191505060405180910390f35b348015610a5957600080fd5b50610aa660048036036040811015610a7057600080fd5b81019080803573ffffffffffffffffffffffffffffffffffffffff16906020019092919080359060200190929190505050612791565b005b348015610ab457600080fd5b50610ae160048036036020811015610acb57600080fd5b8101908080359060200190929190505050612916565b60405180826002811115610af157fe5b60ff16815260200191505060405180910390f35b348015610b1157600080fd5b50610b3e60048036036020811015610b2857600080fd5b8101908080359060200190929190505050612b1e565b604051808215151515815260200191505060405180910390f35b348015610b6457600080fd5b50610b9160048036036020811015610b7b57600080fd5b8101908080359060200190929190505050612d2b565b604051808a8152602001898152602001806020018873ffffffffffffffffffffffffffffffffffffffff1673ffffffffffffffffffffffffffffffffffffffff168152602001806020018060200180602001876002811115610bef57fe5b60ff168152602001866002811115610c0357fe5b60ff16815260200185810385528c818151815260200191508051906020019080838360005b83811015610c43578082015181840152602081019050610c28565b50505050905090810190601f168015610c705780820380516001836020036101000a031916815260200191505b5085810384528a818151815260200191508051906020019080838360005b83811015610ca9578082015181840152602081019050610c8e565b50505050905090810190601f168015610cd65780820380516001836020036101000a031916815260200191505b50858103835289818151815260200191508051906020019080838360005b83811015610d0f578082015181840152602081019050610cf4565b50505050905090810190601f168015610d3c5780820380516001836020036101000a031916815260200191505b50858103825288818151815260200191508051906020019080838360005b83811015610d75578082015181840152602081019050610d5a565b50505050905090810190601f168015610da25780820380516001836020036101000a031916815260200191505b509d505050505050505050505050505060405180910390f35b611046600480360360a0811015610dd157600080fd5b8101908080359060200190640100000000811115610dee57600080fd5b820183602082011115610e0057600080fd5b80359060200191846001830284011164010000000083111715610e2257600080fd5b91908080601f016020809104026020016040519081016040528093929190818152602001838380828437600081840152601f19601f82011690508083019250505050505050919291929080359060200190640100000000811115610e8557600080fd5b820183602082011115610e9757600080fd5b80359060200191846001830284011164010000000083111715610eb957600080fd5b91908080601f016020809104026020016040519081016040528093929190818152602001838380828437600081840152601f19601f82011690508083019250505050505050919291929080359060200190640100000000811115610f1c57600080fd5b820183602082011115610f2e57600080fd5b80359060200191846001830284011164010000000083111715610f5057600080fd5b91908080601f016020809104026020016040519081016040528093929190818152602001838380828437600081840152601f19601f82011690508083019250505050505050919291929080359060200190640100000000811115610fb357600080fd5b820183602082011115610fc557600080fd5b80359060200191846001830284011164010000000083111715610fe757600080fd5b91908080601f016020809104026020016040519081016040528093929190818152602001838380828437600081840152601f19601f820116905080830192505050505050509192919290803560ff169060200190929190505050613013565b005b34801561105457600080fd5b506110b76004803603604081101561106b57600080fd5b81019080803573ffffffffffffffffffffffffffffffffffffffff169060200190929190803573ffffffffffffffffffffffffffffffffffffffff16906020019092919050505061346a565b6040518082815260200191505060405180910390f35b3480156110d957600080fd5b506110e26134f1565b6040518082815260200191505060405180910390f35b34801561110457600080fd5b506111476004803603602081101561111b57600080fd5b81019080803573ffffffffffffffffffffffffffffffffffffffff1690602001909291905050506135cf565b604051808215151515815260200191505060405180910390f35b34801561116d57600080fd5b506111766135ef565b6040518080602001828103825283818151815260200191508051906020019080838360005b838110156111b657808201518184015260208101905061119b565b50505050905090810190601f1680156111e35780820380516001836020036101000a031916815260200191505b509250505060405180910390f35b3480156111fd57600080fd5b5061120661368d565b6040518082815260200191505060405180910390f35b34801561122857600080fd5b506112776004803603604081101561123f57600080fd5b81019080803573ffffffffffffffffffffffffffffffffffffffff16906020019092919080351515906020019092919050505061369d565b005b34801561128557600080fd5b506112e86004803603604081101561129c57600080fd5b81019080803573ffffffffffffffffffffffffffffffffffffffff169060200190929190803573ffffffffffffffffffffffffffffffffffffffff169060200190929190505050613855565b6040518082815260200191505060405180910390f35b34801561130a57600080fd5b506113776004803603606081101561132157600080fd5b81019080803573ffffffffffffffffffffffffffffffffffffffff169060200190929190803573ffffffffffffffffffffffffffffffffffffffff1690602001909291908035906020019092919050505061387a565b604051808215151515815260200191505060405180910390f35b34801561139d57600080fd5b506114a1600480360360808110156113b457600080fd5b81019080803573ffffffffffffffffffffffffffffffffffffffff169060200190929190803573ffffffffffffffffffffffffffffffffffffffff169060200190929190803590602001909291908035906020019064010000000081111561141b57600080fd5b82018360208201111561142d57600080fd5b8035906020019184600183028401116401000000008311171561144f57600080fd5b91908080601f016020809104026020016040519081016040528093929190818152602001838380828437600081840152601f19601f820116905080830192505050505050509192919290505050613a0e565b005b3480156114af57600080fd5b506114f2600480360360208110156114c657600080fd5b81019080803573ffffffffffffffffffffffffffffffffffffffff169060200190929190505050613a86565b6040518082815260200191505060405180910390f35b34801561151457600080fd5b506115416004803603602081101561152b57600080fd5b8101908080359060200190929190505050613a9e565b6040518082600281111561155157fe5b60ff16815260200191505060405180910390f35b34801561157157600080fd5b5061159e6004803603602081101561158857600080fd5b8101908080359060200190929190505050613cd6565b604051808a8152602001898152602001806020018873ffffffffffffffffffffffffffffffffffffffff1673ffffffffffffffffffffffffffffffffffffffff1681526020018060200180602001806020018760028111156115fc57fe5b60ff16815260200186600281111561161057fe5b60ff16815260200185810385528c818151815260200191508051906020019080838360005b83811015611650578082015181840152602081019050611635565b50505050905090810190601f16801561167d5780820380516001836020036101000a031916815260200191505b5085810384528a818151815260200191508051906020019080838360005b838110156116b657808201518184015260208101905061169b565b50505050905090810190601f1680156116e35780820380516001836020036101000a031916815260200191505b50858103835289818151815260200191508051906020019080838360005b8381101561171c578082015181840152602081019050611701565b50505050905090810190601f1680156117495780820380516001836020036101000a031916815260200191505b50858103825288818151815260200191508051906020019080838360005b83811015611782578082015181840152602081019050611767565b50505050905090810190601f1680156117af5780820380516001836020036101000a031916815260200191505b509d505050505050505050505050505060405180910390f35b3480156117d457600080fd5b50611837600480360360408110156117eb57600080fd5b81019080803573ffffffffffffffffffffffffffffffffffffffff169060200190929190803573ffffffffffffffffffffffffffffffffffffffff16906020019092919050505061406d565b604051808215151515815260200191505060405180910390f35b6000806000837bffffffffffffffffffffffffffffffffffffffffffffffffffffffff19167bffffffffffffffffffffffffffffffffffffffffffffffffffffffff1916815260200190815260200160002060009054906101000a900460ff169050919050565b600081600a60003373ffffffffffffffffffffffffffffffffffffffff1673ffffffffffffffffffffffffffffffffffffffff16815260200190815260200160002060008573ffffffffffffffffffffffffffffffffffffffff1673ffffffffffffffffffffffffffffffffffffffff168152602001908152602001600020819055508273ffffffffffffffffffffffffffffffffffffffff163373ffffffffffffffffffffffffffffffffffffffff167f8c5be1e5ebec7d5bd14f71427d1e84f3dd0314c0f7b2291e5b200ac8c7c3b925846040518082815260200191505060405180910390a36001905092915050565b60068054600181600116156101000203166002900480601f016020809104026020016040519081016040528092919081815260200182805460018160011615610100020316600290048015611a405780601f10611a1557610100808354040283529160200191611a40565b820191906000526020600020905b815481529060010190602001808311611a2357829003601f168201915b505050505081565b6000611a5382614101565b611aa8576040517f08c379a000000000000000000000000000000000000000000000000000000000815260040180806020018281038252602c81526020018061518e602c913960400191505060405180910390fd5b6002600083815260200190815260200160002060009054906101000a900473ffffffffffffffffffffffffffffffffffffffff169050919050565b6000611aee8261241d565b90508073ffffffffffffffffffffffffffffffffffffffff168373ffffffffffffffffffffffffffffffffffffffff161415611b75576040517f08c379a00000000000000000000000000000000000000000000000000000000081526004018080602001828103825260218152602001806151e36021913960400191505060405180910390fd5b8073ffffffffffffffffffffffffffffffffffffffff16611b94614173565b73ffffffffffffffffffffffffffffffffffffffff161480611bc35750611bc281611bbd614173565b61406d565b5b611c18576040517f08c379a00000000000000000000000000000000000000000000000000000000081526004018080602001828103825260388152602001806150e06038913960400191505060405180910390fd5b826002600084815260200190815260200160002060006101000a81548173ffffffffffffffffffffffffffffffffffffffff021916908373ffffffffffffffffffffffffffffffffffffffff160217905550818373ffffffffffffffffffffffffffffffffffffffff168273ffffffffffffffffffffffffffffffffffffffff167f8c5be1e5ebec7d5bd14f71427d1e84f3dd0314c0f7b2291e5b200ac8c7c3b92560405160405180910390a4505050565b6000611cd733848461417b565b6001905092915050565b600b5481565b6000600560003373ffffffffffffffffffffffffffffffffffffffff1673ffffffffffffffffffffffffffffffffffffffff16815260200190815260200160002060009054906101000a900460ff16611da8576040517f08c379a00000000000000000000000000000000000000000000000000000000081526004018080602001828103825260148152602001807f596f7520617265206e6f7420616e206f776e657200000000000000000000000081525060200191505060405180910390fd5b600560008373ffffffffffffffffffffffffffffffffffffffff1673ffffffffffffffffffffffffffffffffffffffff16815260200190815260200160002060009054906101000a900460ff1615611eba576000600560008473ffffffffffffffffffffffffffffffffffffffff1673ffffffffffffffffffffffffffffffffffffffff16815260200190815260200160002060006101000a81548160ff0219169083151502179055507f573f8b697fb02eea64e5bb95dc7d0d06498fbc3d35ec94b4239327afee00777182604051808273ffffffffffffffffffffffffffffffffffffffff1673ffffffffffffffffffffffffffffffffffffffff16815260200191505060405180910390a1600190505b919050565b60085481565b611ed6611ed0614173565b826144cd565b611f2b576040517f08c379a00000000000000000000000000000000000000000000000000000000081526004018080602001828103825260318152602001806152046031913960400191505060405180910390fd5b611f368383836145c1565b505050565b6000600560003373ffffffffffffffffffffffffffffffffffffffff1673ffffffffffffffffffffffffffffffffffffffff16815260200190815260200160002060009054906101000a900460ff16611ffc576040517f08c379a00000000000000000000000000000000000000000000000000000000081526004018080602001828103825260148152602001807f596f7520617265206e6f7420616e206f776e657200000000000000000000000081525060200191505060405180910390fd5b670de0b6b3a76400008202600b81905550600b549050919050565b61203283838360405180602001604052806000815250613a0e565b505050565b6000600960008373ffffffffffffffffffffffffffffffffffffffff1673ffffffffffffffffffffffffffffffffffffffff168152602001908152602001600020549050919050565b6000600560003373ffffffffffffffffffffffffffffffffffffffff1673ffffffffffffffffffffffffffffffffffffffff16815260200190815260200160002060009054906101000a900460ff16612141576040517f08c379a00000000000000000000000000000000000000000000000000000000081526004018080602001828103825260148152602001807f596f7520617265206e6f7420616e206f776e657200000000000000000000000081525060200191505060405180910390fd5b81600d81905550600d549050919050565b600f602052816000526040600020818154811061216b57fe5b90600052602060002001600091509150505481565b6060600061218d336126bc565b116121e3576040517f08c379a000000000000000000000000000000000000000000000000000000000815260040180806020018281038252602381526020018061516b6023913960400191505060405180910390fd5b600f60003373ffffffffffffffffffffffffffffffffffffffff1673ffffffffffffffffffffffffffffffffffffffff16815260200190815260200160002080548060200260200160405190810160405280929190818152602001828054801561226c57602002820191906000526020600020905b815481526020019060010190808311612258575b5050505050905090565b600560003373ffffffffffffffffffffffffffffffffffffffff1673ffffffffffffffffffffffffffffffffffffffff16815260200190815260200160002060009054906101000a900460ff16612335576040517f08c379a00000000000000000000000000000000000000000000000000000000081526004018080602001828103825260148152602001807f596f7520617265206e6f7420616e206f776e657200000000000000000000000081525060200191505060405180910390fd5b60003390508073ffffffffffffffffffffffffffffffffffffffff166108fc3073ffffffffffffffffffffffffffffffffffffffff16319081150290604051600060405180830381858888f19350505050158015612397573d6000803e3d6000fd5b507f5dba113b49cfa7c90315e8e604e6b506f7abcb909b01dcb19ec39005086e68fc813073ffffffffffffffffffffffffffffffffffffffff1631604051808373ffffffffffffffffffffffffffffffffffffffff1673ffffffffffffffffffffffffffffffffffffffff1681526020018281526020019250505060405180910390a150565b6000806001600084815260200190815260200160002060009054906101000a900473ffffffffffffffffffffffffffffffffffffffff169050600073ffffffffffffffffffffffffffffffffffffffff168173ffffffffffffffffffffffffffffffffffffffff1614156124dc576040517f08c379a00000000000000000000000000000000000000000000000000000000081526004018080602001828103825260298152602001806151426029913960400191505060405180910390fd5b80915050919050565b6000600560003373ffffffffffffffffffffffffffffffffffffffff1673ffffffffffffffffffffffffffffffffffffffff16815260200190815260200160002060009054906101000a900460ff166125a6576040517f08c379a00000000000000000000000000000000000000000000000000000000081526004018080602001828103825260148152602001807f596f7520617265206e6f7420616e206f776e657200000000000000000000000081525060200191505060405180910390fd5b600560008373ffffffffffffffffffffffffffffffffffffffff1673ffffffffffffffffffffffffffffffffffffffff16815260200190815260200160002060009054906101000a900460ff166126b7576001600560008473ffffffffffffffffffffffffffffffffffffffff1673ffffffffffffffffffffffffffffffffffffffff16815260200190815260200160002060006101000a81548160ff0219169083151502179055507f83816cf3e38e624df946c11b7c2432c2f9e3d504aef4bea7a67a4a95a7e9770182604051808273ffffffffffffffffffffffffffffffffffffffff1673ffffffffffffffffffffffffffffffffffffffff16815260200191505060405180910390a1600190505b919050565b60008073ffffffffffffffffffffffffffffffffffffffff168273ffffffffffffffffffffffffffffffffffffffff161415612743576040517f08c379a000000000000000000000000000000000000000000000000000000000815260040180806020018281038252602a815260200180615118602a913960400191505060405180910390fd5b61278a600360008473ffffffffffffffffffffffffffffffffffffffff1673ffffffffffffffffffffffffffffffffffffffff16815260200190815260200160002061481c565b9050919050565b600560003373ffffffffffffffffffffffffffffffffffffffff1673ffffffffffffffffffffffffffffffffffffffff16815260200190815260200160002060009054906101000a900460ff16612850576040517f08c379a00000000000000000000000000000000000000000000000000000000081526004018080602001828103825260148152602001807f596f7520617265206e6f7420616e206f776e657200000000000000000000000081525060200191505060405180910390fd5b80600960008473ffffffffffffffffffffffffffffffffffffffff1673ffffffffffffffffffffffffffffffffffffffff16815260200190815260200160002060008282540192505081905550806008600082825401925050819055508173ffffffffffffffffffffffffffffffffffffffff163073ffffffffffffffffffffffffffffffffffffffff167fddf252ad1be2c89b69c2b068fc378daa952ba7f163c4a11628f55a4df523b3ef836040518082815260200191505060405180910390a35050565b6000600560003373ffffffffffffffffffffffffffffffffffffffff1673ffffffffffffffffffffffffffffffffffffffff16815260200190815260200160002060009054906101000a900460ff166129d7576040517f08c379a00000000000000000000000000000000000000000000000000000000081526004018080602001828103825260148152602001807f596f7520617265206e6f7420616e206f776e657200000000000000000000000081525060200191505060405180910390fd5b600060028111156129e457fe5b600e600084815260200190815260200160002060070160019054906101000a900460ff166002811115612a1357fe5b14612a69576040517f08c379a00000000000000000000000000000000000000000000000000000000081526004018080602001828103825260238152602001806152356023913960400191505060405180910390fd5b6000600e6000848152602001908152602001600020905060028160070160016101000a81548160ff02191690836002811115612aa157fe5b02179055507faeb9cdb2262d9c6da78aab88f1554ca2a08120de39807de5747118702bfc9631838260070160019054906101000a900460ff1660405180838152602001826002811115612af057fe5b60ff1681526020019250505060405180910390a18060070160019054906101000a900460ff16915050919050565b6000600560003373ffffffffffffffffffffffffffffffffffffffff1673ffffffffffffffffffffffffffffffffffffffff16815260200190815260200160002060009054906101000a900460ff16612bdf576040517f08c379a00000000000000000000000000000000000000000000000000000000081526004018080602001828103825260148152602001807f596f7520617265206e6f7420616e206f776e657200000000000000000000000081525060200191505060405180910390fd5b81600960003373ffffffffffffffffffffffffffffffffffffffff1673ffffffffffffffffffffffffffffffffffffffff168152602001908152602001600020541015612c77576040517f08c379a000000000000000000000000000000000000000000000000000000000815260040180806020018281038252602281526020018061500e6022913960400191505060405180910390fd5b81600960003373ffffffffffffffffffffffffffffffffffffffff1673ffffffffffffffffffffffffffffffffffffffff16815260200190815260200160002060008282540392505081905550816008600082825403925050819055503373ffffffffffffffffffffffffffffffffffffffff167fcc16f5dbb4873280815c1ee09dbd06736cffcc184412cf7a71a0fdb75d397ca5836040518082815260200191505060405180910390a260019050919050565b600e602052806000526040600020600091509050806000015490806001015490806002018054600181600116156101000203166002900480601f016020809104026020016040519081016040528092919081815260200182805460018160011615610100020316600290048015612de35780601f10612db857610100808354040283529160200191612de3565b820191906000526020600020905b815481529060010190602001808311612dc657829003601f168201915b5050505050908060030160009054906101000a900473ffffffffffffffffffffffffffffffffffffffff1690806004018054600181600116156101000203166002900480601f016020809104026020016040519081016040528092919081815260200182805460018160011615610100020316600290048015612ea75780601f10612e7c57610100808354040283529160200191612ea7565b820191906000526020600020905b815481529060010190602001808311612e8a57829003601f168201915b505050505090806005018054600181600116156101000203166002900480601f016020809104026020016040519081016040528092919081815260200182805460018160011615610100020316600290048015612f455780601f10612f1a57610100808354040283529160200191612f45565b820191906000526020600020905b815481529060010190602001808311612f2857829003601f168201915b505050505090806006018054600181600116156101000203166002900480601f016020809104026020016040519081016040528092919081815260200182805460018160011615610100020316600290048015612fe35780601f10612fb857610100808354040283529160200191612fe3565b820191906000526020600020905b815481529060010190602001808311612fc657829003601f168201915b5050505050908060070160009054906101000a900460ff16908060070160019054906101000a900460ff16905089565b600b5434101561306e576040517f08c379a000000000000000000000000000000000000000000000000000000000815260040180806020018281038252602e8152602001806150b2602e913960400191505060405180910390fd5b600061307a600c61481c565b9050613086338261482a565b61308e614ef0565b6040518061012001604052808381526020014281526020018881526020013373ffffffffffffffffffffffffffffffffffffffff1681526020018781526020018681526020018581526020018460028111156130e657fe5b8152602001600060028111156130f857fe5b815250905080600e600084815260200190815260200160002060008201518160000155602082015181600101556040820151816002019080519060200190613141929190614f68565b5060608201518160030160006101000a81548173ffffffffffffffffffffffffffffffffffffffff021916908373ffffffffffffffffffffffffffffffffffffffff16021790555060808201518160040190805190602001906131a5929190614f68565b5060a08201518160050190805190602001906131c2929190614f68565b5060c08201518160060190805190602001906131df929190614f68565b5060e08201518160070160006101000a81548160ff0219169083600281111561320457fe5b02179055506101008201518160070160016101000a81548160ff0219169083600281111561322e57fe5b02179055509050506000600f60003373ffffffffffffffffffffffffffffffffffffffff1673ffffffffffffffffffffffffffffffffffffffff1681526020019081526020016000209050808390806001815401808255809150509060018203906000526020600020016000909192909190915055506132ae600c614a42565b7fd6c92eeb860bf9ce43d6b112fee6f9d8048c39ae1ea79b55ff464900861d1e5483338a8a8a604051808681526020018573ffffffffffffffffffffffffffffffffffffffff1673ffffffffffffffffffffffffffffffffffffffff168152602001806020018060200180602001848103845287818151815260200191508051906020019080838360005b83811015613354578082015181840152602081019050613339565b50505050905090810190601f1680156133815780820380516001836020036101000a031916815260200191505b50848103835286818151815260200191508051906020019080838360005b838110156133ba57808201518184015260208101905061339f565b50505050905090810190601f1680156133e75780820380516001836020036101000a031916815260200191505b50848103825285818151815260200191508051906020019080838360005b83811015613420578082015181840152602081019050613405565b50505050905090810190601f16801561344d5780820380516001836020036101000a031916815260200191505b509850505050505050505060405180910390a15050505050505050565b6000600a60008473ffffffffffffffffffffffffffffffffffffffff1673ffffffffffffffffffffffffffffffffffffffff16815260200190815260200160002060008373ffffffffffffffffffffffffffffffffffffffff1673ffffffffffffffffffffffffffffffffffffffff16815260200190815260200160002054905092915050565b6000600560003373ffffffffffffffffffffffffffffffffffffffff1673ffffffffffffffffffffffffffffffffffffffff16815260200190815260200160002060009054906101000a900460ff166135b2576040517f08c379a00000000000000000000000000000000000000000000000000000000081526004018080602001828103825260148152602001807f596f7520617265206e6f7420616e206f776e657200000000000000000000000081525060200191505060405180910390fd5b3073ffffffffffffffffffffffffffffffffffffffff1631905090565b60056020528060005260406000206000915054906101000a900460ff1681565b60078054600181600116156101000203166002900480601f0160208091040260200160405190810160405280929190818152602001828054600181600116156101000203166002900480156136855780601f1061365a57610100808354040283529160200191613685565b820191906000526020600020905b81548152906001019060200180831161366857829003601f168201915b505050505081565b6000613698336126bc565b905090565b6136a5614173565b73ffffffffffffffffffffffffffffffffffffffff168273ffffffffffffffffffffffffffffffffffffffff161415613746576040517f08c379a00000000000000000000000000000000000000000000000000000000081526004018080602001828103825260198152602001807f4552433732313a20617070726f766520746f2063616c6c65720000000000000081525060200191505060405180910390fd5b8060046000613753614173565b73ffffffffffffffffffffffffffffffffffffffff1673ffffffffffffffffffffffffffffffffffffffff16815260200190815260200160002060008473ffffffffffffffffffffffffffffffffffffffff1673ffffffffffffffffffffffffffffffffffffffff16815260200190815260200160002060006101000a81548160ff0219169083151502179055508173ffffffffffffffffffffffffffffffffffffffff16613800614173565b73ffffffffffffffffffffffffffffffffffffffff167f17307eab39ab6107e8899845ad3d59bd9653f200f220920489ca2b5937696c3183604051808215151515815260200191505060405180910390a35050565b600a602052816000526040600020602052806000526040600020600091509150505481565b6000600a60008573ffffffffffffffffffffffffffffffffffffffff1673ffffffffffffffffffffffffffffffffffffffff16815260200190815260200160002060003373ffffffffffffffffffffffffffffffffffffffff1673ffffffffffffffffffffffffffffffffffffffff1681526020019081526020016000205482111561396e576040517f08c379a00000000000000000000000000000000000000000000000000000000081526004018080602001828103825260138152602001807f596f7520617265206e6f7420616c6c6f7765640000000000000000000000000081525060200191505060405180910390fd5b81600a60008673ffffffffffffffffffffffffffffffffffffffff1673ffffffffffffffffffffffffffffffffffffffff16815260200190815260200160002060003373ffffffffffffffffffffffffffffffffffffffff1673ffffffffffffffffffffffffffffffffffffffff16815260200190815260200160002060008282540392505081905550613a0384848461417b565b600190509392505050565b613a1f613a19614173565b836144cd565b613a74576040517f08c379a00000000000000000000000000000000000000000000000000000000081526004018080602001828103825260318152602001806152046031913960400191505060405180910390fd5b613a8084848484614a58565b50505050565b60096020528060005260406000206000915090505481565b6000600560003373ffffffffffffffffffffffffffffffffffffffff1673ffffffffffffffffffffffffffffffffffffffff16815260200190815260200160002060009054906101000a900460ff16613b5f576040517f08c379a00000000000000000000000000000000000000000000000000000000081526004018080602001828103825260148152602001807f596f7520617265206e6f7420616e206f776e657200000000000000000000000081525060200191505060405180910390fd5b60006002811115613b6c57fe5b600e600084815260200190815260200160002060070160019054906101000a900460ff166002811115613b9b57fe5b14613bf1576040517f08c379a00000000000000000000000000000000000000000000000000000000081526004018080602001828103825260238152602001806152356023913960400191505060405180910390fd5b6000600e6000848152602001908152602001600020905060018160070160016101000a81548160ff02191690836002811115613c2957fe5b0217905550613c5e8160030160009054906101000a900473ffffffffffffffffffffffffffffffffffffffff16600d54612791565b7faeb9cdb2262d9c6da78aab88f1554ca2a08120de39807de5747118702bfc9631838260070160019054906101000a900460ff1660405180838152602001826002811115613ca857fe5b60ff1681526020019250505060405180910390a18060070160019054906101000a900460ff16915050919050565b600080606060006060806060600080613cee8a614101565b613d60576040517f08c379a000000000000000000000000000000000000000000000000000000000815260040180806020018281038252601e8152602001807f54686973207265717565737420494420646f65206e6f7420657869737473000081525060200191505060405180910390fd5b6000600e60008c8152602001908152602001600020905080600001548160010154826002018360030160009054906101000a900473ffffffffffffffffffffffffffffffffffffffff168460040185600501866006018760070160009054906101000a900460ff168860070160019054906101000a900460ff16868054600181600116156101000203166002900480601f016020809104026020016040519081016040528092919081815260200182805460018160011615610100020316600290048015613e6f5780601f10613e4457610100808354040283529160200191613e6f565b820191906000526020600020905b815481529060010190602001808311613e5257829003601f168201915b50505050509650859550848054600181600116156101000203166002900480601f016020809104026020016040519081016040528092919081815260200182805460018160011615610100020316600290048015613f0e5780601f10613ee357610100808354040283529160200191613f0e565b820191906000526020600020905b815481529060010190602001808311613ef157829003601f168201915b50505050509450838054600181600116156101000203166002900480601f016020809104026020016040519081016040528092919081815260200182805460018160011615610100020316600290048015613faa5780601f10613f7f57610100808354040283529160200191613faa565b820191906000526020600020905b815481529060010190602001808311613f8d57829003601f168201915b50505050509350828054600181600116156101000203166002900480601f0160208091040260200160405190810160405280929190818152602001828054600181600116156101000203166002900480156140465780601f1061401b57610100808354040283529160200191614046565b820191906000526020600020905b81548152906001019060200180831161402957829003601f168201915b50505050509250995099509950995099509950995099509950509193959799909294969850565b6000600460008473ffffffffffffffffffffffffffffffffffffffff1673ffffffffffffffffffffffffffffffffffffffff16815260200190815260200160002060008373ffffffffffffffffffffffffffffffffffffffff1673ffffffffffffffffffffffffffffffffffffffff16815260200190815260200160002060009054906101000a900460ff16905092915050565b6000806001600084815260200190815260200160002060009054906101000a900473ffffffffffffffffffffffffffffffffffffffff169050600073ffffffffffffffffffffffffffffffffffffffff168173ffffffffffffffffffffffffffffffffffffffff161415915050919050565b600033905090565b600073ffffffffffffffffffffffffffffffffffffffff168273ffffffffffffffffffffffffffffffffffffffff16141561421e576040517f08c379a000000000000000000000000000000000000000000000000000000000815260040180806020018281038252601f8152602001807f50726576656e74207472616e7366657220746f2030783020616464726573730081525060200191505060405180910390fd5b80600960008573ffffffffffffffffffffffffffffffffffffffff1673ffffffffffffffffffffffffffffffffffffffff1681526020019081526020016000205410156142d3576040517f08c379a000000000000000000000000000000000000000000000000000000000815260040180806020018281038252601d8152602001807f73656e64657220686173206e6f7420656e6f7567682062616c616e636500000081525060200191505060405180910390fd5b600960008373ffffffffffffffffffffffffffffffffffffffff1673ffffffffffffffffffffffffffffffffffffffff1681526020019081526020016000205481600960008573ffffffffffffffffffffffffffffffffffffffff1673ffffffffffffffffffffffffffffffffffffffff168152602001908152602001600020540110156143c9576040517f08c379a00000000000000000000000000000000000000000000000000000000081526004018080602001828103825260138152602001807f436865636b20666f72206f766572666c6f77730000000000000000000000000081525060200191505060405180910390fd5b80600960008573ffffffffffffffffffffffffffffffffffffffff1673ffffffffffffffffffffffffffffffffffffffff1681526020019081526020016000206000828254039250508190555080600960008473ffffffffffffffffffffffffffffffffffffffff1673ffffffffffffffffffffffffffffffffffffffff168152602001908152602001600020600082825401925050819055508173ffffffffffffffffffffffffffffffffffffffff168373ffffffffffffffffffffffffffffffffffffffff167fddf252ad1be2c89b69c2b068fc378daa952ba7f163c4a11628f55a4df523b3ef836040518082815260200191505060405180910390a3505050565b60006144d882614101565b61452d576040517f08c379a000000000000000000000000000000000000000000000000000000000815260040180806020018281038252602c815260200180615086602c913960400191505060405180910390fd5b60006145388361241d565b90508073ffffffffffffffffffffffffffffffffffffffff168473ffffffffffffffffffffffffffffffffffffffff1614806145a757508373ffffffffffffffffffffffffffffffffffffffff1661458f84611a48565b73ffffffffffffffffffffffffffffffffffffffff16145b806145b857506145b7818561406d565b5b91505092915050565b8273ffffffffffffffffffffffffffffffffffffffff166145e18261241d565b73ffffffffffffffffffffffffffffffffffffffff161461464d576040517f08c379a00000000000000000000000000000000000000000000000000000000081526004018080602001828103825260298152602001806151ba6029913960400191505060405180910390fd5b600073ffffffffffffffffffffffffffffffffffffffff168273ffffffffffffffffffffffffffffffffffffffff1614156146d3576040517f08c379a00000000000000000000000000000000000000000000000000000000081526004018080602001828103825260248152602001806150626024913960400191505060405180910390fd5b6146dc81614aca565b614723600360008573ffffffffffffffffffffffffffffffffffffffff1673ffffffffffffffffffffffffffffffffffffffff168152602001908152602001600020614b88565b61476a600360008473ffffffffffffffffffffffffffffffffffffffff1673ffffffffffffffffffffffffffffffffffffffff168152602001908152602001600020614a42565b816001600083815260200190815260200160002060006101000a81548173ffffffffffffffffffffffffffffffffffffffff021916908373ffffffffffffffffffffffffffffffffffffffff160217905550808273ffffffffffffffffffffffffffffffffffffffff168473ffffffffffffffffffffffffffffffffffffffff167fddf252ad1be2c89b69c2b068fc378daa952ba7f163c4a11628f55a4df523b3ef60405160405180910390a4505050565b600081600001549050919050565b600073ffffffffffffffffffffffffffffffffffffffff168273ffffffffffffffffffffffffffffffffffffffff1614156148cd576040517f08c379a00000000000000000000000000000000000000000000000000000000081526004018080602001828103825260208152602001807f4552433732313a206d696e7420746f20746865207a65726f206164647265737381525060200191505060405180910390fd5b6148d681614101565b15614949576040517f08c379a000000000000000000000000000000000000000000000000000000000815260040180806020018281038252601c8152602001807f4552433732313a20746f6b656e20616c7265616479206d696e7465640000000081525060200191505060405180910390fd5b816001600083815260200190815260200160002060006101000a81548173ffffffffffffffffffffffffffffffffffffffff021916908373ffffffffffffffffffffffffffffffffffffffff1602179055506149e2600360008473ffffffffffffffffffffffffffffffffffffffff1673ffffffffffffffffffffffffffffffffffffffff168152602001908152602001600020614a42565b808273ffffffffffffffffffffffffffffffffffffffff16600073ffffffffffffffffffffffffffffffffffffffff167fddf252ad1be2c89b69c2b068fc378daa952ba7f163c4a11628f55a4df523b3ef60405160405180910390a45050565b6001816000016000828254019250508190555050565b614a638484846145c1565b614a6f84848484614bab565b614ac4576040517f08c379a00000000000000000000000000000000000000000000000000000000081526004018080602001828103825260328152602001806150306032913960400191505060405180910390fd5b50505050565b600073ffffffffffffffffffffffffffffffffffffffff166002600083815260200190815260200160002060009054906101000a900473ffffffffffffffffffffffffffffffffffffffff1673ffffffffffffffffffffffffffffffffffffffff1614614b855760006002600083815260200190815260200160002060006101000a81548173ffffffffffffffffffffffffffffffffffffffff021916908373ffffffffffffffffffffffffffffffffffffffff1602179055505b50565b614ba060018260000154614d9b90919063ffffffff16565b816000018190555050565b6000614bcc8473ffffffffffffffffffffffffffffffffffffffff16614de5565b614bd95760019050614d93565b60008473ffffffffffffffffffffffffffffffffffffffff1663150b7a02614bff614173565b8887876040518563ffffffff1660e01b8152600401808573ffffffffffffffffffffffffffffffffffffffff1673ffffffffffffffffffffffffffffffffffffffff1681526020018473ffffffffffffffffffffffffffffffffffffffff1673ffffffffffffffffffffffffffffffffffffffff16815260200183815260200180602001828103825283818151815260200191508051906020019080838360005b83811015614cbb578082015181840152602081019050614ca0565b50505050905090810190601f168015614ce85780820380516001836020036101000a031916815260200191505b5095505050505050602060405180830381600087803b158015614d0a57600080fd5b505af1158015614d1e573d6000803e3d6000fd5b505050506040513d6020811015614d3457600080fd5b8101908080519060200190929190505050905063150b7a0260e01b7bffffffffffffffffffffffffffffffffffffffffffffffffffffffff1916817bffffffffffffffffffffffffffffffffffffffffffffffffffffffff1916149150505b949350505050565b6000614ddd83836040518060400160405280601e81526020017f536166654d6174683a207375627472616374696f6e206f766572666c6f770000815250614e30565b905092915050565b60008060007fc5d2460186f7233c927e7db2dcc703c0e500b653ca82273b7bfad8045d85a47060001b9050833f91506000801b8214158015614e275750808214155b92505050919050565b6000838311158290614edd576040517f08c379a00000000000000000000000000000000000000000000000000000000081526004018080602001828103825283818151815260200191508051906020019080838360005b83811015614ea2578082015181840152602081019050614e87565b50505050905090810190601f168015614ecf5780820380516001836020036101000a031916815260200191505b509250505060405180910390fd5b5060008385039050809150509392505050565b604051806101200160405280600081526020016000815260200160608152602001600073ffffffffffffffffffffffffffffffffffffffff16815260200160608152602001606081526020016060815260200160006002811115614f5057fe5b815260200160006002811115614f6257fe5b81525090565b828054600181600116156101000203166002900490600052602060002090601f016020900481019282601f10614fa957805160ff1916838001178555614fd7565b82800160010185558215614fd7579182015b82811115614fd6578251825591602001919060010190614fbb565b5b509050614fe49190614fe8565b5090565b61500a91905b80821115615006576000816000905550600101614fee565b5090565b9056fe596f7520646f206e6f7420686176652073756666696369656e742062616c616e63654552433732313a207472616e7366657220746f206e6f6e20455243373231526563656976657220696d706c656d656e7465724552433732313a207472616e7366657220746f20746865207a65726f20616464726573734552433732313a206f70657261746f7220717565727920666f72206e6f6e6578697374656e7420746f6b656e596f75206e65656420746f20706179206d6f726520657468657220746f20637265617465206120726571756573744552433732313a20617070726f76652063616c6c6572206973206e6f74206f776e6572206e6f7220617070726f76656420666f7220616c6c4552433732313a2062616c616e636520717565727920666f7220746865207a65726f20616464726573734552433732313a206f776e657220717565727920666f72206e6f6e6578697374656e7420746f6b656e6d73672e73656e64657220686173206e6f74206d61646520616e7920726571756573744552433732313a20617070726f76656420717565727920666f72206e6f6e6578697374656e7420746f6b656e4552433732313a207472616e73666572206f6620746f6b656e2074686174206973206e6f74206f776e4552433732313a20617070726f76616c20746f2063757272656e74206f776e65724552433732313a207472616e736665722063616c6c6572206973206e6f74206f776e6572206e6f7220617070726f7665645468652072657175657374207374617465206973206e6f742772657175657374656427a265627a7a72315820d82e57f17dc2c524c15982f84e9e42af81b7b9f46c7c6f3047f0ce79552340f764736f6c634300050c0032",
  "source": "pragma solidity ^0.5.0;\n\nimport \"../node_modules/openzeppelin-solidity/contracts/token/ERC721/ERC721.sol\";\nimport \"./ERC20CYT.sol\";\nimport \"../node_modules/openzeppelin-solidity/contracts/drafts/Counters.sol\";\n\n\n/// @title A dapp for create reques\n/// @author Larry A. Gardner\n/// @notice Dapp to create requests to a city council, for example. If the requests are solved, the user will earn token\n/// @dev All function calls are currently implemented without side effects\ncontract RequestCity is ERC721, ERC20CYT(1) {\n    \n    using Counters for Counters.Counter;\n    \n    uint public requestPrice = 0.01 ether;\n    \n    Counters.Counter private tokenID;\n    \n    uint tokenReward = 10;\n   \n    struct Request {\n        uint id;\n        uint dateOfIssue;\n        string ipfsHash;\n        address payable applicant;\n        string city;\n        string requestAddress;\n        string description;\n        Priority priority;\n        State state;\n    }\n    \n    enum Priority {high, medium, low}\n    enum State {requested, solved, denied}\n    \n    mapping(uint256 => Request) public requests;\n    mapping(address => uint[]) public applicantRequests;\n    \n    event NewRequest(uint requestID, address applicant, string ipfsHash, string city, string requestAddress);\n    event AccidentalDeposit(address sender, uint value);\n    event WithdrawEvent(address owner, uint value);\n    event StateUpdate(uint requestID, State state);\n    \n    /// @author Jordi Guirao\n    /// @notice create a new Request\n    /// @param _ipfsHash ipsfhash of the image\n    /// @param _city Nambe of the city\n    /// @param _requestAddress Address where is the event found\n    /// @param _description Description of the request\n    /// @param _priority Priority that need the request to be solved\n    function createRequest(string memory _ipfsHash, string memory _city, string memory _requestAddress, string memory _description,\n    Priority _priority) public payable {\n        require(msg.value >= requestPrice, \"You need to pay more ether to create a request\");\n        uint ID = tokenID.current();\n        _mint(msg.sender, ID);\n        Request memory request = Request(ID, now, _ipfsHash, msg.sender, _city, _requestAddress, _description, _priority, State.requested);\n        requests[ID] = request;\n        uint[] storage apliRequests = applicantRequests[msg.sender];\n        apliRequests.push(ID);\n        tokenID.increment();\n        emit NewRequest(ID, msg.sender, _ipfsHash, _city, _requestAddress);\n    }\n\n    /// @author Jordi Guirao\n    /// @notice get request information\n    /// @param _requestID ID of the request\n    /// @return request details\n    function getRequest(uint256 _requestID) external view returns(uint _id, uint _dateOfIssue, string memory _ipfsHash, address _applicant, string memory _city, string memory _requestAddress, string memory _description\n    , Priority, State) {\n        require(_exists(_requestID), \"This request ID doe not exists\");\n        Request storage request = requests[_requestID];\n        return (request.id, request.dateOfIssue, request.ipfsHash, request.applicant, request.city, request.requestAddress, request.description, request.priority, request.state);\n    }\n    \n    /// @author Jordi Guirao\n    /// @notice get all the request that a user has made.\n    /// @return an array with the id of the requests that msg.sender has done.\n    function getUserRequests() external view returns (uint[] memory){\n        require(balanceOf(msg.sender) > 0, \"msg.sender has not made any request\");\n        return applicantRequests[msg.sender];\n    }\n\n    /// @author Jordi Guirao\n    /// @notice get the number of requests made by msg.sender\n    /// @return number of requests\n    function getNumberOfRequests() external view returns (uint){\n        return balanceOf(msg.sender);\n    }\n\n    /// @author Jordi Guirao\n    /// @notice change the request state to solve denied. Only onlyOwners can do it\n    /// @param _requestID id of the request\n    /// @return new request state\n    function denyRequest(uint _requestID) public onlyOwner returns (State) {\n        require(requests[_requestID].state == State.requested, \"The request state is not'requested'\");\n        Request storage request = requests[_requestID];\n        request.state = State.denied;\n        emit StateUpdate(_requestID, request.state);\n        return request.state;\n    }\n\n    /// @author Jordi Guirao\n    /// @notice change the request state to solved. Only onlyOwners can do it\n    /// @param _requestID id of the request\n    /// @return new request state\n     function solveRequest(uint _requestID) public onlyOwner returns (State) {\n        require(requests[_requestID].state == State.requested, \"The request state is not'requested'\");\n        Request storage request = requests[_requestID];\n        request.state = State.solved;\n        //ERC20Interface(contractERC20).transfer(request.applicant, tokenReward);\n        mintToken(request.applicant, tokenReward);\n        emit StateUpdate(_requestID, request.state);\n        return request.state;\n    }\n\n    \n    /// @author Jordi Guirao\n    /// @notice change the requestPrice\n    /// @param _newprice new request price in wei\n    /// @return Updated price of the request\n    function setRequestPrice (uint _newprice) public onlyOwner returns (uint) {\n        requestPrice = _newprice * 1 ether;\n        return requestPrice;\n    }\n\n    /// @author Jordi Guirao\n    /// @notice change the tokenReward\n    /// @param _newTokenReward new request price in wei\n    /// @return Updated price of the request\n    function setTokenReward (uint _newTokenReward) public onlyOwner returns (uint) {\n        tokenReward = _newTokenReward;\n        return tokenReward;\n    }\n    \n    /// @author Jordi Guirao\n    /// @notice obtain the balance of the contract address\n    /// @return contracts balance\n    function contractBalance() external view onlyOwner returns(uint) {\n        return address(this).balance;\n    }\n\n    /// @author Jordi Guirao\n    /// @notice owner can withdraw the contract balance\n    function withdrawBalance() external onlyOwner {\n        address payable owner = msg.sender;\n        owner.transfer(address(this).balance);\n        emit WithdrawEvent(owner, address(this).balance);\n    }\n    \n     ///@author Jordi Guirao\n     ///@dev Fallback function allows to deposit ether.\n    function() external payable {\n        if (msg.value > 0) {\n            emit AccidentalDeposit(msg.sender, msg.value);\n\t    }\n    }\n}",
  "sourcePath": "/Users/jordiguiraomuns/Documents/GitHub/FinalProject_ConsenSysAcademy2019_DeveloperBootcamp/contracts/RequestCity.sol",
  "compiler": {
    "name": "solc",
    "version": "0.5.12+commit.7709ece9.Emscripten.clang"
  },
  "schemaVersion": "3.0.18",
  "updatedAt": "2019-11-28T18:44:24.977Z",
  "devdoc": {
    "author": "Larry A. Gardner",
    "details": "All function calls are currently implemented without side effects",
    "methods": {
      "addOwner(address)": {
        "author": "Jordi Guirao",
        "params": {
          "addr": "address"
        },
        "return": "true if the address was added to the ownerslist, false if the address was already in the ownerslist"
      },
      "allowanceAddressToken(address,address)": {
        "author": "Jordi Guirao",
        "params": {
          "_owner": "address The address which owns the funds.",
          "_spender": "address The address which will spend the funds."
        },
        "return": "A uint256 specifying the amount of tokens still available for the spender."
      },
      "approve(address,uint256)": {
        "details": "Approves another address to transfer the given token ID The zero address indicates there is no approved address. There can only be one approved address per token at a given time. Can only be called by the token owner or an approved operator.",
        "params": {
          "to": "address to be approved for the given token ID",
          "tokenId": "uint256 ID of the token to be approved"
        }
      },
      "approveToken(address,uint256)": {
        "author": "Jordi Guirao",
        "params": {
          "_spender": "The address authorized to spend",
          "_value": "the max amount they can spend"
        },
        "return": "bool"
      },
      "balanceAddressToken(address)": {
        "author": "Jordi Guirao",
        "params": {
          "_owner": "The address to query the the balance of."
        },
        "return": "An uint256 representing the amount owned by the passed address."
      },
      "balanceOf(address)": {
        "details": "Gets the balance of the specified address.",
        "params": {
          "owner": "address to query the balance of"
        },
        "return": "uint256 representing the amount owned by the passed address"
      },
      "burnToken(uint256)": {
        "author": "Jordi Guirao",
        "params": {
          "_value": "the amount of money to burn"
        },
        "return": "bool"
      },
      "contractBalance()": {
        "author": "Jordi Guirao",
        "return": "contracts balance"
      },
      "createRequest(string,string,string,string,uint8)": {
        "author": "Jordi Guirao",
        "params": {
          "_city": "Nambe of the city",
          "_description": "Description of the request",
          "_ipfsHash": "ipsfhash of the image",
          "_priority": "Priority that need the request to be solved",
          "_requestAddress": "Address where is the event found"
        }
      },
      "denyRequest(uint256)": {
        "author": "Jordi Guirao",
        "params": {
          "_requestID": "id of the request"
        },
        "return": "new request state"
      },
      "getApproved(uint256)": {
        "details": "Gets the approved address for a token ID, or zero if no address set Reverts if the token ID does not exist.",
        "params": {
          "tokenId": "uint256 ID of the token to query the approval of"
        },
        "return": "address currently approved for the given token ID"
      },
      "getNumberOfRequests()": {
        "author": "Jordi Guirao",
        "return": "number of requests"
      },
      "getRequest(uint256)": {
        "author": "Jordi Guirao",
        "params": {
          "_requestID": "ID of the request"
        },
        "return": "request details"
      },
      "getUserRequests()": {
        "author": "Jordi Guirao",
        "return": "an array with the id of the requests that msg.sender has done."
      },
      "isApprovedForAll(address,address)": {
        "details": "Tells whether an operator is approved by a given owner.",
        "params": {
          "operator": "operator address which you want to query the approval of",
          "owner": "owner address which you want to query the approval of"
        },
        "return": "bool whether the given operator is approved by the given owner"
      },
      "mintToken(address,uint256)": {
        "author": "Jordi Guirao",
        "params": {
          "mintedAmount": "the amount of tokens it will receive",
          "target": "Address to receive the tokens"
        }
      },
      "ownerOf(uint256)": {
        "details": "Gets the owner of the specified token ID.",
        "params": {
          "tokenId": "uint256 ID of the token to query the owner of"
        },
        "return": "address currently marked as the owner of the given token ID"
      },
      "removeOwner(address)": {
        "author": "Jordi Guirao",
        "params": {
          "addr": "address"
        },
        "return": "true if the address was removed from the ownerslist, false if the address wasn't in the ownerslist in the first place"
      },
      "safeTransferFrom(address,address,uint256)": {
        "details": "Safely transfers the ownership of a given token ID to another address If the target address is a contract, it must implement {IERC721Receiver-onERC721Received}, which is called upon a safe transfer, and return the magic value `bytes4(keccak256(\"onERC721Received(address,address,uint256,bytes)\"))`; otherwise, the transfer is reverted. Requires the msg.sender to be the owner, approved, or operator",
        "params": {
          "from": "current owner of the token",
          "to": "address to receive the ownership of the given token ID",
          "tokenId": "uint256 ID of the token to be transferred"
        }
      },
      "safeTransferFrom(address,address,uint256,bytes)": {
        "details": "Safely transfers the ownership of a given token ID to another address If the target address is a contract, it must implement {IERC721Receiver-onERC721Received}, which is called upon a safe transfer, and return the magic value `bytes4(keccak256(\"onERC721Received(address,address,uint256,bytes)\"))`; otherwise, the transfer is reverted. Requires the _msgSender() to be the owner, approved, or operator",
        "params": {
          "_data": "bytes data to send along with a safe transfer check",
          "from": "current owner of the token",
          "to": "address to receive the ownership of the given token ID",
          "tokenId": "uint256 ID of the token to be transferred"
        }
      },
      "setApprovalForAll(address,bool)": {
        "details": "Sets or unsets the approval of a given operator An operator is allowed to transfer all tokens of the sender on their behalf.",
        "params": {
          "approved": "representing the status of the approval to be set",
          "to": "operator address to set the approval"
        }
      },
      "setRequestPrice(uint256)": {
        "author": "Jordi Guirao",
        "params": {
          "_newprice": "new request price in wei"
        },
        "return": "Updated price of the request"
      },
      "setTokenReward(uint256)": {
        "author": "Jordi Guirao",
        "params": {
          "_newTokenReward": "new request price in wei"
        },
        "return": "Updated price of the request"
      },
      "solveRequest(uint256)": {
        "author": "Jordi Guirao",
        "params": {
          "_requestID": "id of the request"
        },
        "return": "new request state"
      },
      "supportsInterface(bytes4)": {
        "details": "See {IERC165-supportsInterface}.     * Time complexity O(1), guaranteed to always use less than 30 000 gas."
      },
      "transferFrom(address,address,uint256)": {
        "details": "Transfers the ownership of a given token ID to another address. Usage of this method is discouraged, use {safeTransferFrom} whenever possible. Requires the msg.sender to be the owner, approved, or operator.",
        "params": {
          "from": "current owner of the token",
          "to": "address to receive the ownership of the given token ID",
          "tokenId": "uint256 ID of the token to be transferred"
        }
      },
      "transferFromToken(address,address,uint256)": {
        "author": "Jordi Guirao",
        "params": {
          "_from": "The address of the sender",
          "_to": "The address of the recipient",
          "_value": "the amount to send"
        },
        "return": "bool"
      },
      "transferToken(address,uint256)": {
        "author": "Jordi Guirao",
        "params": {
          "_to": "The address of the recipient",
          "_value": "the amount to send"
        },
        "return": "bool"
      },
      "withdrawBalance()": {
        "author": "Jordi Guirao"
      }
    },
    "title": "A dapp for create reques"
  },
  "userdoc": {
    "methods": {
      "addOwner(address)": {
        "notice": "add an address to the ownerslist"
      },
      "allowanceAddressToken(address,address)": {
        "notice": "Function to check the amount of tokens that an owner allowed to a spender."
      },
      "approveToken(address,uint256)": {
        "notice": "Set allowanceToken for other address: Allows `_spender` to spend no more than `_value` tokens in your behalf"
      },
      "balanceAddressToken(address)": {
        "notice": "Gets the balance of the specified address."
      },
      "burnToken(uint256)": {
        "notice": "Destroy tokens: Remove `_value` tokens from the system irreversibly"
      },
      "contractBalance()": {
        "notice": "obtain the balance of the contract address"
      },
      "createRequest(string,string,string,string,uint8)": {
        "notice": "create a new Request"
      },
      "denyRequest(uint256)": {
        "notice": "change the request state to solve denied. Only onlyOwners can do it"
      },
      "getNumberOfRequests()": {
        "notice": "get the number of requests made by msg.sender"
      },
      "getRequest(uint256)": {
        "notice": "get request information"
      },
      "getUserRequests()": {
        "notice": "get all the request that a user has made."
      },
      "mintToken(address,uint256)": {
        "notice": "Create `mintedAmount` tokens and send it to `target`"
      },
      "removeOwner(address)": {
        "notice": "remove an address from the ownerslist"
      },
      "setRequestPrice(uint256)": {
        "notice": "change the requestPrice"
      },
      "setTokenReward(uint256)": {
        "notice": "change the tokenReward"
      },
      "solveRequest(uint256)": {
        "notice": "change the request state to solved. Only onlyOwners can do it"
      },
      "transferFromToken(address,address,uint256)": {
        "notice": "Transfer tokens from other addressSend `_value` tokens to `_to` in behalf of `_from`"
      },
      "transferToken(address,uint256)": {
        "notice": "Transfer tokens: Send `_value` tokens to `_to` from your account"
      },
      "withdrawBalance()": {
        "notice": "owner can withdraw the contract balance"
      }
    },
    "notice": "Dapp to create requests to a city council, for example. If the requests are solved, the user will earn token"
  }
}