{
  "contractName": "RequestCity",
  "abi": [
    {
      "anonymous": false,
      "inputs": [
        {
          "indexed": false,
          "internalType": "address",
          "name": "sender",
          "type": "address"
        },
        {
          "indexed": false,
          "internalType": "uint256",
          "name": "value",
          "type": "uint256"
        }
      ],
      "name": "AccidentalDeposit",
      "type": "event"
    },
    {
      "anonymous": false,
      "inputs": [
        {
          "indexed": true,
          "internalType": "address",
          "name": "_owner",
          "type": "address"
        },
        {
          "indexed": true,
          "internalType": "address",
          "name": "_spender",
          "type": "address"
        },
        {
          "indexed": false,
          "internalType": "uint256",
          "name": "_value",
          "type": "uint256"
        }
      ],
      "name": "Approval",
      "type": "event"
    },
    {
      "anonymous": false,
      "inputs": [
        {
          "indexed": true,
          "internalType": "address",
          "name": "owner",
          "type": "address"
        },
        {
          "indexed": true,
          "internalType": "address",
          "name": "operator",
          "type": "address"
        },
        {
          "indexed": false,
          "internalType": "bool",
          "name": "approved",
          "type": "bool"
        }
      ],
      "name": "ApprovalForAll",
      "type": "event"
    },
    {
      "anonymous": false,
      "inputs": [
        {
          "indexed": true,
          "internalType": "address",
          "name": "from",
          "type": "address"
        },
        {
          "indexed": false,
          "internalType": "uint256",
          "name": "value",
          "type": "uint256"
        }
      ],
      "name": "Burn",
      "type": "event"
    },
    {
      "anonymous": false,
      "inputs": [
        {
          "indexed": false,
          "internalType": "uint256",
          "name": "requestID",
          "type": "uint256"
        },
        {
          "indexed": false,
          "internalType": "address",
          "name": "applicant",
          "type": "address"
        },
        {
          "indexed": false,
          "internalType": "string",
          "name": "ipfsHash",
          "type": "string"
        },
        {
          "indexed": false,
          "internalType": "string",
          "name": "city",
          "type": "string"
        },
        {
          "indexed": false,
          "internalType": "string",
          "name": "requestAddress",
          "type": "string"
        }
      ],
      "name": "NewRequest",
      "type": "event"
    },
    {
      "anonymous": false,
      "inputs": [
        {
          "indexed": false,
          "internalType": "address",
          "name": "addr",
          "type": "address"
        }
      ],
      "name": "OwnerslistAddressAdded",
      "type": "event"
    },
    {
      "anonymous": false,
      "inputs": [
        {
          "indexed": false,
          "internalType": "address",
          "name": "addr",
          "type": "address"
        }
      ],
      "name": "OwnerslistAddressRemoved",
      "type": "event"
    },
    {
      "anonymous": false,
      "inputs": [
        {
          "indexed": false,
          "internalType": "uint256",
          "name": "requestID",
          "type": "uint256"
        },
        {
          "indexed": false,
          "internalType": "enum RequestCity.State",
          "name": "state",
          "type": "uint8"
        }
      ],
      "name": "StateUpdate",
      "type": "event"
    },
    {
      "anonymous": false,
      "inputs": [
        {
          "indexed": true,
          "internalType": "address",
          "name": "from",
          "type": "address"
        },
        {
          "indexed": true,
          "internalType": "address",
          "name": "to",
          "type": "address"
        },
        {
          "indexed": false,
          "internalType": "uint256",
          "name": "value",
          "type": "uint256"
        }
      ],
      "name": "Transfer",
      "type": "event"
    },
    {
      "anonymous": false,
      "inputs": [
        {
          "indexed": false,
          "internalType": "address",
          "name": "owner",
          "type": "address"
        },
        {
          "indexed": false,
          "internalType": "uint256",
          "name": "value",
          "type": "uint256"
        }
      ],
      "name": "WithdrawEvent",
      "type": "event"
    },
    {
      "payable": true,
      "stateMutability": "payable",
      "type": "fallback"
    },
    {
      "constant": false,
      "inputs": [
        {
          "internalType": "address",
          "name": "addr",
          "type": "address"
        }
      ],
      "name": "addOwner",
      "outputs": [
        {
          "internalType": "bool",
          "name": "success",
          "type": "bool"
        }
      ],
      "payable": false,
      "stateMutability": "nonpayable",
      "type": "function"
    },
    {
      "constant": true,
      "inputs": [
        {
          "internalType": "address",
          "name": "_owner",
          "type": "address"
        },
        {
          "internalType": "address",
          "name": "_spender",
          "type": "address"
        }
      ],
      "name": "allowanceAddressToken",
      "outputs": [
        {
          "internalType": "uint256",
          "name": "",
          "type": "uint256"
        }
      ],
      "payable": false,
      "stateMutability": "view",
      "type": "function"
    },
    {
      "constant": true,
      "inputs": [
        {
          "internalType": "address",
          "name": "",
          "type": "address"
        },
        {
          "internalType": "address",
          "name": "",
          "type": "address"
        }
      ],
      "name": "allowanceToken",
      "outputs": [
        {
          "internalType": "uint256",
          "name": "",
          "type": "uint256"
        }
      ],
      "payable": false,
      "stateMutability": "view",
      "type": "function"
    },
    {
      "constant": true,
      "inputs": [
        {
          "internalType": "address",
          "name": "",
          "type": "address"
        },
        {
          "internalType": "uint256",
          "name": "",
          "type": "uint256"
        }
      ],
      "name": "applicantRequests",
      "outputs": [
        {
          "internalType": "uint256",
          "name": "",
          "type": "uint256"
        }
      ],
      "payable": false,
      "stateMutability": "view",
      "type": "function"
    },
    {
      "constant": false,
      "inputs": [
        {
          "internalType": "address",
          "name": "to",
          "type": "address"
        },
        {
          "internalType": "uint256",
          "name": "tokenId",
          "type": "uint256"
        }
      ],
      "name": "approve",
      "outputs": [],
      "payable": false,
      "stateMutability": "nonpayable",
      "type": "function"
    },
    {
      "constant": false,
      "inputs": [
        {
          "internalType": "address",
          "name": "_spender",
          "type": "address"
        },
        {
          "internalType": "uint256",
          "name": "_value",
          "type": "uint256"
        }
      ],
      "name": "approveToken",
      "outputs": [
        {
          "internalType": "bool",
          "name": "",
          "type": "bool"
        }
      ],
      "payable": false,
      "stateMutability": "nonpayable",
      "type": "function"
    },
    {
      "constant": true,
      "inputs": [
        {
          "internalType": "address",
          "name": "_owner",
          "type": "address"
        }
      ],
      "name": "balanceAddressToken",
      "outputs": [
        {
          "internalType": "uint256",
          "name": "balance",
          "type": "uint256"
        }
      ],
      "payable": false,
      "stateMutability": "view",
      "type": "function"
    },
    {
      "constant": true,
      "inputs": [
        {
          "internalType": "address",
          "name": "owner",
          "type": "address"
        }
      ],
      "name": "balanceOf",
      "outputs": [
        {
          "internalType": "uint256",
          "name": "",
          "type": "uint256"
        }
      ],
      "payable": false,
      "stateMutability": "view",
      "type": "function"
    },
    {
      "constant": true,
      "inputs": [
        {
          "internalType": "address",
          "name": "",
          "type": "address"
        }
      ],
      "name": "balanceOfToken",
      "outputs": [
        {
          "internalType": "uint256",
          "name": "",
          "type": "uint256"
        }
      ],
      "payable": false,
      "stateMutability": "view",
      "type": "function"
    },
    {
      "constant": false,
      "inputs": [
        {
          "internalType": "uint256",
          "name": "_value",
          "type": "uint256"
        }
      ],
      "name": "burnToken",
      "outputs": [
        {
          "internalType": "bool",
          "name": "",
          "type": "bool"
        }
      ],
      "payable": false,
      "stateMutability": "nonpayable",
      "type": "function"
    },
    {
      "constant": true,
      "inputs": [
        {
          "internalType": "uint256",
          "name": "tokenId",
          "type": "uint256"
        }
      ],
      "name": "getApproved",
      "outputs": [
        {
          "internalType": "address",
          "name": "",
          "type": "address"
        }
      ],
      "payable": false,
      "stateMutability": "view",
      "type": "function"
    },
    {
      "constant": true,
      "inputs": [
        {
          "internalType": "address",
          "name": "owner",
          "type": "address"
        },
        {
          "internalType": "address",
          "name": "operator",
          "type": "address"
        }
      ],
      "name": "isApprovedForAll",
      "outputs": [
        {
          "internalType": "bool",
          "name": "",
          "type": "bool"
        }
      ],
      "payable": false,
      "stateMutability": "view",
      "type": "function"
    },
    {
      "constant": false,
      "inputs": [
        {
          "internalType": "address",
          "name": "target",
          "type": "address"
        },
        {
          "internalType": "uint256",
          "name": "mintedAmount",
          "type": "uint256"
        }
      ],
      "name": "mintToken",
      "outputs": [],
      "payable": false,
      "stateMutability": "nonpayable",
      "type": "function"
    },
    {
      "constant": true,
      "inputs": [],
      "name": "name",
      "outputs": [
        {
          "internalType": "string",
          "name": "",
          "type": "string"
        }
      ],
      "payable": false,
      "stateMutability": "view",
      "type": "function"
    },
    {
      "constant": true,
      "inputs": [
        {
          "internalType": "uint256",
          "name": "tokenId",
          "type": "uint256"
        }
      ],
      "name": "ownerOf",
      "outputs": [
        {
          "internalType": "address",
          "name": "",
          "type": "address"
        }
      ],
      "payable": false,
      "stateMutability": "view",
      "type": "function"
    },
    {
      "constant": true,
      "inputs": [
        {
          "internalType": "address",
          "name": "",
          "type": "address"
        }
      ],
      "name": "ownerslist",
      "outputs": [
        {
          "internalType": "bool",
          "name": "",
          "type": "bool"
        }
      ],
      "payable": false,
      "stateMutability": "view",
      "type": "function"
    },
    {
      "constant": false,
      "inputs": [
        {
          "internalType": "address",
          "name": "addr",
          "type": "address"
        }
      ],
      "name": "removeOwner",
      "outputs": [
        {
          "internalType": "bool",
          "name": "success",
          "type": "bool"
        }
      ],
      "payable": false,
      "stateMutability": "nonpayable",
      "type": "function"
    },
    {
      "constant": true,
      "inputs": [],
      "name": "requestPrice",
      "outputs": [
        {
          "internalType": "uint256",
          "name": "",
          "type": "uint256"
        }
      ],
      "payable": false,
      "stateMutability": "view",
      "type": "function"
    },
    {
      "constant": true,
      "inputs": [
        {
          "internalType": "uint256",
          "name": "",
          "type": "uint256"
        }
      ],
      "name": "requests",
      "outputs": [
        {
          "internalType": "uint256",
          "name": "id",
          "type": "uint256"
        },
        {
          "internalType": "uint256",
          "name": "dateOfIssue",
          "type": "uint256"
        },
        {
          "internalType": "string",
          "name": "ipfsHash",
          "type": "string"
        },
        {
          "internalType": "address payable",
          "name": "applicant",
          "type": "address"
        },
        {
          "internalType": "string",
          "name": "city",
          "type": "string"
        },
        {
          "internalType": "string",
          "name": "requestAddress",
          "type": "string"
        },
        {
          "internalType": "string",
          "name": "description",
          "type": "string"
        },
        {
          "internalType": "enum RequestCity.Priority",
          "name": "priority",
          "type": "uint8"
        },
        {
          "internalType": "enum RequestCity.State",
          "name": "state",
          "type": "uint8"
        }
      ],
      "payable": false,
      "stateMutability": "view",
      "type": "function"
    },
    {
      "constant": false,
      "inputs": [
        {
          "internalType": "address",
          "name": "from",
          "type": "address"
        },
        {
          "internalType": "address",
          "name": "to",
          "type": "address"
        },
        {
          "internalType": "uint256",
          "name": "tokenId",
          "type": "uint256"
        }
      ],
      "name": "safeTransferFrom",
      "outputs": [],
      "payable": false,
      "stateMutability": "nonpayable",
      "type": "function"
    },
    {
      "constant": false,
      "inputs": [
        {
          "internalType": "address",
          "name": "from",
          "type": "address"
        },
        {
          "internalType": "address",
          "name": "to",
          "type": "address"
        },
        {
          "internalType": "uint256",
          "name": "tokenId",
          "type": "uint256"
        },
        {
          "internalType": "bytes",
          "name": "_data",
          "type": "bytes"
        }
      ],
      "name": "safeTransferFrom",
      "outputs": [],
      "payable": false,
      "stateMutability": "nonpayable",
      "type": "function"
    },
    {
      "constant": false,
      "inputs": [
        {
          "internalType": "address",
          "name": "to",
          "type": "address"
        },
        {
          "internalType": "bool",
          "name": "approved",
          "type": "bool"
        }
      ],
      "name": "setApprovalForAll",
      "outputs": [],
      "payable": false,
      "stateMutability": "nonpayable",
      "type": "function"
    },
    {
      "constant": true,
      "inputs": [
        {
          "internalType": "bytes4",
          "name": "interfaceId",
          "type": "bytes4"
        }
      ],
      "name": "supportsInterface",
      "outputs": [
        {
          "internalType": "bool",
          "name": "",
          "type": "bool"
        }
      ],
      "payable": false,
      "stateMutability": "view",
      "type": "function"
    },
    {
      "constant": true,
      "inputs": [],
      "name": "symbol",
      "outputs": [
        {
          "internalType": "string",
          "name": "",
          "type": "string"
        }
      ],
      "payable": false,
      "stateMutability": "view",
      "type": "function"
    },
    {
      "constant": true,
      "inputs": [],
      "name": "tokenReward",
      "outputs": [
        {
          "internalType": "uint256",
          "name": "",
          "type": "uint256"
        }
      ],
      "payable": false,
      "stateMutability": "view",
      "type": "function"
    },
    {
      "constant": true,
      "inputs": [],
      "name": "totalSupply",
      "outputs": [
        {
          "internalType": "uint256",
          "name": "",
          "type": "uint256"
        }
      ],
      "payable": false,
      "stateMutability": "view",
      "type": "function"
    },
    {
      "constant": false,
      "inputs": [
        {
          "internalType": "address",
          "name": "from",
          "type": "address"
        },
        {
          "internalType": "address",
          "name": "to",
          "type": "address"
        },
        {
          "internalType": "uint256",
          "name": "tokenId",
          "type": "uint256"
        }
      ],
      "name": "transferFrom",
      "outputs": [],
      "payable": false,
      "stateMutability": "nonpayable",
      "type": "function"
    },
    {
      "constant": false,
      "inputs": [
        {
          "internalType": "address",
          "name": "_from",
          "type": "address"
        },
        {
          "internalType": "address",
          "name": "_to",
          "type": "address"
        },
        {
          "internalType": "uint256",
          "name": "_value",
          "type": "uint256"
        }
      ],
      "name": "transferFromToken",
      "outputs": [
        {
          "internalType": "bool",
          "name": "",
          "type": "bool"
        }
      ],
      "payable": false,
      "stateMutability": "nonpayable",
      "type": "function"
    },
    {
      "constant": false,
      "inputs": [
        {
          "internalType": "address",
          "name": "_to",
          "type": "address"
        },
        {
          "internalType": "uint256",
          "name": "_value",
          "type": "uint256"
        }
      ],
      "name": "transferToken",
      "outputs": [
        {
          "internalType": "bool",
          "name": "",
          "type": "bool"
        }
      ],
      "payable": false,
      "stateMutability": "nonpayable",
      "type": "function"
    },
    {
      "constant": false,
      "inputs": [
        {
          "internalType": "string",
          "name": "_ipfsHash",
          "type": "string"
        },
        {
          "internalType": "string",
          "name": "_city",
          "type": "string"
        },
        {
          "internalType": "string",
          "name": "_requestAddress",
          "type": "string"
        },
        {
          "internalType": "string",
          "name": "_description",
          "type": "string"
        },
        {
          "internalType": "enum RequestCity.Priority",
          "name": "_priority",
          "type": "uint8"
        }
      ],
      "name": "createRequest",
      "outputs": [],
      "payable": true,
      "stateMutability": "payable",
      "type": "function"
    },
    {
      "constant": true,
      "inputs": [
        {
          "internalType": "uint256",
          "name": "_requestID",
          "type": "uint256"
        }
      ],
      "name": "getRequest",
      "outputs": [
        {
          "internalType": "uint256",
          "name": "_id",
          "type": "uint256"
        },
        {
          "internalType": "uint256",
          "name": "_dateOfIssue",
          "type": "uint256"
        },
        {
          "internalType": "string",
          "name": "_ipfsHash",
          "type": "string"
        },
        {
          "internalType": "address",
          "name": "_applicant",
          "type": "address"
        },
        {
          "internalType": "string",
          "name": "_city",
          "type": "string"
        },
        {
          "internalType": "string",
          "name": "_requestAddress",
          "type": "string"
        },
        {
          "internalType": "string",
          "name": "_description",
          "type": "string"
        },
        {
          "internalType": "enum RequestCity.Priority",
          "name": "",
          "type": "uint8"
        },
        {
          "internalType": "enum RequestCity.State",
          "name": "",
          "type": "uint8"
        }
      ],
      "payable": false,
      "stateMutability": "view",
      "type": "function"
    },
    {
      "constant": true,
      "inputs": [],
      "name": "getUserRequests",
      "outputs": [
        {
          "internalType": "uint256[]",
          "name": "",
          "type": "uint256[]"
        }
      ],
      "payable": false,
      "stateMutability": "view",
      "type": "function"
    },
    {
      "constant": true,
      "inputs": [],
      "name": "getNumberOfRequests",
      "outputs": [
        {
          "internalType": "uint256",
          "name": "",
          "type": "uint256"
        }
      ],
      "payable": false,
      "stateMutability": "view",
      "type": "function"
    },
    {
      "constant": false,
      "inputs": [
        {
          "internalType": "uint256",
          "name": "_requestID",
          "type": "uint256"
        }
      ],
      "name": "denyRequest",
      "outputs": [
        {
          "internalType": "enum RequestCity.State",
          "name": "",
          "type": "uint8"
        }
      ],
      "payable": false,
      "stateMutability": "nonpayable",
      "type": "function"
    },
    {
      "constant": false,
      "inputs": [
        {
          "internalType": "uint256",
          "name": "_requestID",
          "type": "uint256"
        }
      ],
      "name": "solveRequest",
      "outputs": [
        {
          "internalType": "enum RequestCity.State",
          "name": "",
          "type": "uint8"
        }
      ],
      "payable": false,
      "stateMutability": "nonpayable",
      "type": "function"
    },
    {
      "constant": false,
      "inputs": [
        {
          "internalType": "uint256",
          "name": "_newprice",
          "type": "uint256"
        }
      ],
      "name": "setRequestPrice",
      "outputs": [
        {
          "internalType": "uint256",
          "name": "",
          "type": "uint256"
        }
      ],
      "payable": false,
      "stateMutability": "nonpayable",
      "type": "function"
    },
    {
      "constant": false,
      "inputs": [
        {
          "internalType": "uint256",
          "name": "_newTokenReward",
          "type": "uint256"
        }
      ],
      "name": "setTokenReward",
      "outputs": [
        {
          "internalType": "uint256",
          "name": "",
          "type": "uint256"
        }
      ],
      "payable": false,
      "stateMutability": "nonpayable",
      "type": "function"
    },
    {
      "constant": true,
      "inputs": [],
      "name": "contractBalance",
      "outputs": [
        {
          "internalType": "uint256",
          "name": "",
          "type": "uint256"
        }
      ],
      "payable": false,
      "stateMutability": "view",
      "type": "function"
    },
    {
      "constant": false,
      "inputs": [],
      "name": "withdrawBalance",
      "outputs": [],
      "payable": false,
      "stateMutability": "nonpayable",
      "type": "function"
    }
  ],
  "bytecode": "0x60806040526040518060400160405280600981526020017f43697479546f6b656e0000000000000000000000000000000000000000000000815250600690805190602001906200005192919062000297565b506040518060400160405280600381526020017f4359540000000000000000000000000000000000000000000000000000000000815250600790805190602001906200009f92919062000297565b50662386f26fc10000600b55600a600d556001620000ca6301ffc9a760e01b6200018e60201b60201c565b620000e26380ac58cd60e01b6200018e60201b60201c565b6001600560003373ffffffffffffffffffffffffffffffffffffffff1673ffffffffffffffffffffffffffffffffffffffff16815260200190815260200160002060006101000a81548160ff02191690831515021790555080600881905550600854600960003373ffffffffffffffffffffffffffffffffffffffff1673ffffffffffffffffffffffffffffffffffffffff168152602001908152602001600020819055505062000346565b63ffffffff60e01b817bffffffffffffffffffffffffffffffffffffffffffffffffffffffff191614156200022b576040517f08c379a000000000000000000000000000000000000000000000000000000000815260040180806020018281038252601c8152602001807f4552433136353a20696e76616c696420696e746572666163652069640000000081525060200191505060405180910390fd5b6001600080837bffffffffffffffffffffffffffffffffffffffffffffffffffffffff19167bffffffffffffffffffffffffffffffffffffffffffffffffffffffff1916815260200190815260200160002060006101000a81548160ff02191690831515021790555050565b828054600181600116156101000203166002900490600052602060002090601f016020900481019282601f10620002da57805160ff19168380011785556200030b565b828001600101855582156200030b579182015b828111156200030a578251825591602001919060010190620002ed565b5b5090506200031a91906200031e565b5090565b6200034391905b808211156200033f57600081600090555060010162000325565b5090565b90565b6152c880620003566000396000f3fe6080604052600436106102305760003560e01c80637065cb481161012e57806395d89b41116100ab578063b88d4fde1161006f578063b88d4fde146113c7578063b99152d0146114d9578063c1110cf91461153e578063c58343ef1461159b578063e985e9c5146117fe57610230565b806395d89b41146111975780639738849714611227578063a22cb46514611252578063ad6822ae146112af578063b4765db71461133457610230565b806381d12c58116100f257806381d12c5814610b8e57806389e67ad414610df157806389eaf2d71461107e5780638b7afe2e14611103578063916782cf1461112e57610230565b80637065cb48146109b557806370a0823114610a1e57806379c6506814610a8357806379f96c5714610ade5780637b47ec1a14610b3b57610230565b806323b872dd116101bc57806355fe42561161018057806355fe42561461081d5780635ad7c05c1461088c5780635fd8c710146108f85780636352211e1461090f5780636e66f6e91461098a57610230565b806323b872dd146106245780633fcf7ca11461069f57806342842e0e146106ee57806349f06141146107695780634fe01d38146107ce57610230565b8063095ea7b311610203578063095ea7b3146104975780631072cbea146104f25780631604f9ea14610565578063173825d91461059057806318160ddd146105f957610230565b806301ffc9a7146102a7578063022fc88b1461031957806306fdde031461038c578063081812fc1461041c575b60003411156102a5577fd74ca19e3ad79f107cd3fb64be535aace3422e872c572909645452a6a91580623334604051808373ffffffffffffffffffffffffffffffffffffffff1673ffffffffffffffffffffffffffffffffffffffff1681526020018281526020019250505060405180910390a15b005b3480156102b357600080fd5b506102ff600480360360208110156102ca57600080fd5b8101908080357bffffffffffffffffffffffffffffffffffffffffffffffffffffffff19169060200190929190505050611887565b604051808215151515815260200191505060405180910390f35b34801561032557600080fd5b506103726004803603604081101561033c57600080fd5b81019080803573ffffffffffffffffffffffffffffffffffffffff169060200190929190803590602001909291905050506118ee565b604051808215151515815260200191505060405180910390f35b34801561039857600080fd5b506103a16119e0565b6040518080602001828103825283818151815260200191508051906020019080838360005b838110156103e15780820151818401526020810190506103c6565b50505050905090810190601f16801561040e5780820380516001836020036101000a031916815260200191505b509250505060405180910390f35b34801561042857600080fd5b506104556004803603602081101561043f57600080fd5b8101908080359060200190929190505050611a7e565b604051808273ffffffffffffffffffffffffffffffffffffffff1673ffffffffffffffffffffffffffffffffffffffff16815260200191505060405180910390f35b3480156104a357600080fd5b506104f0600480360360408110156104ba57600080fd5b81019080803573ffffffffffffffffffffffffffffffffffffffff16906020019092919080359060200190929190505050611b19565b005b3480156104fe57600080fd5b5061054b6004803603604081101561051557600080fd5b81019080803573ffffffffffffffffffffffffffffffffffffffff16906020019092919080359060200190929190505050611d00565b604051808215151515815260200191505060405180910390f35b34801561057157600080fd5b5061057a611d17565b6040518082815260200191505060405180910390f35b34801561059c57600080fd5b506105df600480360360208110156105b357600080fd5b81019080803573ffffffffffffffffffffffffffffffffffffffff169060200190929190505050611d1d565b604051808215151515815260200191505060405180910390f35b34801561060557600080fd5b5061060e611ef5565b6040518082815260200191505060405180910390f35b34801561063057600080fd5b5061069d6004803603606081101561064757600080fd5b81019080803573ffffffffffffffffffffffffffffffffffffffff169060200190929190803573ffffffffffffffffffffffffffffffffffffffff16906020019092919080359060200190929190505050611efb565b005b3480156106ab57600080fd5b506106d8600480360360208110156106c257600080fd5b8101908080359060200190929190505050611f71565b6040518082815260200191505060405180910390f35b3480156106fa57600080fd5b506107676004803603606081101561071157600080fd5b81019080803573ffffffffffffffffffffffffffffffffffffffff169060200190929190803573ffffffffffffffffffffffffffffffffffffffff1690602001909291908035906020019092919050505061204d565b005b34801561077557600080fd5b506107b86004803603602081101561078c57600080fd5b81019080803573ffffffffffffffffffffffffffffffffffffffff16906020019092919050505061206d565b6040518082815260200191505060405180910390f35b3480156107da57600080fd5b50610807600480360360208110156107f157600080fd5b81019080803590602001909291905050506120b6565b6040518082815260200191505060405180910390f35b34801561082957600080fd5b506108766004803603604081101561084057600080fd5b81019080803573ffffffffffffffffffffffffffffffffffffffff16906020019092919080359060200190929190505050612188565b6040518082815260200191505060405180910390f35b34801561089857600080fd5b506108a16121b6565b6040518080602001828103825283818151815260200191508051906020019060200280838360005b838110156108e45780820151818401526020810190506108c9565b505050509050019250505060405180910390f35b34801561090457600080fd5b5061090d6122ac565b005b34801561091b57600080fd5b506109486004803603602081101561093257600080fd5b8101908080359060200190929190505050612453565b604051808273ffffffffffffffffffffffffffffffffffffffff1673ffffffffffffffffffffffffffffffffffffffff16815260200191505060405180910390f35b34801561099657600080fd5b5061099f61251b565b6040518082815260200191505060405180910390f35b3480156109c157600080fd5b50610a04600480360360208110156109d857600080fd5b81019080803573ffffffffffffffffffffffffffffffffffffffff169060200190929190505050612521565b604051808215151515815260200191505060405180910390f35b348015610a2a57600080fd5b50610a6d60048036036020811015610a4157600080fd5b81019080803573ffffffffffffffffffffffffffffffffffffffff1690602001909291905050506126f8565b6040518082815260200191505060405180910390f35b348015610a8f57600080fd5b50610adc60048036036040811015610aa657600080fd5b81019080803573ffffffffffffffffffffffffffffffffffffffff169060200190929190803590602001909291905050506127cd565b005b348015610aea57600080fd5b50610b1760048036036020811015610b0157600080fd5b8101908080359060200190929190505050612952565b60405180826002811115610b2757fe5b60ff16815260200191505060405180910390f35b348015610b4757600080fd5b50610b7460048036036020811015610b5e57600080fd5b8101908080359060200190929190505050612b5a565b604051808215151515815260200191505060405180910390f35b348015610b9a57600080fd5b50610bc760048036036020811015610bb157600080fd5b8101908080359060200190929190505050612d67565b604051808a8152602001898152602001806020018873ffffffffffffffffffffffffffffffffffffffff1673ffffffffffffffffffffffffffffffffffffffff168152602001806020018060200180602001876002811115610c2557fe5b60ff168152602001866002811115610c3957fe5b60ff16815260200185810385528c818151815260200191508051906020019080838360005b83811015610c79578082015181840152602081019050610c5e565b50505050905090810190601f168015610ca65780820380516001836020036101000a031916815260200191505b5085810384528a818151815260200191508051906020019080838360005b83811015610cdf578082015181840152602081019050610cc4565b50505050905090810190601f168015610d0c5780820380516001836020036101000a031916815260200191505b50858103835289818151815260200191508051906020019080838360005b83811015610d45578082015181840152602081019050610d2a565b50505050905090810190601f168015610d725780820380516001836020036101000a031916815260200191505b50858103825288818151815260200191508051906020019080838360005b83811015610dab578082015181840152602081019050610d90565b50505050905090810190601f168015610dd85780820380516001836020036101000a031916815260200191505b509d505050505050505050505050505060405180910390f35b61107c600480360360a0811015610e0757600080fd5b8101908080359060200190640100000000811115610e2457600080fd5b820183602082011115610e3657600080fd5b80359060200191846001830284011164010000000083111715610e5857600080fd5b91908080601f016020809104026020016040519081016040528093929190818152602001838380828437600081840152601f19601f82011690508083019250505050505050919291929080359060200190640100000000811115610ebb57600080fd5b820183602082011115610ecd57600080fd5b80359060200191846001830284011164010000000083111715610eef57600080fd5b91908080601f016020809104026020016040519081016040528093929190818152602001838380828437600081840152601f19601f82011690508083019250505050505050919291929080359060200190640100000000811115610f5257600080fd5b820183602082011115610f6457600080fd5b80359060200191846001830284011164010000000083111715610f8657600080fd5b91908080601f016020809104026020016040519081016040528093929190818152602001838380828437600081840152601f19601f82011690508083019250505050505050919291929080359060200190640100000000811115610fe957600080fd5b820183602082011115610ffb57600080fd5b8035906020019184600183028401116401000000008311171561101d57600080fd5b91908080601f016020809104026020016040519081016040528093929190818152602001838380828437600081840152601f19601f820116905080830192505050505050509192919290803560ff16906020019092919050505061304f565b005b34801561108a57600080fd5b506110ed600480360360408110156110a157600080fd5b81019080803573ffffffffffffffffffffffffffffffffffffffff169060200190929190803573ffffffffffffffffffffffffffffffffffffffff1690602001909291905050506134a6565b6040518082815260200191505060405180910390f35b34801561110f57600080fd5b5061111861352d565b6040518082815260200191505060405180910390f35b34801561113a57600080fd5b5061117d6004803603602081101561115157600080fd5b81019080803573ffffffffffffffffffffffffffffffffffffffff16906020019092919050505061360b565b604051808215151515815260200191505060405180910390f35b3480156111a357600080fd5b506111ac61362b565b6040518080602001828103825283818151815260200191508051906020019080838360005b838110156111ec5780820151818401526020810190506111d1565b50505050905090810190601f1680156112195780820380516001836020036101000a031916815260200191505b509250505060405180910390f35b34801561123357600080fd5b5061123c6136c9565b6040518082815260200191505060405180910390f35b34801561125e57600080fd5b506112ad6004803603604081101561127557600080fd5b81019080803573ffffffffffffffffffffffffffffffffffffffff1690602001909291908035151590602001909291905050506136d9565b005b3480156112bb57600080fd5b5061131e600480360360408110156112d257600080fd5b81019080803573ffffffffffffffffffffffffffffffffffffffff169060200190929190803573ffffffffffffffffffffffffffffffffffffffff169060200190929190505050613891565b6040518082815260200191505060405180910390f35b34801561134057600080fd5b506113ad6004803603606081101561135757600080fd5b81019080803573ffffffffffffffffffffffffffffffffffffffff169060200190929190803573ffffffffffffffffffffffffffffffffffffffff169060200190929190803590602001909291905050506138b6565b604051808215151515815260200191505060405180910390f35b3480156113d357600080fd5b506114d7600480360360808110156113ea57600080fd5b81019080803573ffffffffffffffffffffffffffffffffffffffff169060200190929190803573ffffffffffffffffffffffffffffffffffffffff169060200190929190803590602001909291908035906020019064010000000081111561145157600080fd5b82018360208201111561146357600080fd5b8035906020019184600183028401116401000000008311171561148557600080fd5b91908080601f016020809104026020016040519081016040528093929190818152602001838380828437600081840152601f19601f820116905080830192505050505050509192919290505050613a4a565b005b3480156114e557600080fd5b50611528600480360360208110156114fc57600080fd5b81019080803573ffffffffffffffffffffffffffffffffffffffff169060200190929190505050613ac2565b6040518082815260200191505060405180910390f35b34801561154a57600080fd5b506115776004803603602081101561156157600080fd5b8101908080359060200190929190505050613ada565b6040518082600281111561158757fe5b60ff16815260200191505060405180910390f35b3480156115a757600080fd5b506115d4600480360360208110156115be57600080fd5b8101908080359060200190929190505050613d12565b604051808a8152602001898152602001806020018873ffffffffffffffffffffffffffffffffffffffff1673ffffffffffffffffffffffffffffffffffffffff16815260200180602001806020018060200187600281111561163257fe5b60ff16815260200186600281111561164657fe5b60ff16815260200185810385528c818151815260200191508051906020019080838360005b8381101561168657808201518184015260208101905061166b565b50505050905090810190601f1680156116b35780820380516001836020036101000a031916815260200191505b5085810384528a818151815260200191508051906020019080838360005b838110156116ec5780820151818401526020810190506116d1565b50505050905090810190601f1680156117195780820380516001836020036101000a031916815260200191505b50858103835289818151815260200191508051906020019080838360005b83811015611752578082015181840152602081019050611737565b50505050905090810190601f16801561177f5780820380516001836020036101000a031916815260200191505b50858103825288818151815260200191508051906020019080838360005b838110156117b857808201518184015260208101905061179d565b50505050905090810190601f1680156117e55780820380516001836020036101000a031916815260200191505b509d505050505050505050505050505060405180910390f35b34801561180a57600080fd5b5061186d6004803603604081101561182157600080fd5b81019080803573ffffffffffffffffffffffffffffffffffffffff169060200190929190803573ffffffffffffffffffffffffffffffffffffffff1690602001909291905050506140a9565b604051808215151515815260200191505060405180910390f35b6000806000837bffffffffffffffffffffffffffffffffffffffffffffffffffffffff19167bffffffffffffffffffffffffffffffffffffffffffffffffffffffff1916815260200190815260200160002060009054906101000a900460ff169050919050565b600081600a60003373ffffffffffffffffffffffffffffffffffffffff1673ffffffffffffffffffffffffffffffffffffffff16815260200190815260200160002060008573ffffffffffffffffffffffffffffffffffffffff1673ffffffffffffffffffffffffffffffffffffffff168152602001908152602001600020819055508273ffffffffffffffffffffffffffffffffffffffff163373ffffffffffffffffffffffffffffffffffffffff167f8c5be1e5ebec7d5bd14f71427d1e84f3dd0314c0f7b2291e5b200ac8c7c3b925846040518082815260200191505060405180910390a36001905092915050565b60068054600181600116156101000203166002900480601f016020809104026020016040519081016040528092919081815260200182805460018160011615610100020316600290048015611a765780601f10611a4b57610100808354040283529160200191611a76565b820191906000526020600020905b815481529060010190602001808311611a5957829003601f168201915b505050505081565b6000611a898261413d565b611ade576040517f08c379a000000000000000000000000000000000000000000000000000000000815260040180806020018281038252602c8152602001806151ca602c913960400191505060405180910390fd5b6002600083815260200190815260200160002060009054906101000a900473ffffffffffffffffffffffffffffffffffffffff169050919050565b6000611b2482612453565b90508073ffffffffffffffffffffffffffffffffffffffff168373ffffffffffffffffffffffffffffffffffffffff161415611bab576040517f08c379a000000000000000000000000000000000000000000000000000000000815260040180806020018281038252602181526020018061521f6021913960400191505060405180910390fd5b8073ffffffffffffffffffffffffffffffffffffffff16611bca6141af565b73ffffffffffffffffffffffffffffffffffffffff161480611bf95750611bf881611bf36141af565b6140a9565b5b611c4e576040517f08c379a000000000000000000000000000000000000000000000000000000000815260040180806020018281038252603881526020018061511c6038913960400191505060405180910390fd5b826002600084815260200190815260200160002060006101000a81548173ffffffffffffffffffffffffffffffffffffffff021916908373ffffffffffffffffffffffffffffffffffffffff160217905550818373ffffffffffffffffffffffffffffffffffffffff168273ffffffffffffffffffffffffffffffffffffffff167f8c5be1e5ebec7d5bd14f71427d1e84f3dd0314c0f7b2291e5b200ac8c7c3b92560405160405180910390a4505050565b6000611d0d3384846141b7565b6001905092915050565b600b5481565b6000600560003373ffffffffffffffffffffffffffffffffffffffff1673ffffffffffffffffffffffffffffffffffffffff16815260200190815260200160002060009054906101000a900460ff16611dde576040517f08c379a00000000000000000000000000000000000000000000000000000000081526004018080602001828103825260148152602001807f596f7520617265206e6f7420616e206f776e657200000000000000000000000081525060200191505060405180910390fd5b600560008373ffffffffffffffffffffffffffffffffffffffff1673ffffffffffffffffffffffffffffffffffffffff16815260200190815260200160002060009054906101000a900460ff1615611ef0576000600560008473ffffffffffffffffffffffffffffffffffffffff1673ffffffffffffffffffffffffffffffffffffffff16815260200190815260200160002060006101000a81548160ff0219169083151502179055507f573f8b697fb02eea64e5bb95dc7d0d06498fbc3d35ec94b4239327afee00777182604051808273ffffffffffffffffffffffffffffffffffffffff1673ffffffffffffffffffffffffffffffffffffffff16815260200191505060405180910390a1600190505b919050565b60085481565b611f0c611f066141af565b82614509565b611f61576040517f08c379a00000000000000000000000000000000000000000000000000000000081526004018080602001828103825260318152602001806152406031913960400191505060405180910390fd5b611f6c8383836145fd565b505050565b6000600560003373ffffffffffffffffffffffffffffffffffffffff1673ffffffffffffffffffffffffffffffffffffffff16815260200190815260200160002060009054906101000a900460ff16612032576040517f08c379a00000000000000000000000000000000000000000000000000000000081526004018080602001828103825260148152602001807f596f7520617265206e6f7420616e206f776e657200000000000000000000000081525060200191505060405180910390fd5b670de0b6b3a76400008202600b81905550600b549050919050565b61206883838360405180602001604052806000815250613a4a565b505050565b6000600960008373ffffffffffffffffffffffffffffffffffffffff1673ffffffffffffffffffffffffffffffffffffffff168152602001908152602001600020549050919050565b6000600560003373ffffffffffffffffffffffffffffffffffffffff1673ffffffffffffffffffffffffffffffffffffffff16815260200190815260200160002060009054906101000a900460ff16612177576040517f08c379a00000000000000000000000000000000000000000000000000000000081526004018080602001828103825260148152602001807f596f7520617265206e6f7420616e206f776e657200000000000000000000000081525060200191505060405180910390fd5b81600d81905550600d549050919050565b600f60205281600052604060002081815481106121a157fe5b90600052602060002001600091509150505481565b606060006121c3336126f8565b11612219576040517f08c379a00000000000000000000000000000000000000000000000000000000081526004018080602001828103825260238152602001806151a76023913960400191505060405180910390fd5b600f60003373ffffffffffffffffffffffffffffffffffffffff1673ffffffffffffffffffffffffffffffffffffffff1681526020019081526020016000208054806020026020016040519081016040528092919081815260200182805480156122a257602002820191906000526020600020905b81548152602001906001019080831161228e575b5050505050905090565b600560003373ffffffffffffffffffffffffffffffffffffffff1673ffffffffffffffffffffffffffffffffffffffff16815260200190815260200160002060009054906101000a900460ff1661236b576040517f08c379a00000000000000000000000000000000000000000000000000000000081526004018080602001828103825260148152602001807f596f7520617265206e6f7420616e206f776e657200000000000000000000000081525060200191505060405180910390fd5b60003390508073ffffffffffffffffffffffffffffffffffffffff166108fc3073ffffffffffffffffffffffffffffffffffffffff16319081150290604051600060405180830381858888f193505050501580156123cd573d6000803e3d6000fd5b507f5dba113b49cfa7c90315e8e604e6b506f7abcb909b01dcb19ec39005086e68fc813073ffffffffffffffffffffffffffffffffffffffff1631604051808373ffffffffffffffffffffffffffffffffffffffff1673ffffffffffffffffffffffffffffffffffffffff1681526020018281526020019250505060405180910390a150565b6000806001600084815260200190815260200160002060009054906101000a900473ffffffffffffffffffffffffffffffffffffffff169050600073ffffffffffffffffffffffffffffffffffffffff168173ffffffffffffffffffffffffffffffffffffffff161415612512576040517f08c379a000000000000000000000000000000000000000000000000000000000815260040180806020018281038252602981526020018061517e6029913960400191505060405180910390fd5b80915050919050565b600d5481565b6000600560003373ffffffffffffffffffffffffffffffffffffffff1673ffffffffffffffffffffffffffffffffffffffff16815260200190815260200160002060009054906101000a900460ff166125e2576040517f08c379a00000000000000000000000000000000000000000000000000000000081526004018080602001828103825260148152602001807f596f7520617265206e6f7420616e206f776e657200000000000000000000000081525060200191505060405180910390fd5b600560008373ffffffffffffffffffffffffffffffffffffffff1673ffffffffffffffffffffffffffffffffffffffff16815260200190815260200160002060009054906101000a900460ff166126f3576001600560008473ffffffffffffffffffffffffffffffffffffffff1673ffffffffffffffffffffffffffffffffffffffff16815260200190815260200160002060006101000a81548160ff0219169083151502179055507f83816cf3e38e624df946c11b7c2432c2f9e3d504aef4bea7a67a4a95a7e9770182604051808273ffffffffffffffffffffffffffffffffffffffff1673ffffffffffffffffffffffffffffffffffffffff16815260200191505060405180910390a1600190505b919050565b60008073ffffffffffffffffffffffffffffffffffffffff168273ffffffffffffffffffffffffffffffffffffffff16141561277f576040517f08c379a000000000000000000000000000000000000000000000000000000000815260040180806020018281038252602a815260200180615154602a913960400191505060405180910390fd5b6127c6600360008473ffffffffffffffffffffffffffffffffffffffff1673ffffffffffffffffffffffffffffffffffffffff168152602001908152602001600020614858565b9050919050565b600560003373ffffffffffffffffffffffffffffffffffffffff1673ffffffffffffffffffffffffffffffffffffffff16815260200190815260200160002060009054906101000a900460ff1661288c576040517f08c379a00000000000000000000000000000000000000000000000000000000081526004018080602001828103825260148152602001807f596f7520617265206e6f7420616e206f776e657200000000000000000000000081525060200191505060405180910390fd5b80600960008473ffffffffffffffffffffffffffffffffffffffff1673ffffffffffffffffffffffffffffffffffffffff16815260200190815260200160002060008282540192505081905550806008600082825401925050819055508173ffffffffffffffffffffffffffffffffffffffff163073ffffffffffffffffffffffffffffffffffffffff167fddf252ad1be2c89b69c2b068fc378daa952ba7f163c4a11628f55a4df523b3ef836040518082815260200191505060405180910390a35050565b6000600560003373ffffffffffffffffffffffffffffffffffffffff1673ffffffffffffffffffffffffffffffffffffffff16815260200190815260200160002060009054906101000a900460ff16612a13576040517f08c379a00000000000000000000000000000000000000000000000000000000081526004018080602001828103825260148152602001807f596f7520617265206e6f7420616e206f776e657200000000000000000000000081525060200191505060405180910390fd5b60006002811115612a2057fe5b600e600084815260200190815260200160002060070160019054906101000a900460ff166002811115612a4f57fe5b14612aa5576040517f08c379a00000000000000000000000000000000000000000000000000000000081526004018080602001828103825260238152602001806152716023913960400191505060405180910390fd5b6000600e6000848152602001908152602001600020905060028160070160016101000a81548160ff02191690836002811115612add57fe5b02179055507faeb9cdb2262d9c6da78aab88f1554ca2a08120de39807de5747118702bfc9631838260070160019054906101000a900460ff1660405180838152602001826002811115612b2c57fe5b60ff1681526020019250505060405180910390a18060070160019054906101000a900460ff16915050919050565b6000600560003373ffffffffffffffffffffffffffffffffffffffff1673ffffffffffffffffffffffffffffffffffffffff16815260200190815260200160002060009054906101000a900460ff16612c1b576040517f08c379a00000000000000000000000000000000000000000000000000000000081526004018080602001828103825260148152602001807f596f7520617265206e6f7420616e206f776e657200000000000000000000000081525060200191505060405180910390fd5b81600960003373ffffffffffffffffffffffffffffffffffffffff1673ffffffffffffffffffffffffffffffffffffffff168152602001908152602001600020541015612cb3576040517f08c379a000000000000000000000000000000000000000000000000000000000815260040180806020018281038252602281526020018061504a6022913960400191505060405180910390fd5b81600960003373ffffffffffffffffffffffffffffffffffffffff1673ffffffffffffffffffffffffffffffffffffffff16815260200190815260200160002060008282540392505081905550816008600082825403925050819055503373ffffffffffffffffffffffffffffffffffffffff167fcc16f5dbb4873280815c1ee09dbd06736cffcc184412cf7a71a0fdb75d397ca5836040518082815260200191505060405180910390a260019050919050565b600e602052806000526040600020600091509050806000015490806001015490806002018054600181600116156101000203166002900480601f016020809104026020016040519081016040528092919081815260200182805460018160011615610100020316600290048015612e1f5780601f10612df457610100808354040283529160200191612e1f565b820191906000526020600020905b815481529060010190602001808311612e0257829003601f168201915b5050505050908060030160009054906101000a900473ffffffffffffffffffffffffffffffffffffffff1690806004018054600181600116156101000203166002900480601f016020809104026020016040519081016040528092919081815260200182805460018160011615610100020316600290048015612ee35780601f10612eb857610100808354040283529160200191612ee3565b820191906000526020600020905b815481529060010190602001808311612ec657829003601f168201915b505050505090806005018054600181600116156101000203166002900480601f016020809104026020016040519081016040528092919081815260200182805460018160011615610100020316600290048015612f815780601f10612f5657610100808354040283529160200191612f81565b820191906000526020600020905b815481529060010190602001808311612f6457829003601f168201915b505050505090806006018054600181600116156101000203166002900480601f01602080910402602001604051908101604052809291908181526020018280546001816001161561010002031660029004801561301f5780601f10612ff45761010080835404028352916020019161301f565b820191906000526020600020905b81548152906001019060200180831161300257829003601f168201915b5050505050908060070160009054906101000a900460ff16908060070160019054906101000a900460ff16905089565b600b543410156130aa576040517f08c379a000000000000000000000000000000000000000000000000000000000815260040180806020018281038252602e8152602001806150ee602e913960400191505060405180910390fd5b60006130b6600c614858565b90506130c23382614866565b6130ca614f2c565b6040518061012001604052808381526020014281526020018881526020013373ffffffffffffffffffffffffffffffffffffffff16815260200187815260200186815260200185815260200184600281111561312257fe5b81526020016000600281111561313457fe5b815250905080600e60008481526020019081526020016000206000820151816000015560208201518160010155604082015181600201908051906020019061317d929190614fa4565b5060608201518160030160006101000a81548173ffffffffffffffffffffffffffffffffffffffff021916908373ffffffffffffffffffffffffffffffffffffffff16021790555060808201518160040190805190602001906131e1929190614fa4565b5060a08201518160050190805190602001906131fe929190614fa4565b5060c082015181600601908051906020019061321b929190614fa4565b5060e08201518160070160006101000a81548160ff0219169083600281111561324057fe5b02179055506101008201518160070160016101000a81548160ff0219169083600281111561326a57fe5b02179055509050506000600f60003373ffffffffffffffffffffffffffffffffffffffff1673ffffffffffffffffffffffffffffffffffffffff1681526020019081526020016000209050808390806001815401808255809150509060018203906000526020600020016000909192909190915055506132ea600c614a7e565b7fd6c92eeb860bf9ce43d6b112fee6f9d8048c39ae1ea79b55ff464900861d1e5483338a8a8a604051808681526020018573ffffffffffffffffffffffffffffffffffffffff1673ffffffffffffffffffffffffffffffffffffffff168152602001806020018060200180602001848103845287818151815260200191508051906020019080838360005b83811015613390578082015181840152602081019050613375565b50505050905090810190601f1680156133bd5780820380516001836020036101000a031916815260200191505b50848103835286818151815260200191508051906020019080838360005b838110156133f65780820151818401526020810190506133db565b50505050905090810190601f1680156134235780820380516001836020036101000a031916815260200191505b50848103825285818151815260200191508051906020019080838360005b8381101561345c578082015181840152602081019050613441565b50505050905090810190601f1680156134895780820380516001836020036101000a031916815260200191505b509850505050505050505060405180910390a15050505050505050565b6000600a60008473ffffffffffffffffffffffffffffffffffffffff1673ffffffffffffffffffffffffffffffffffffffff16815260200190815260200160002060008373ffffffffffffffffffffffffffffffffffffffff1673ffffffffffffffffffffffffffffffffffffffff16815260200190815260200160002054905092915050565b6000600560003373ffffffffffffffffffffffffffffffffffffffff1673ffffffffffffffffffffffffffffffffffffffff16815260200190815260200160002060009054906101000a900460ff166135ee576040517f08c379a00000000000000000000000000000000000000000000000000000000081526004018080602001828103825260148152602001807f596f7520617265206e6f7420616e206f776e657200000000000000000000000081525060200191505060405180910390fd5b3073ffffffffffffffffffffffffffffffffffffffff1631905090565b60056020528060005260406000206000915054906101000a900460ff1681565b60078054600181600116156101000203166002900480601f0160208091040260200160405190810160405280929190818152602001828054600181600116156101000203166002900480156136c15780601f10613696576101008083540402835291602001916136c1565b820191906000526020600020905b8154815290600101906020018083116136a457829003601f168201915b505050505081565b60006136d4336126f8565b905090565b6136e16141af565b73ffffffffffffffffffffffffffffffffffffffff168273ffffffffffffffffffffffffffffffffffffffff161415613782576040517f08c379a00000000000000000000000000000000000000000000000000000000081526004018080602001828103825260198152602001807f4552433732313a20617070726f766520746f2063616c6c65720000000000000081525060200191505060405180910390fd5b806004600061378f6141af565b73ffffffffffffffffffffffffffffffffffffffff1673ffffffffffffffffffffffffffffffffffffffff16815260200190815260200160002060008473ffffffffffffffffffffffffffffffffffffffff1673ffffffffffffffffffffffffffffffffffffffff16815260200190815260200160002060006101000a81548160ff0219169083151502179055508173ffffffffffffffffffffffffffffffffffffffff1661383c6141af565b73ffffffffffffffffffffffffffffffffffffffff167f17307eab39ab6107e8899845ad3d59bd9653f200f220920489ca2b5937696c3183604051808215151515815260200191505060405180910390a35050565b600a602052816000526040600020602052806000526040600020600091509150505481565b6000600a60008573ffffffffffffffffffffffffffffffffffffffff1673ffffffffffffffffffffffffffffffffffffffff16815260200190815260200160002060003373ffffffffffffffffffffffffffffffffffffffff1673ffffffffffffffffffffffffffffffffffffffff168152602001908152602001600020548211156139aa576040517f08c379a00000000000000000000000000000000000000000000000000000000081526004018080602001828103825260138152602001807f596f7520617265206e6f7420616c6c6f7765640000000000000000000000000081525060200191505060405180910390fd5b81600a60008673ffffffffffffffffffffffffffffffffffffffff1673ffffffffffffffffffffffffffffffffffffffff16815260200190815260200160002060003373ffffffffffffffffffffffffffffffffffffffff1673ffffffffffffffffffffffffffffffffffffffff16815260200190815260200160002060008282540392505081905550613a3f8484846141b7565b600190509392505050565b613a5b613a556141af565b83614509565b613ab0576040517f08c379a00000000000000000000000000000000000000000000000000000000081526004018080602001828103825260318152602001806152406031913960400191505060405180910390fd5b613abc84848484614a94565b50505050565b60096020528060005260406000206000915090505481565b6000600560003373ffffffffffffffffffffffffffffffffffffffff1673ffffffffffffffffffffffffffffffffffffffff16815260200190815260200160002060009054906101000a900460ff16613b9b576040517f08c379a00000000000000000000000000000000000000000000000000000000081526004018080602001828103825260148152602001807f596f7520617265206e6f7420616e206f776e657200000000000000000000000081525060200191505060405180910390fd5b60006002811115613ba857fe5b600e600084815260200190815260200160002060070160019054906101000a900460ff166002811115613bd757fe5b14613c2d576040517f08c379a00000000000000000000000000000000000000000000000000000000081526004018080602001828103825260238152602001806152716023913960400191505060405180910390fd5b6000600e6000848152602001908152602001600020905060018160070160016101000a81548160ff02191690836002811115613c6557fe5b0217905550613c9a8160030160009054906101000a900473ffffffffffffffffffffffffffffffffffffffff16600d546127cd565b7faeb9cdb2262d9c6da78aab88f1554ca2a08120de39807de5747118702bfc9631838260070160019054906101000a900460ff1660405180838152602001826002811115613ce457fe5b60ff1681526020019250505060405180910390a18060070160019054906101000a900460ff16915050919050565b600080606060006060806060600080613d2a8a61413d565b613d9c576040517f08c379a000000000000000000000000000000000000000000000000000000000815260040180806020018281038252601e8152602001807f54686973207265717565737420494420646f65206e6f7420657869737473000081525060200191505060405180910390fd5b6000600e60008c8152602001908152602001600020905080600001548160010154826002018360030160009054906101000a900473ffffffffffffffffffffffffffffffffffffffff168460040185600501866006018760070160009054906101000a900460ff168860070160019054906101000a900460ff16868054600181600116156101000203166002900480601f016020809104026020016040519081016040528092919081815260200182805460018160011615610100020316600290048015613eab5780601f10613e8057610100808354040283529160200191613eab565b820191906000526020600020905b815481529060010190602001808311613e8e57829003601f168201915b50505050509650859550848054600181600116156101000203166002900480601f016020809104026020016040519081016040528092919081815260200182805460018160011615610100020316600290048015613f4a5780601f10613f1f57610100808354040283529160200191613f4a565b820191906000526020600020905b815481529060010190602001808311613f2d57829003601f168201915b50505050509450838054600181600116156101000203166002900480601f016020809104026020016040519081016040528092919081815260200182805460018160011615610100020316600290048015613fe65780601f10613fbb57610100808354040283529160200191613fe6565b820191906000526020600020905b815481529060010190602001808311613fc957829003601f168201915b50505050509350828054600181600116156101000203166002900480601f0160208091040260200160405190810160405280929190818152602001828054600181600116156101000203166002900480156140825780601f1061405757610100808354040283529160200191614082565b820191906000526020600020905b81548152906001019060200180831161406557829003601f168201915b50505050509250995099509950995099509950995099509950509193959799909294969850565b6000600460008473ffffffffffffffffffffffffffffffffffffffff1673ffffffffffffffffffffffffffffffffffffffff16815260200190815260200160002060008373ffffffffffffffffffffffffffffffffffffffff1673ffffffffffffffffffffffffffffffffffffffff16815260200190815260200160002060009054906101000a900460ff16905092915050565b6000806001600084815260200190815260200160002060009054906101000a900473ffffffffffffffffffffffffffffffffffffffff169050600073ffffffffffffffffffffffffffffffffffffffff168173ffffffffffffffffffffffffffffffffffffffff161415915050919050565b600033905090565b600073ffffffffffffffffffffffffffffffffffffffff168273ffffffffffffffffffffffffffffffffffffffff16141561425a576040517f08c379a000000000000000000000000000000000000000000000000000000000815260040180806020018281038252601f8152602001807f50726576656e74207472616e7366657220746f2030783020616464726573730081525060200191505060405180910390fd5b80600960008573ffffffffffffffffffffffffffffffffffffffff1673ffffffffffffffffffffffffffffffffffffffff16815260200190815260200160002054101561430f576040517f08c379a000000000000000000000000000000000000000000000000000000000815260040180806020018281038252601d8152602001807f73656e64657220686173206e6f7420656e6f7567682062616c616e636500000081525060200191505060405180910390fd5b600960008373ffffffffffffffffffffffffffffffffffffffff1673ffffffffffffffffffffffffffffffffffffffff1681526020019081526020016000205481600960008573ffffffffffffffffffffffffffffffffffffffff1673ffffffffffffffffffffffffffffffffffffffff16815260200190815260200160002054011015614405576040517f08c379a00000000000000000000000000000000000000000000000000000000081526004018080602001828103825260138152602001807f436865636b20666f72206f766572666c6f77730000000000000000000000000081525060200191505060405180910390fd5b80600960008573ffffffffffffffffffffffffffffffffffffffff1673ffffffffffffffffffffffffffffffffffffffff1681526020019081526020016000206000828254039250508190555080600960008473ffffffffffffffffffffffffffffffffffffffff1673ffffffffffffffffffffffffffffffffffffffff168152602001908152602001600020600082825401925050819055508173ffffffffffffffffffffffffffffffffffffffff168373ffffffffffffffffffffffffffffffffffffffff167fddf252ad1be2c89b69c2b068fc378daa952ba7f163c4a11628f55a4df523b3ef836040518082815260200191505060405180910390a3505050565b60006145148261413d565b614569576040517f08c379a000000000000000000000000000000000000000000000000000000000815260040180806020018281038252602c8152602001806150c2602c913960400191505060405180910390fd5b600061457483612453565b90508073ffffffffffffffffffffffffffffffffffffffff168473ffffffffffffffffffffffffffffffffffffffff1614806145e357508373ffffffffffffffffffffffffffffffffffffffff166145cb84611a7e565b73ffffffffffffffffffffffffffffffffffffffff16145b806145f457506145f381856140a9565b5b91505092915050565b8273ffffffffffffffffffffffffffffffffffffffff1661461d82612453565b73ffffffffffffffffffffffffffffffffffffffff1614614689576040517f08c379a00000000000000000000000000000000000000000000000000000000081526004018080602001828103825260298152602001806151f66029913960400191505060405180910390fd5b600073ffffffffffffffffffffffffffffffffffffffff168273ffffffffffffffffffffffffffffffffffffffff16141561470f576040517f08c379a000000000000000000000000000000000000000000000000000000000815260040180806020018281038252602481526020018061509e6024913960400191505060405180910390fd5b61471881614b06565b61475f600360008573ffffffffffffffffffffffffffffffffffffffff1673ffffffffffffffffffffffffffffffffffffffff168152602001908152602001600020614bc4565b6147a6600360008473ffffffffffffffffffffffffffffffffffffffff1673ffffffffffffffffffffffffffffffffffffffff168152602001908152602001600020614a7e565b816001600083815260200190815260200160002060006101000a81548173ffffffffffffffffffffffffffffffffffffffff021916908373ffffffffffffffffffffffffffffffffffffffff160217905550808273ffffffffffffffffffffffffffffffffffffffff168473ffffffffffffffffffffffffffffffffffffffff167fddf252ad1be2c89b69c2b068fc378daa952ba7f163c4a11628f55a4df523b3ef60405160405180910390a4505050565b600081600001549050919050565b600073ffffffffffffffffffffffffffffffffffffffff168273ffffffffffffffffffffffffffffffffffffffff161415614909576040517f08c379a00000000000000000000000000000000000000000000000000000000081526004018080602001828103825260208152602001807f4552433732313a206d696e7420746f20746865207a65726f206164647265737381525060200191505060405180910390fd5b6149128161413d565b15614985576040517f08c379a000000000000000000000000000000000000000000000000000000000815260040180806020018281038252601c8152602001807f4552433732313a20746f6b656e20616c7265616479206d696e7465640000000081525060200191505060405180910390fd5b816001600083815260200190815260200160002060006101000a81548173ffffffffffffffffffffffffffffffffffffffff021916908373ffffffffffffffffffffffffffffffffffffffff160217905550614a1e600360008473ffffffffffffffffffffffffffffffffffffffff1673ffffffffffffffffffffffffffffffffffffffff168152602001908152602001600020614a7e565b808273ffffffffffffffffffffffffffffffffffffffff16600073ffffffffffffffffffffffffffffffffffffffff167fddf252ad1be2c89b69c2b068fc378daa952ba7f163c4a11628f55a4df523b3ef60405160405180910390a45050565b6001816000016000828254019250508190555050565b614a9f8484846145fd565b614aab84848484614be7565b614b00576040517f08c379a000000000000000000000000000000000000000000000000000000000815260040180806020018281038252603281526020018061506c6032913960400191505060405180910390fd5b50505050565b600073ffffffffffffffffffffffffffffffffffffffff166002600083815260200190815260200160002060009054906101000a900473ffffffffffffffffffffffffffffffffffffffff1673ffffffffffffffffffffffffffffffffffffffff1614614bc15760006002600083815260200190815260200160002060006101000a81548173ffffffffffffffffffffffffffffffffffffffff021916908373ffffffffffffffffffffffffffffffffffffffff1602179055505b50565b614bdc60018260000154614dd790919063ffffffff16565b816000018190555050565b6000614c088473ffffffffffffffffffffffffffffffffffffffff16614e21565b614c155760019050614dcf565b60008473ffffffffffffffffffffffffffffffffffffffff1663150b7a02614c3b6141af565b8887876040518563ffffffff1660e01b8152600401808573ffffffffffffffffffffffffffffffffffffffff1673ffffffffffffffffffffffffffffffffffffffff1681526020018473ffffffffffffffffffffffffffffffffffffffff1673ffffffffffffffffffffffffffffffffffffffff16815260200183815260200180602001828103825283818151815260200191508051906020019080838360005b83811015614cf7578082015181840152602081019050614cdc565b50505050905090810190601f168015614d245780820380516001836020036101000a031916815260200191505b5095505050505050602060405180830381600087803b158015614d4657600080fd5b505af1158015614d5a573d6000803e3d6000fd5b505050506040513d6020811015614d7057600080fd5b8101908080519060200190929190505050905063150b7a0260e01b7bffffffffffffffffffffffffffffffffffffffffffffffffffffffff1916817bffffffffffffffffffffffffffffffffffffffffffffffffffffffff1916149150505b949350505050565b6000614e1983836040518060400160405280601e81526020017f536166654d6174683a207375627472616374696f6e206f766572666c6f770000815250614e6c565b905092915050565b60008060007fc5d2460186f7233c927e7db2dcc703c0e500b653ca82273b7bfad8045d85a47060001b9050833f91506000801b8214158015614e635750808214155b92505050919050565b6000838311158290614f19576040517f08c379a00000000000000000000000000000000000000000000000000000000081526004018080602001828103825283818151815260200191508051906020019080838360005b83811015614ede578082015181840152602081019050614ec3565b50505050905090810190601f168015614f0b5780820380516001836020036101000a031916815260200191505b509250505060405180910390fd5b5060008385039050809150509392505050565b604051806101200160405280600081526020016000815260200160608152602001600073ffffffffffffffffffffffffffffffffffffffff16815260200160608152602001606081526020016060815260200160006002811115614f8c57fe5b815260200160006002811115614f9e57fe5b81525090565b828054600181600116156101000203166002900490600052602060002090601f016020900481019282601f10614fe557805160ff1916838001178555615013565b82800160010185558215615013579182015b82811115615012578251825591602001919060010190614ff7565b5b5090506150209190615024565b5090565b61504691905b8082111561504257600081600090555060010161502a565b5090565b9056fe596f7520646f206e6f7420686176652073756666696369656e742062616c616e63654552433732313a207472616e7366657220746f206e6f6e20455243373231526563656976657220696d706c656d656e7465724552433732313a207472616e7366657220746f20746865207a65726f20616464726573734552433732313a206f70657261746f7220717565727920666f72206e6f6e6578697374656e7420746f6b656e596f75206e65656420746f20706179206d6f726520657468657220746f20637265617465206120726571756573744552433732313a20617070726f76652063616c6c6572206973206e6f74206f776e6572206e6f7220617070726f76656420666f7220616c6c4552433732313a2062616c616e636520717565727920666f7220746865207a65726f20616464726573734552433732313a206f776e657220717565727920666f72206e6f6e6578697374656e7420746f6b656e6d73672e73656e64657220686173206e6f74206d61646520616e7920726571756573744552433732313a20617070726f76656420717565727920666f72206e6f6e6578697374656e7420746f6b656e4552433732313a207472616e73666572206f6620746f6b656e2074686174206973206e6f74206f776e4552433732313a20617070726f76616c20746f2063757272656e74206f776e65724552433732313a207472616e736665722063616c6c6572206973206e6f74206f776e6572206e6f7220617070726f7665645468652072657175657374207374617465206973206e6f742772657175657374656427a265627a7a723158200116d0ef4d3927b7b25d3d4a2d6202ffd9629581cdcc51f8bc7580335aefbcb664736f6c634300050c0032",
  "source": "pragma solidity ^0.5.0;\n\nimport \"../node_modules/openzeppelin-solidity/contracts/token/ERC721/ERC721.sol\";\nimport \"./ERC20CYT.sol\";\nimport \"../node_modules/openzeppelin-solidity/contracts/drafts/Counters.sol\";\n\n/// @title A dapp for create request\n/// @author Jordi Guirao\n/// @notice Dapp to create requests to a city council, for example. If the requests are solved, the user will earn token\ncontract RequestCity is ERC721, ERC20CYT(1) {\n    \n    using Counters for Counters.Counter;\n    \n    uint public requestPrice = 0.01 ether;\n    \n    Counters.Counter private tokenID;\n    \n    uint public tokenReward = 10;\n   \n    struct Request {\n        uint id;\n        uint dateOfIssue;\n        string ipfsHash;\n        address payable applicant;\n        string city;\n        string requestAddress;\n        string description;\n        Priority priority;\n        State state;\n    }\n    \n    enum Priority {high, medium, low}\n    enum State {requested, solved, denied}\n    \n    mapping(uint256 => Request) public requests;\n    mapping(address => uint[]) public applicantRequests;\n    \n    event NewRequest(uint requestID, address applicant, string ipfsHash, string city, string requestAddress);\n    event AccidentalDeposit(address sender, uint value);\n    event WithdrawEvent(address owner, uint value);\n    event StateUpdate(uint requestID, State state);\n    \n    /// @author Jordi Guirao\n    /// @notice create a new Request\n    /// @param _ipfsHash ipsfhash of the image\n    /// @param _city Nambe of the city\n    /// @param _requestAddress Address where is the event found\n    /// @param _description Description of the request\n    /// @param _priority Priority that need the request to be solved\n    function createRequest(string memory _ipfsHash, string memory _city, string memory _requestAddress, string memory _description,\n    Priority _priority) public payable {\n        require(msg.value >= requestPrice, \"You need to pay more ether to create a request\");\n        uint ID = tokenID.current();\n        _mint(msg.sender, ID);\n        Request memory request = Request(ID, now, _ipfsHash, msg.sender, _city, _requestAddress, _description, _priority, State.requested);\n        requests[ID] = request;\n        uint[] storage apliRequests = applicantRequests[msg.sender];\n        apliRequests.push(ID);\n        tokenID.increment();\n        emit NewRequest(ID, msg.sender, _ipfsHash, _city, _requestAddress);\n    }\n\n    /// @author Jordi Guirao\n    /// @notice get request information\n    /// @param _requestID ID of the request\n    /// @return request details\n    function getRequest(uint256 _requestID) external view returns(uint _id, uint _dateOfIssue, string memory _ipfsHash, address _applicant, string memory _city, string memory _requestAddress, string memory _description\n    , Priority, State) {\n        require(_exists(_requestID), \"This request ID doe not exists\");\n        Request storage request = requests[_requestID];\n        return (request.id, request.dateOfIssue, request.ipfsHash, request.applicant, request.city, request.requestAddress, request.description, request.priority, request.state);\n    }\n    \n    /// @author Jordi Guirao\n    /// @notice get all the request that a user has made.\n    /// @return an array with the id of the requests that msg.sender has done.\n    function getUserRequests() external view returns (uint[] memory){\n        require(balanceOf(msg.sender) > 0, \"msg.sender has not made any request\");\n        return applicantRequests[msg.sender];\n    }\n\n    /// @author Jordi Guirao\n    /// @notice get the number of requests made by msg.sender\n    /// @return number of requests\n    function getNumberOfRequests() external view returns (uint){\n        return balanceOf(msg.sender);\n    }\n\n    /// @author Jordi Guirao\n    /// @notice change the request state to solve denied. Only onlyOwners can do it\n    /// @param _requestID id of the request\n    /// @return new request state\n    function denyRequest(uint _requestID) public onlyOwner returns (State) {\n        require(requests[_requestID].state == State.requested, \"The request state is not'requested'\");\n        Request storage request = requests[_requestID];\n        request.state = State.denied;\n        emit StateUpdate(_requestID, request.state);\n        return request.state;\n    }\n\n    /// @author Jordi Guirao\n    /// @notice change the request state to solved. Only onlyOwners can do it\n    /// @param _requestID id of the request\n    /// @return new request state\n     function solveRequest(uint _requestID) public onlyOwner returns (State) {\n        require(requests[_requestID].state == State.requested, \"The request state is not'requested'\");\n        Request storage request = requests[_requestID];\n        request.state = State.solved;\n        mintToken(request.applicant, tokenReward);\n        emit StateUpdate(_requestID, request.state);\n        return request.state;\n    }\n\n    \n    /// @author Jordi Guirao\n    /// @notice change the requestPrice\n    /// @param _newprice new request price in wei\n    /// @return Updated price of the request\n    function setRequestPrice (uint _newprice) public onlyOwner returns (uint) {\n        requestPrice = _newprice * 1 ether;\n        return requestPrice;\n    }\n\n    /// @author Jordi Guirao\n    /// @notice change the tokenReward\n    /// @param _newTokenReward new request price in wei\n    /// @return Updated price of the request\n    function setTokenReward (uint _newTokenReward) public onlyOwner returns (uint) {\n        tokenReward = _newTokenReward;\n        return tokenReward;\n    }\n    \n    /// @author Jordi Guirao\n    /// @notice obtain the balance of the contract address\n    /// @return contracts balance\n    function contractBalance() external view onlyOwner returns(uint) {\n        return address(this).balance;\n    }\n\n    /// @author Jordi Guirao\n    /// @notice owner can withdraw the contract balance\n    function withdrawBalance() external onlyOwner {\n        address payable owner = msg.sender;\n        owner.transfer(address(this).balance);\n        emit WithdrawEvent(owner, address(this).balance);\n    }\n    \n     ///@author Jordi Guirao\n     ///@dev Fallback function allows to deposit ether.\n    function() external payable {\n        if (msg.value > 0) {\n            emit AccidentalDeposit(msg.sender, msg.value);\n\t    }\n    }\n}",
  "sourcePath": "/Users/jordiguiraomuns/Documents/GitHub/FinalProject_ConsenSysAcademy2019_DeveloperBootcamp/contracts/RequestCity.sol",
  "compiler": {
    "name": "solc",
    "version": "0.5.12+commit.7709ece9.Emscripten.clang"
  },
  "schemaVersion": "3.0.19",
  "updatedAt": "2020-01-14T15:10:46.832Z",
  "networkType": "ethereum",
  "devdoc": {
    "author": "Jordi Guirao",
    "methods": {
      "addOwner(address)": {
        "author": "Jordi Guirao",
        "params": {
          "addr": "address"
        },
        "return": "true if the address was added to the ownerslist, false if the address was already in the ownerslist"
      },
      "allowanceAddressToken(address,address)": {
        "author": "Jordi Guirao",
        "params": {
          "_owner": "address The address which owns the funds.",
          "_spender": "address The address which will spend the funds."
        },
        "return": "A uint256 specifying the amount of tokens still available for the spender."
      },
      "approve(address,uint256)": {
        "details": "Approves another address to transfer the given token ID The zero address indicates there is no approved address. There can only be one approved address per token at a given time. Can only be called by the token owner or an approved operator.",
        "params": {
          "to": "address to be approved for the given token ID",
          "tokenId": "uint256 ID of the token to be approved"
        }
      },
      "approveToken(address,uint256)": {
        "author": "Jordi Guirao",
        "params": {
          "_spender": "The address authorized to spend",
          "_value": "the max amount they can spend"
        },
        "return": "bool"
      },
      "balanceAddressToken(address)": {
        "author": "Jordi Guirao",
        "params": {
          "_owner": "The address to query the the balance of."
        },
        "return": "An uint256 representing the amount owned by the passed address."
      },
      "balanceOf(address)": {
        "details": "Gets the balance of the specified address.",
        "params": {
          "owner": "address to query the balance of"
        },
        "return": "uint256 representing the amount owned by the passed address"
      },
      "burnToken(uint256)": {
        "author": "Jordi Guirao",
        "params": {
          "_value": "the amount of money to burn"
        },
        "return": "bool"
      },
      "contractBalance()": {
        "author": "Jordi Guirao",
        "return": "contracts balance"
      },
      "createRequest(string,string,string,string,uint8)": {
        "author": "Jordi Guirao",
        "params": {
          "_city": "Nambe of the city",
          "_description": "Description of the request",
          "_ipfsHash": "ipsfhash of the image",
          "_priority": "Priority that need the request to be solved",
          "_requestAddress": "Address where is the event found"
        }
      },
      "denyRequest(uint256)": {
        "author": "Jordi Guirao",
        "params": {
          "_requestID": "id of the request"
        },
        "return": "new request state"
      },
      "getApproved(uint256)": {
        "details": "Gets the approved address for a token ID, or zero if no address set Reverts if the token ID does not exist.",
        "params": {
          "tokenId": "uint256 ID of the token to query the approval of"
        },
        "return": "address currently approved for the given token ID"
      },
      "getNumberOfRequests()": {
        "author": "Jordi Guirao",
        "return": "number of requests"
      },
      "getRequest(uint256)": {
        "author": "Jordi Guirao",
        "params": {
          "_requestID": "ID of the request"
        },
        "return": "request details"
      },
      "getUserRequests()": {
        "author": "Jordi Guirao",
        "return": "an array with the id of the requests that msg.sender has done."
      },
      "isApprovedForAll(address,address)": {
        "details": "Tells whether an operator is approved by a given owner.",
        "params": {
          "operator": "operator address which you want to query the approval of",
          "owner": "owner address which you want to query the approval of"
        },
        "return": "bool whether the given operator is approved by the given owner"
      },
      "mintToken(address,uint256)": {
        "author": "Jordi Guirao",
        "params": {
          "mintedAmount": "the amount of tokens it will receive",
          "target": "Address to receive the tokens"
        }
      },
      "ownerOf(uint256)": {
        "details": "Gets the owner of the specified token ID.",
        "params": {
          "tokenId": "uint256 ID of the token to query the owner of"
        },
        "return": "address currently marked as the owner of the given token ID"
      },
      "removeOwner(address)": {
        "author": "Jordi Guirao",
        "params": {
          "addr": "address"
        },
        "return": "true if the address was removed from the ownerslist, false if the address wasn't in the ownerslist in the first place"
      },
      "safeTransferFrom(address,address,uint256)": {
        "details": "Safely transfers the ownership of a given token ID to another address If the target address is a contract, it must implement {IERC721Receiver-onERC721Received}, which is called upon a safe transfer, and return the magic value `bytes4(keccak256(\"onERC721Received(address,address,uint256,bytes)\"))`; otherwise, the transfer is reverted. Requires the msg.sender to be the owner, approved, or operator",
        "params": {
          "from": "current owner of the token",
          "to": "address to receive the ownership of the given token ID",
          "tokenId": "uint256 ID of the token to be transferred"
        }
      },
      "safeTransferFrom(address,address,uint256,bytes)": {
        "details": "Safely transfers the ownership of a given token ID to another address If the target address is a contract, it must implement {IERC721Receiver-onERC721Received}, which is called upon a safe transfer, and return the magic value `bytes4(keccak256(\"onERC721Received(address,address,uint256,bytes)\"))`; otherwise, the transfer is reverted. Requires the _msgSender() to be the owner, approved, or operator",
        "params": {
          "_data": "bytes data to send along with a safe transfer check",
          "from": "current owner of the token",
          "to": "address to receive the ownership of the given token ID",
          "tokenId": "uint256 ID of the token to be transferred"
        }
      },
      "setApprovalForAll(address,bool)": {
        "details": "Sets or unsets the approval of a given operator An operator is allowed to transfer all tokens of the sender on their behalf.",
        "params": {
          "approved": "representing the status of the approval to be set",
          "to": "operator address to set the approval"
        }
      },
      "setRequestPrice(uint256)": {
        "author": "Jordi Guirao",
        "params": {
          "_newprice": "new request price in wei"
        },
        "return": "Updated price of the request"
      },
      "setTokenReward(uint256)": {
        "author": "Jordi Guirao",
        "params": {
          "_newTokenReward": "new request price in wei"
        },
        "return": "Updated price of the request"
      },
      "solveRequest(uint256)": {
        "author": "Jordi Guirao",
        "params": {
          "_requestID": "id of the request"
        },
        "return": "new request state"
      },
      "supportsInterface(bytes4)": {
        "details": "See {IERC165-supportsInterface}.     * Time complexity O(1), guaranteed to always use less than 30 000 gas."
      },
      "transferFrom(address,address,uint256)": {
        "details": "Transfers the ownership of a given token ID to another address. Usage of this method is discouraged, use {safeTransferFrom} whenever possible. Requires the msg.sender to be the owner, approved, or operator.",
        "params": {
          "from": "current owner of the token",
          "to": "address to receive the ownership of the given token ID",
          "tokenId": "uint256 ID of the token to be transferred"
        }
      },
      "transferFromToken(address,address,uint256)": {
        "author": "Jordi Guirao",
        "params": {
          "_from": "The address of the sender",
          "_to": "The address of the recipient",
          "_value": "the amount to send"
        },
        "return": "bool"
      },
      "transferToken(address,uint256)": {
        "author": "Jordi Guirao",
        "params": {
          "_to": "The address of the recipient",
          "_value": "the amount to send"
        },
        "return": "bool"
      },
      "withdrawBalance()": {
        "author": "Jordi Guirao"
      }
    },
    "title": "A dapp for create request"
  },
  "userdoc": {
    "methods": {
      "addOwner(address)": {
        "notice": "add an address to the ownerslist"
      },
      "allowanceAddressToken(address,address)": {
        "notice": "Function to check the amount of tokens that an owner allowed to a spender."
      },
      "approveToken(address,uint256)": {
        "notice": "Set allowanceToken for other address: Allows `_spender` to spend no more than `_value` tokens in your behalf"
      },
      "balanceAddressToken(address)": {
        "notice": "Gets the balance of the specified address."
      },
      "burnToken(uint256)": {
        "notice": "Destroy tokens: Remove `_value` tokens from the system irreversibly"
      },
      "contractBalance()": {
        "notice": "obtain the balance of the contract address"
      },
      "createRequest(string,string,string,string,uint8)": {
        "notice": "create a new Request"
      },
      "denyRequest(uint256)": {
        "notice": "change the request state to solve denied. Only onlyOwners can do it"
      },
      "getNumberOfRequests()": {
        "notice": "get the number of requests made by msg.sender"
      },
      "getRequest(uint256)": {
        "notice": "get request information"
      },
      "getUserRequests()": {
        "notice": "get all the request that a user has made."
      },
      "mintToken(address,uint256)": {
        "notice": "Create `mintedAmount` tokens and send it to `target`"
      },
      "removeOwner(address)": {
        "notice": "remove an address from the ownerslist"
      },
      "setRequestPrice(uint256)": {
        "notice": "change the requestPrice"
      },
      "setTokenReward(uint256)": {
        "notice": "change the tokenReward"
      },
      "solveRequest(uint256)": {
        "notice": "change the request state to solved. Only onlyOwners can do it"
      },
      "transferFromToken(address,address,uint256)": {
        "notice": "Transfer tokens from other addressSend `_value` tokens to `_to` in behalf of `_from`"
      },
      "transferToken(address,uint256)": {
        "notice": "Transfer tokens: Send `_value` tokens to `_to` from your account"
      },
      "withdrawBalance()": {
        "notice": "owner can withdraw the contract balance"
      }
    },
    "notice": "Dapp to create requests to a city council, for example. If the requests are solved, the user will earn token"
  }
}